{
  "address": "0x4979585Df899130aeD4E2d945E89BBFeB01c51C0",
  "abi": [
    {
      "anonymous": false,
      "inputs": [
        {
          "indexed": true,
          "internalType": "address",
          "name": "rewardToken",
          "type": "address"
        },
        {
          "indexed": false,
          "internalType": "uint256",
          "name": "reward",
          "type": "uint256"
        },
        {
          "indexed": false,
          "internalType": "uint256",
          "name": "rewardDuration",
          "type": "uint256"
        }
      ],
      "name": "RewardAdded",
      "type": "event"
    },
    {
      "anonymous": false,
      "inputs": [
        {
          "indexed": false,
          "internalType": "address",
          "name": "rewardsToken",
          "type": "address"
        },
        {
          "indexed": false,
          "internalType": "address",
          "name": "distributor",
          "type": "address"
        },
        {
          "indexed": false,
          "internalType": "bool",
          "name": "approved",
          "type": "bool"
        }
      ],
      "name": "RewardDistributorApprovalUpdated",
      "type": "event"
    },
    {
      "anonymous": false,
      "inputs": [
        {
          "indexed": true,
          "internalType": "address",
          "name": "user",
          "type": "address"
        },
        {
          "indexed": true,
          "internalType": "address",
          "name": "rewardToken",
          "type": "address"
        },
        {
          "indexed": false,
          "internalType": "uint256",
          "name": "reward",
          "type": "uint256"
        }
      ],
      "name": "RewardPaid",
      "type": "event"
    },
    {
      "anonymous": false,
      "inputs": [
        {
          "indexed": true,
          "internalType": "address",
          "name": "rewardToken",
          "type": "address"
        },
        {
          "indexed": false,
          "internalType": "address[]",
          "name": "existingRewardTokens",
          "type": "address[]"
        }
      ],
      "name": "RewardTokenAdded",
      "type": "event"
    },
    {
      "anonymous": false,
      "inputs": [
        {
          "indexed": true,
          "internalType": "address",
          "name": "previousGovernor",
          "type": "address"
        },
        {
          "indexed": true,
          "internalType": "address",
          "name": "proposedGovernor",
          "type": "address"
        }
      ],
      "name": "UpdatedGovernor",
      "type": "event"
    },
    {
      "inputs": [],
      "name": "REWARD_DURATION",
      "outputs": [
        {
          "internalType": "uint256",
          "name": "",
          "type": "uint256"
        }
      ],
      "stateMutability": "view",
      "type": "function"
    },
    {
      "inputs": [],
      "name": "VERSION",
      "outputs": [
        {
          "internalType": "string",
          "name": "",
          "type": "string"
        }
      ],
      "stateMutability": "view",
      "type": "function"
    },
    {
      "inputs": [],
      "name": "acceptGovernorship",
      "outputs": [],
      "stateMutability": "nonpayable",
      "type": "function"
    },
    {
      "inputs": [
        {
          "internalType": "address",
          "name": "rewardsToken_",
          "type": "address"
        },
        {
          "internalType": "address",
          "name": "distributor_",
          "type": "address"
        },
        {
          "internalType": "bool",
          "name": "isBoosted_",
          "type": "bool"
        }
      ],
      "name": "addRewardToken",
      "outputs": [],
      "stateMutability": "nonpayable",
      "type": "function"
    },
    {
      "inputs": [
        {
          "internalType": "address",
          "name": "account_",
          "type": "address"
        }
      ],
      "name": "claimRewards",
      "outputs": [],
      "stateMutability": "nonpayable",
      "type": "function"
    },
    {
      "inputs": [
        {
          "internalType": "address",
          "name": "account_",
          "type": "address"
        }
      ],
      "name": "claimableRewards",
      "outputs": [
        {
          "internalType": "address[]",
          "name": "_rewardTokens",
          "type": "address[]"
        },
        {
          "internalType": "uint256[]",
          "name": "_claimableAmounts",
          "type": "uint256[]"
        }
      ],
      "stateMutability": "view",
      "type": "function"
    },
    {
      "inputs": [
        {
          "internalType": "address",
          "name": "rewardToken_",
          "type": "address"
        },
        {
          "internalType": "uint256",
          "name": "rewardAmount_",
          "type": "uint256"
        }
      ],
      "name": "dripRewardAmount",
      "outputs": [],
      "stateMutability": "nonpayable",
      "type": "function"
    },
    {
      "inputs": [],
      "name": "esVSP",
      "outputs": [
        {
          "internalType": "contract IESVSP",
          "name": "",
          "type": "address"
        }
      ],
      "stateMutability": "view",
      "type": "function"
    },
    {
      "inputs": [],
      "name": "governor",
      "outputs": [
        {
          "internalType": "address",
          "name": "",
          "type": "address"
        }
      ],
      "stateMutability": "view",
      "type": "function"
    },
    {
      "inputs": [
        {
          "internalType": "contract IESVSP",
          "name": "esVSP_",
          "type": "address"
        }
      ],
      "name": "initialize",
      "outputs": [],
      "stateMutability": "nonpayable",
      "type": "function"
    },
    {
      "inputs": [
        {
          "internalType": "address",
          "name": "",
          "type": "address"
        },
        {
          "internalType": "address",
          "name": "",
          "type": "address"
        }
      ],
      "name": "isRewardDistributor",
      "outputs": [
        {
          "internalType": "bool",
          "name": "",
          "type": "bool"
        }
      ],
      "stateMutability": "view",
      "type": "function"
    },
    {
      "inputs": [
        {
          "internalType": "address",
          "name": "_rewardToken",
          "type": "address"
        }
      ],
      "name": "lastTimeRewardApplicable",
      "outputs": [
        {
          "internalType": "uint256",
          "name": "",
          "type": "uint256"
        }
      ],
      "stateMutability": "view",
      "type": "function"
    },
    {
      "inputs": [],
      "name": "proposedGovernor",
      "outputs": [
        {
          "internalType": "address",
          "name": "",
          "type": "address"
        }
      ],
      "stateMutability": "view",
      "type": "function"
    },
    {
      "inputs": [
        {
          "internalType": "address",
          "name": "",
          "type": "address"
        },
        {
          "internalType": "address",
          "name": "",
          "type": "address"
        }
      ],
      "name": "rewardOf",
      "outputs": [
        {
          "internalType": "uint128",
          "name": "rewardPerTokenPaid",
          "type": "uint128"
        },
        {
          "internalType": "uint128",
          "name": "claimableRewardsStored",
          "type": "uint128"
        }
      ],
      "stateMutability": "view",
      "type": "function"
    },
    {
      "inputs": [
        {
          "internalType": "uint256",
          "name": "",
          "type": "uint256"
        }
      ],
      "name": "rewardTokens",
      "outputs": [
        {
          "internalType": "address",
          "name": "",
          "type": "address"
        }
      ],
      "stateMutability": "view",
      "type": "function"
    },
    {
      "inputs": [
        {
          "internalType": "address",
          "name": "",
          "type": "address"
        }
      ],
      "name": "rewards",
      "outputs": [
        {
          "internalType": "bool",
          "name": "isBoosted",
          "type": "bool"
        },
        {
          "internalType": "uint256",
          "name": "periodFinish",
          "type": "uint256"
        },
        {
          "internalType": "uint256",
          "name": "rewardPerSecond",
          "type": "uint256"
        },
        {
          "internalType": "uint256",
          "name": "lastUpdateTime",
          "type": "uint256"
        },
        {
          "internalType": "uint256",
          "name": "rewardPerTokenStored",
          "type": "uint256"
        }
      ],
      "stateMutability": "view",
      "type": "function"
    },
    {
      "inputs": [
        {
          "internalType": "address",
          "name": "rewardsToken_",
          "type": "address"
        },
        {
          "internalType": "address",
          "name": "distributor_",
          "type": "address"
        },
        {
          "internalType": "bool",
          "name": "approved_",
          "type": "bool"
        }
      ],
      "name": "setRewardDistributorApproval",
      "outputs": [],
      "stateMutability": "nonpayable",
      "type": "function"
    },
    {
      "inputs": [
        {
          "internalType": "address",
          "name": "_proposedGovernor",
          "type": "address"
        }
      ],
      "name": "transferGovernorship",
      "outputs": [],
      "stateMutability": "nonpayable",
      "type": "function"
    },
    {
      "inputs": [
        {
          "internalType": "address",
          "name": "account_",
          "type": "address"
        }
      ],
      "name": "updateReward",
      "outputs": [],
      "stateMutability": "nonpayable",
      "type": "function"
    }
  ],
  "transactionHash": "0x49cd0368c755cfb8f47c89936042a3bb125ef1ea6245f2d1bf00a1cb616281fc",
  "args": [],
  "numDeployments": 1,
  "solcInputHash": "f4048ce913a3d06b7f9cca2143d299b5",
  "bytecode": "0x608060405234801561001057600080fd5b506001600055611d8c806100256000396000f3fe608060405234801561001057600080fd5b50600436106101105760003560e01c80637bb7bed1116100ad578063dc01f60d11610071578063dc01f60d146102e2578063e947582814610303578063ef5cfb8c14610341578063f3b27bc314610354578063ffa1ad741461035c57600080fd5b80637bb7bed1146102835780638a11a37014610296578063ac5c3f86146102a9578063b6aa515b146102bc578063c4d66de8146102cf57600080fd5b806281cd0b146101155780630700037d1461012a5780630c340a241461019a57806311a208fa146101c05780634732aa1d146101d357806351892ba3146102325780635ade228a14610245578063632447c91461025d578063638634ee14610270575b600080fd5b6101286101233660046119b4565b61038d565b005b61016b6101383660046119ff565b6005602052600090815260409020805460018201546002830154600384015460049094015460ff90931693919290919085565b6040805195151586526020860194909452928401919091526060830152608082015260a0015b60405180910390f35b6001546101b3906201000090046001600160a01b031681565b6040516101919190611a1c565b6101286101ce3660046119b4565b610542565b6102126101e1366004611a30565b60066020908152600092835260408084209091529082529020546001600160801b0380821691600160801b90041682565b604080516001600160801b03938416815292909116602083015201610191565b610128610240366004611a69565b610627565b61024f62278d0081565b604051908152602001610191565b61012861026b3660046119ff565b61071c565b61024f61027e3660046119ff565b61078d565b6101b3610291366004611a95565b6107ba565b6002546101b3906001600160a01b031681565b6003546101b3906001600160a01b031681565b6101286102ca3660046119ff565b6107e4565b6101286102dd3660046119ff565b610889565b6102f56102f03660046119ff565b6109ab565b604051610191929190611aae565b610331610311366004611a30565b600760209081526000928352604080842090915290825290205460ff1681565b6040519015158152602001610191565b61012861034f3660046119ff565b610b01565b610128610c19565b610380604051806040016040528060058152602001640312e302e360dc1b81525081565b6040516101919190611b5e565b6001546001600160a01b03620100009091041633146103c75760405162461bcd60e51b81526004016103be90611b91565b60405180910390fd5b6001600160a01b038316600090815260056020526040902060030154156104275760405162461bcd60e51b81526020600482015260146024820152731c995dd85c990b585b1c9958591e4b585919195960621b60448201526064016103be565b6040805160a0810182528215158152426020808301828152600084860181815260608601948552608086018281526001600160a01b038b168084526005909552918790209551865460ff1916901515178655915160018601559051600285015591516003840155905160049283015591517f438dc3ee1ea07ec168befb145c10eb363aad7cbec063f8a006b032031582ac2b916104c391611bb7565b60405180910390a2506004805460018082019092557f8a35acfbc15ff81a39ae7d344fd709f28e8600b4aa8c65c6b64bfe7fe36bd19b0180546001600160a01b0319166001600160a01b03948516908117909155600090815260076020908152604080832094909516825292909252919020805460ff19169091179055565b6001546001600160a01b03620100009091041633146105735760405162461bcd60e51b81526004016103be90611b91565b6001600160a01b0383166000908152600560205260409020600301546105ab5760405162461bcd60e51b81526004016103be90611c07565b6001600160a01b03838116600081815260076020908152604080832094871680845294825291829020805460ff19168615159081179091558251938452908301939093528101919091527fb324d0d65aefe344b0ced3f062ed49bff7641e4527a8727807e98936704e20c69060600160405180910390a1505050565b6001600160a01b03821660009081526005602052604090206003015461065f5760405162461bcd60e51b81526004016103be90611c07565b6001600160a01b038216600090815260076020908152604080832033845290915290205460ff166106c45760405162461bcd60e51b815260206004820152600f60248201526e3737ba16b234b9ba3934b13aba37b960891b60448201526064016103be565b6000811161070e5760405162461bcd60e51b81526020600482015260176024820152761a5b98dbdc9c9958dd0b5c995dd85c990b585b5bdd5b9d604a1b60448201526064016103be565b6107188282610ce9565b5050565b600454600080805b838110156107865760006004828154811061074157610741611c37565b6000918252602090912001546001600160a01b031690506107628187611022565b909450925061077381878686611264565b508061077e81611c63565b915050610724565b5050505050565b6001600160a01b0381166000908152600560205260408120600101546107b490429061133c565b92915050565b600481815481106107ca57600080fd5b6000918252602090912001546001600160a01b0316905081565b6001546001600160a01b03620100009091041633146108155760405162461bcd60e51b81526004016103be90611b91565b6001600160a01b0381166108675760405162461bcd60e51b815260206004820152601960248201527870726f706f7365642d676f7665726e6f722d69732d7a65726f60381b60448201526064016103be565b600280546001600160a01b0319166001600160a01b0392909216919091179055565b600154610100900460ff166108a45760015460ff16156108a8565b303b155b61090b5760405162461bcd60e51b815260206004820152602e60248201527f496e697469616c697a61626c653a20636f6e747261637420697320616c72656160448201526d191e481a5b9a5d1a585b1a5e995960921b60648201526084016103be565b600154610100900460ff1615801561092d576001805461ffff19166101011790555b6001600160a01b0382166109735760405162461bcd60e51b815260206004820152600d60248201526c195cd594d40b5a5ccb5b9d5b1b609a1b60448201526064016103be565b61097b611354565b600380546001600160a01b0319166001600160a01b0384161790558015610718576001805461ff00191690555050565b60045460609081908067ffffffffffffffff8111156109cc576109cc611c7e565b6040519080825280602002602001820160405280156109f5578160200160208202803683370190505b5092508067ffffffffffffffff811115610a1157610a11611c7e565b604051908082528060200260200182016040528015610a3a578160200160208202803683370190505b50915060008060005b83811015610af857600060048281548110610a6057610a60611c37565b6000918252602090912001546001600160a01b03169050610a818189611022565b809450819550505080878381518110610a9c57610a9c611c37565b60200260200101906001600160a01b031690816001600160a01b031681525050610ac881898686611419565b868381518110610ada57610ada611c37565b60209081029190910101525080610af081611c63565b915050610a43565b50505050915091565b60026000541415610b545760405162461bcd60e51b815260206004820152601f60248201527f5265656e7472616e637947756172643a207265656e7472616e742063616c6c0060448201526064016103be565b600260009081556004549080805b83811015610c0d57600060048281548110610b7f57610b7f611c37565b6000918252602090912001546001600160a01b03169050610ba08187611022565b9094509250610bb181878686611264565b6001600160a01b038181166000908152600660209081526040808320938a1683529290522054600160801b90046001600160801b03168015610bf857610bf88288836114c8565b50508080610c0590611c63565b915050610b62565b50506001600055505050565b6002546001600160a01b03163314610c6f5760405162461bcd60e51b81526020600482015260196024820152783737ba16ba343296b83937b837b9b2b216b3b7bb32b93737b960391b60448201526064016103be565b6002546001546040516001600160a01b039283169262010000909204909116907fd4459d5b8b913cab0244230fd9b1c08b6ceace7fe9230e60d0f74cbffdf849d090600090a3600280546001805462010000600160b01b0319166001600160a01b03831662010000021790556001600160a01b0319169055565b6040516370a0823160e01b81526000906001600160a01b038416906370a0823190610d18903090600401611a1c565b60206040518083038186803b158015610d3057600080fd5b505afa158015610d44573d6000803e3d6000fd5b505050506040513d601f19601f82011682018060405250810190610d689190611c94565b9050610d7f6001600160a01b03841633308561155a565b600081846001600160a01b03166370a08231306040518263ffffffff1660e01b8152600401610dae9190611a1c565b60206040518083038186803b158015610dc657600080fd5b505afa158015610dda573d6000803e3d6000fd5b505050506040513d601f19601f82011682018060405250810190610dfe9190611c94565b610e089190611cad565b6001600160a01b038516600090815260056020526040812080549293509160ff16610eb857600360009054906101000a90046001600160a01b03166001600160a01b031663568914126040518163ffffffff1660e01b815260040160206040518083038186803b158015610e7b57600080fd5b505afa158015610e8f573d6000803e3d6000fd5b505050506040513d601f19601f82011682018060405250810190610eb39190611c94565b610f3e565b600360009054906101000a90046001600160a01b03166001600160a01b031663631516c26040518163ffffffff1660e01b815260040160206040518083038186803b158015610f0657600080fd5b505afa158015610f1a573d6000803e3d6000fd5b505050506040513d601f19601f82011682018060405250810190610f3e9190611c94565b9050610f4a86826115cb565b600483015560018201544210610f7157610f6762278d0084611cc4565b6002830155610fb9565b6000428360010154610f839190611cad565b90506000836002015482610f979190611ce6565b905062278d00610fa78287611d05565b610fb19190611cc4565b600285015550505b4260038301819055610fcf9062278d0090611d05565b60018301556040805184815262278d0060208201526001600160a01b038816917f6a6f77044107a33658235d41bedbbaf2fe9ccdceb313143c947a5e76e1ec8474910160405180910390a2505050505050565b6001600160a01b038216600090815260056020526040812054819060ff161561115357600360009054906101000a90046001600160a01b03166001600160a01b031663631516c26040518163ffffffff1660e01b815260040160206040518083038186803b15801561109357600080fd5b505afa1580156110a7573d6000803e3d6000fd5b505050506040513d601f19601f820116820180604052508101906110cb9190611c94565b6003546040516341f0635960e11b81529193506001600160a01b0316906383e0c6b2906110fc908690600401611a1c565b60206040518083038186803b15801561111457600080fd5b505afa158015611128573d6000803e3d6000fd5b505050506040513d601f19601f8201168201806040525081019061114c9190611c94565b905061125d565b600360009054906101000a90046001600160a01b03166001600160a01b031663568914126040518163ffffffff1660e01b815260040160206040518083038186803b1580156111a157600080fd5b505afa1580156111b5573d6000803e3d6000fd5b505050506040513d601f19601f820116820180604052508101906111d99190611c94565b60035460405163cbf9fe5f60e01b81529193506001600160a01b03169063cbf9fe5f9061120a908690600401611a1c565b60206040518083038186803b15801561122257600080fd5b505afa158015611236573d6000803e3d6000fd5b505050506040513d601f19601f8201168201806040525081019061125a9190611c94565b90505b9250929050565b600061127085846115cb565b6001600160a01b03861660009081526005602052604090206004810182905590915061129b8661078d565b60038201556001600160a01b038516156113345760405180604001604052806112c3846116a2565b6001600160801b031681526020016112e56112e089898989611419565b6116a2565b6001600160801b039081169091526001600160a01b038089166000908152600660209081526040808320938b168352928152919020835193909101518216600160801b02929091169190911790555b505050505050565b600081831061134b578161134d565b825b9392505050565b600154610100900460ff166113bf5760405162461bcd60e51b815260206004820152602b60248201527f496e697469616c697a61626c653a20636f6e7472616374206973206e6f74206960448201526a6e697469616c697a696e6760a81b60648201526084016103be565b600180546201000033810262010000600160b01b0319909216919091179182905560405191046001600160a01b0316906000907fd4459d5b8b913cab0244230fd9b1c08b6ceace7fe9230e60d0f74cbffdf849d0908290a3565b6001600160a01b03808516600090815260066020908152604080832093871683529281528282208351808501909452546001600160801b03808216808652600160801b9092041691840191909152909190829061147688876115cb565b6114809190611cad565b90506000670de0b6b3a76400006114978387611ce6565b6114a19190611cc4565b90508083602001516001600160801b03166114bc9190611d05565b98975050505050505050565b6001600160a01b03808416600081815260066020908152604080832094871683529390529190912080546001600160801b0316905561150890838361170f565b826001600160a01b0316826001600160a01b03167f540798df468d7b23d11f156fdb954cb19ad414d150722a7b6d55ba369dea792e8360405161154d91815260200190565b60405180910390a3505050565b6040516001600160a01b03808516602483015283166044820152606481018290526115c59085906323b872dd60e01b906084015b60408051601f198184030181529190526020810180516001600160e01b03166001600160e01b031990931692909217909152611744565b50505050565b6000816115f457506001600160a01b0382166000908152600560205260409020600401546107b4565b6001600160a01b0383166000908152600560205260408120600301546116198561078d565b6116239190611cad565b6001600160a01b0385166000908152600560205260408120600201549192509061164d9083611ce6565b905060008461166483670de0b6b3a7640000611ce6565b61166e9190611cc4565b6001600160a01b038716600090815260056020526040902060040154909150611698908290611d05565b9695505050505050565b60006001600160801b0382111561170b5760405162461bcd60e51b815260206004820152602760248201527f53616665436173743a2076616c756520646f65736e27742066697420696e20316044820152663238206269747360c81b60648201526084016103be565b5090565b6040516001600160a01b03831660248201526044810182905261173f90849063a9059cbb60e01b9060640161158e565b505050565b6000611799826040518060400160405280602081526020017f5361666545524332303a206c6f772d6c6576656c2063616c6c206661696c6564815250856001600160a01b03166118169092919063ffffffff16565b80519091501561173f57808060200190518101906117b79190611d1d565b61173f5760405162461bcd60e51b815260206004820152602a60248201527f5361666545524332303a204552433230206f7065726174696f6e20646964206e6044820152691bdd081cdd58d8d9595960b21b60648201526084016103be565b6060611825848460008561182d565b949350505050565b60608247101561188e5760405162461bcd60e51b815260206004820152602660248201527f416464726573733a20696e73756666696369656e742062616c616e636520666f6044820152651c8818d85b1b60d21b60648201526084016103be565b843b6118dc5760405162461bcd60e51b815260206004820152601d60248201527f416464726573733a2063616c6c20746f206e6f6e2d636f6e747261637400000060448201526064016103be565b600080866001600160a01b031685876040516118f89190611d3a565b60006040518083038185875af1925050503d8060008114611935576040519150601f19603f3d011682016040523d82523d6000602084013e61193a565b606091505b509150915061194a828286611955565b979650505050505050565b6060831561196457508161134d565b8251156119745782518084602001fd5b8160405162461bcd60e51b81526004016103be9190611b5e565b6001600160a01b03811681146119a357600080fd5b50565b80151581146119a357600080fd5b6000806000606084860312156119c957600080fd5b83356119d48161198e565b925060208401356119e48161198e565b915060408401356119f4816119a6565b809150509250925092565b600060208284031215611a1157600080fd5b813561134d8161198e565b6001600160a01b0391909116815260200190565b60008060408385031215611a4357600080fd5b8235611a4e8161198e565b91506020830135611a5e8161198e565b809150509250929050565b60008060408385031215611a7c57600080fd5b8235611a878161198e565b946020939093013593505050565b600060208284031215611aa757600080fd5b5035919050565b604080825283519082018190526000906020906060840190828701845b82811015611af05781516001600160a01b031684529284019290840190600101611acb565b5050508381038285015284518082528583019183019060005b81811015611b2557835183529284019291840191600101611b09565b5090979650505050505050565b60005b83811015611b4d578181015183820152602001611b35565b838111156115c55750506000910152565b6020815260008251806020840152611b7d816040850160208701611b32565b601f01601f19169190910160400192915050565b6020808252600c908201526b3737ba16b3b7bb32b93737b960a11b604082015260600190565b6020808252825482820181905260008481528281209092916040850190845b81811015611bfb5783546001600160a01b031683526001938401939285019201611bd6565b50909695505050505050565b6020808252601690820152751c995dd85c990b5d1bdad95b8b5b9bdd0b585919195960521b604082015260600190565b634e487b7160e01b600052603260045260246000fd5b634e487b7160e01b600052601160045260246000fd5b6000600019821415611c7757611c77611c4d565b5060010190565b634e487b7160e01b600052604160045260246000fd5b600060208284031215611ca657600080fd5b5051919050565b600082821015611cbf57611cbf611c4d565b500390565b600082611ce157634e487b7160e01b600052601260045260246000fd5b500490565b6000816000190483118215151615611d0057611d00611c4d565b500290565b60008219821115611d1857611d18611c4d565b500190565b600060208284031215611d2f57600080fd5b815161134d816119a6565b60008251611d4c818460208701611b32565b919091019291505056fea264697066735822122086ef7ad9ec8b897dab54c3511196504c08e96a3d7953f3b566d02954e3cc84f864736f6c63430008090033",
  "devdoc": {
    "kind": "dev",
    "methods": {
      "acceptGovernorship()": {
        "details": "Allows new governor to accept governorship of the contract."
      },
      "addRewardToken(address,address,bool)": {
        "params": {
          "distributor_": "Authorized called to call dripRewardAmount",
          "isBoosted_": "If reward token is boosted than rewards is distributed on boost amount depends on lock period",
          "rewardsToken_": "Reward token address"
        }
      },
      "claimRewards(address)": {
        "details": "This function will claim rewards for all tokens being rewarded",
        "params": {
          "account_": "The account"
        }
      },
      "claimableRewards(address)": {
        "params": {
          "account_": "The account"
        },
        "returns": {
          "_claimableAmounts": "The claimable amounts",
          "_rewardTokens": "The addresses of the reward tokens"
        }
      },
      "dripRewardAmount(address,uint256)": {
        "details": "Restricted method",
        "params": {
          "rewardAmount_": "Reward amount",
          "rewardToken_": "Reward token address"
        }
      },
      "lastTimeRewardApplicable(address)": {
        "params": {
          "_rewardToken": "The reward token"
        },
        "returns": {
          "_0": "The timestamp"
        }
      },
      "setRewardDistributorApproval(address,address,bool)": {
        "params": {
          "approved_": "The approved boolean flag",
          "distributor_": "The distributor address",
          "rewardsToken_": "The reward token"
        }
      },
      "transferGovernorship(address)": {
        "details": "Transfers governorship of the contract to a new account (`proposedGovernor`). Can only be called by the current owner."
      },
      "updateReward(address)": {
        "params": {
          "account_": "The account"
        }
      }
    },
    "title": "Rewards contract",
    "version": 1
  },
  "userdoc": {
    "events": {
      "RewardAdded(address,uint256,uint256)": {
        "notice": "Emitted after reward added"
      },
      "RewardDistributorApprovalUpdated(address,address,bool)": {
        "notice": "Emitted when distributor approval is updated"
      },
      "RewardPaid(address,address,uint256)": {
        "notice": "Emitted whenever any user claim rewards"
      },
      "RewardTokenAdded(address,address[])": {
        "notice": "Emitted after adding new rewards token into rewardTokens array"
      }
    },
    "kind": "user",
    "methods": {
      "addRewardToken(address,address,bool)": {
        "notice": "add new reward token for distribution"
      },
      "claimRewards(address)": {
        "notice": "Claim earned rewards"
      },
      "claimableRewards(address)": {
        "notice": "Get claimable rewards"
      },
      "dripRewardAmount(address,uint256)": {
        "notice": "Drip reward token and extend current reward duration by 30 days User get drip based on their boosted VSP amount"
      },
      "esVSP()": {
        "notice": "Locker contract"
      },
      "isRewardDistributor(address,address)": {
        "notice": "Reward distributors RewardToken -> distributor -> is approved to drip"
      },
      "lastTimeRewardApplicable(address)": {
        "notice": "Returns timestamp of last reward update"
      },
      "rewardOf(address,address)": {
        "notice": "User's rewards state per token"
      },
      "rewardTokens(uint256)": {
        "notice": "Array of reward tokens"
      },
      "rewards(address)": {
        "notice": "Rewards state per token"
      },
      "setRewardDistributorApproval(address,address,bool)": {
        "notice": "Allow/disallow address as a reward distributor for a given token"
      },
      "updateReward(address)": {
        "notice": "Update reward earning of user"
      }
    },
    "version": 1
  },
  "storageLayout": {
    "storage": [
      {
        "astId": 3099,
        "contract": "contracts/Rewards.sol:Rewards",
        "label": "_status",
        "offset": 0,
        "slot": "0",
        "type": "t_uint256"
      },
      {
        "astId": 3021,
        "contract": "contracts/Rewards.sol:Rewards",
        "label": "_initialized",
        "offset": 0,
        "slot": "1",
        "type": "t_bool"
      },
      {
        "astId": 3024,
        "contract": "contracts/Rewards.sol:Rewards",
        "label": "_initializing",
        "offset": 1,
        "slot": "1",
        "type": "t_bool"
      },
      {
        "astId": 2051,
        "contract": "contracts/Rewards.sol:Rewards",
        "label": "governor",
        "offset": 2,
        "slot": "1",
        "type": "t_address"
      },
      {
        "astId": 2053,
        "contract": "contracts/Rewards.sol:Rewards",
        "label": "proposedGovernor",
        "offset": 0,
        "slot": "2",
        "type": "t_address"
      },
      {
        "astId": 6211,
        "contract": "contracts/Rewards.sol:Rewards",
        "label": "esVSP",
        "offset": 0,
        "slot": "3",
        "type": "t_contract(IESVSP)6003"
      },
      {
        "astId": 6215,
        "contract": "contracts/Rewards.sol:Rewards",
        "label": "rewardTokens",
        "offset": 0,
        "slot": "4",
        "type": "t_array(t_address)dyn_storage"
      },
      {
        "astId": 6221,
        "contract": "contracts/Rewards.sol:Rewards",
        "label": "rewards",
        "offset": 0,
        "slot": "5",
        "type": "t_mapping(t_address,t_struct(Reward)6202_storage)"
      },
      {
        "astId": 6229,
        "contract": "contracts/Rewards.sol:Rewards",
        "label": "rewardOf",
        "offset": 0,
        "slot": "6",
        "type": "t_mapping(t_address,t_mapping(t_address,t_struct(UserReward)6207_storage))"
      },
      {
        "astId": 6236,
        "contract": "contracts/Rewards.sol:Rewards",
        "label": "isRewardDistributor",
        "offset": 0,
        "slot": "7",
        "type": "t_mapping(t_address,t_mapping(t_address,t_bool))"
      }
    ],
    "types": {
      "t_address": {
        "encoding": "inplace",
        "label": "address",
        "numberOfBytes": "20"
      },
      "t_array(t_address)dyn_storage": {
        "base": "t_address",
        "encoding": "dynamic_array",
        "label": "address[]",
        "numberOfBytes": "32"
      },
      "t_bool": {
        "encoding": "inplace",
        "label": "bool",
        "numberOfBytes": "1"
      },
      "t_contract(IESVSP)6003": {
        "encoding": "inplace",
        "label": "contract IESVSP",
        "numberOfBytes": "20"
      },
      "t_mapping(t_address,t_bool)": {
        "encoding": "mapping",
        "key": "t_address",
        "label": "mapping(address => bool)",
        "numberOfBytes": "32",
        "value": "t_bool"
      },
      "t_mapping(t_address,t_mapping(t_address,t_bool))": {
        "encoding": "mapping",
        "key": "t_address",
        "label": "mapping(address => mapping(address => bool))",
        "numberOfBytes": "32",
        "value": "t_mapping(t_address,t_bool)"
      },
      "t_mapping(t_address,t_mapping(t_address,t_struct(UserReward)6207_storage))": {
        "encoding": "mapping",
        "key": "t_address",
        "label": "mapping(address => mapping(address => struct RewardsStorageV1.UserReward))",
        "numberOfBytes": "32",
        "value": "t_mapping(t_address,t_struct(UserReward)6207_storage)"
      },
      "t_mapping(t_address,t_struct(Reward)6202_storage)": {
        "encoding": "mapping",
        "key": "t_address",
        "label": "mapping(address => struct RewardsStorageV1.Reward)",
        "numberOfBytes": "32",
        "value": "t_struct(Reward)6202_storage"
      },
      "t_mapping(t_address,t_struct(UserReward)6207_storage)": {
        "encoding": "mapping",
        "key": "t_address",
        "label": "mapping(address => struct RewardsStorageV1.UserReward)",
        "numberOfBytes": "32",
        "value": "t_struct(UserReward)6207_storage"
      },
      "t_struct(Reward)6202_storage": {
        "encoding": "inplace",
        "label": "struct RewardsStorageV1.Reward",
        "members": [
          {
            "astId": 6193,
            "contract": "contracts/Rewards.sol:Rewards",
            "label": "isBoosted",
            "offset": 0,
            "slot": "0",
            "type": "t_bool"
          },
          {
            "astId": 6195,
            "contract": "contracts/Rewards.sol:Rewards",
            "label": "periodFinish",
            "offset": 0,
            "slot": "1",
            "type": "t_uint256"
          },
          {
            "astId": 6197,
            "contract": "contracts/Rewards.sol:Rewards",
            "label": "rewardPerSecond",
            "offset": 0,
            "slot": "2",
            "type": "t_uint256"
          },
          {
            "astId": 6199,
            "contract": "contracts/Rewards.sol:Rewards",
            "label": "lastUpdateTime",
            "offset": 0,
            "slot": "3",
            "type": "t_uint256"
          },
          {
            "astId": 6201,
            "contract": "contracts/Rewards.sol:Rewards",
            "label": "rewardPerTokenStored",
            "offset": 0,
            "slot": "4",
            "type": "t_uint256"
          }
        ],
        "numberOfBytes": "160"
      },
      "t_struct(UserReward)6207_storage": {
        "encoding": "inplace",
        "label": "struct RewardsStorageV1.UserReward",
        "members": [
          {
            "astId": 6204,
            "contract": "contracts/Rewards.sol:Rewards",
            "label": "rewardPerTokenPaid",
            "offset": 0,
            "slot": "0",
            "type": "t_uint128"
          },
          {
            "astId": 6206,
            "contract": "contracts/Rewards.sol:Rewards",
            "label": "claimableRewardsStored",
            "offset": 16,
            "slot": "0",
            "type": "t_uint128"
          }
        ],
        "numberOfBytes": "32"
      },
      "t_uint128": {
        "encoding": "inplace",
        "label": "uint128",
        "numberOfBytes": "16"
      },
      "t_uint256": {
        "encoding": "inplace",
        "label": "uint256",
        "numberOfBytes": "32"
      }
    }
  }
}