{
  "address": "0x3b9C959f963c5581bA27fF9d55EB494F08eC5F4f",
  "abi": [
    {
      "inputs": [
        {
          "internalType": "address",
          "name": "_owner",
          "type": "address"
        }
      ],
      "stateMutability": "nonpayable",
      "type": "constructor"
    },
    {
      "anonymous": false,
      "inputs": [
        {
          "indexed": true,
          "internalType": "address",
          "name": "previousOwner",
          "type": "address"
        },
        {
          "indexed": true,
          "internalType": "address",
          "name": "newOwner",
          "type": "address"
        }
      ],
      "name": "OwnershipTransferred",
      "type": "event"
    },
    {
      "inputs": [],
      "name": "MULTICALL3_ADDRESS",
      "outputs": [
        {
          "internalType": "address",
          "name": "",
          "type": "address"
        }
      ],
      "stateMutability": "view",
      "type": "function"
    },
    {
      "inputs": [
        {
          "internalType": "contract TransparentUpgradeableProxy",
          "name": "proxy",
          "type": "address"
        },
        {
          "internalType": "address",
          "name": "newAdmin",
          "type": "address"
        }
      ],
      "name": "changeProxyAdmin",
      "outputs": [],
      "stateMutability": "nonpayable",
      "type": "function"
    },
    {
      "inputs": [
        {
          "internalType": "contract TransparentUpgradeableProxy",
          "name": "proxy",
          "type": "address"
        }
      ],
      "name": "getProxyAdmin",
      "outputs": [
        {
          "internalType": "address",
          "name": "",
          "type": "address"
        }
      ],
      "stateMutability": "view",
      "type": "function"
    },
    {
      "inputs": [
        {
          "internalType": "contract TransparentUpgradeableProxy",
          "name": "proxy",
          "type": "address"
        }
      ],
      "name": "getProxyImplementation",
      "outputs": [
        {
          "internalType": "address",
          "name": "",
          "type": "address"
        }
      ],
      "stateMutability": "view",
      "type": "function"
    },
    {
      "inputs": [],
      "name": "owner",
      "outputs": [
        {
          "internalType": "address",
          "name": "",
          "type": "address"
        }
      ],
      "stateMutability": "view",
      "type": "function"
    },
    {
      "inputs": [],
      "name": "renounceOwnership",
      "outputs": [],
      "stateMutability": "nonpayable",
      "type": "function"
    },
    {
      "inputs": [
        {
          "internalType": "address",
          "name": "newOwner",
          "type": "address"
        }
      ],
      "name": "transferOwnership",
      "outputs": [],
      "stateMutability": "nonpayable",
      "type": "function"
    },
    {
      "inputs": [
        {
          "internalType": "contract TransparentUpgradeableProxy",
          "name": "proxy_",
          "type": "address"
        },
        {
          "internalType": "address",
          "name": "implementation_",
          "type": "address"
        }
      ],
      "name": "upgrade",
      "outputs": [],
      "stateMutability": "nonpayable",
      "type": "function"
    },
    {
      "inputs": [
        {
          "internalType": "contract TransparentUpgradeableProxy",
          "name": "proxy_",
          "type": "address"
        },
        {
          "internalType": "address",
          "name": "implementation_",
          "type": "address"
        },
        {
          "internalType": "bytes",
          "name": "data_",
          "type": "bytes"
        }
      ],
      "name": "upgradeAndCall",
      "outputs": [],
      "stateMutability": "payable",
      "type": "function"
    }
  ],
  "transactionHash": "0x5ba84fcfd5b648579c9989c86edf527cf1b00ada7bc710bd840410c0ad549d25",
  "args": [
    "0x169e2FfC1c6b229b04E65A431434bF0e8eD9563d"
  ],
  "numDeployments": 1,
  "solcInputHash": "957c5752a29f8b6063260a261b99f131",
  "bytecode": "0x608060405234801561001057600080fd5b50604051610eed380380610eed83398101604081905261002f91610171565b61003833610047565b61004181610097565b506101a1565b600080546001600160a01b038381166001600160a01b0319831681178455604051919092169283917f8be0079c531659141344cd1fd0a4f28419497f9722a3daafe3b4186f6b6457e09190a35050565b61009f610115565b6001600160a01b0381166101095760405162461bcd60e51b815260206004820152602660248201527f4f776e61626c653a206e6577206f776e657220697320746865207a65726f206160448201526564647265737360d01b60648201526084015b60405180910390fd5b61011281610047565b50565b6000546001600160a01b0316331461016f5760405162461bcd60e51b815260206004820181905260248201527f4f776e61626c653a2063616c6c6572206973206e6f7420746865206f776e65726044820152606401610100565b565b60006020828403121561018357600080fd5b81516001600160a01b038116811461019a57600080fd5b9392505050565b610d3d806101b06000396000f3fe6080604052600436106100765760003560e01c8063204e1c7a1461007b578063715018a6146100b15780637eff275e146100c85780638da5cb5b146100e85780639623609d1461010657806399a88ec414610119578063f2fde38b14610139578063f3b7dead14610159578063fde4f57014610179575b600080fd5b34801561008757600080fd5b5061009b61009636600461093a565b6101a1565b6040516100a8919061095e565b60405180910390f35b3480156100bd57600080fd5b506100c6610232565b005b3480156100d457600080fd5b506100c66100e3366004610972565b610246565b3480156100f457600080fd5b506000546001600160a01b031661009b565b6100c66101143660046109ab565b6102b0565b34801561012557600080fd5b506100c6610134366004610972565b610356565b34801561014557600080fd5b506100c661015436600461093a565b6103f6565b34801561016557600080fd5b5061009b61017436600461093a565b610474565b34801561018557600080fd5b5061009b73ca11bde05977b3631167028862be2a173976ca1181565b6000806000836001600160a01b03166040516101c790635c60da1b60e01b815260040190565b600060405180830381855afa9150503d8060008114610202576040519150601f19603f3d011682016040523d82523d6000602084013e610207565b606091505b50915091508161021657600080fd5b8080602001905181019061022a9190610a3d565b949350505050565b61023a61049a565b61024460006104f4565b565b61024e61049a565b6040516308f2839760e41b81526001600160a01b03831690638f2839709061027a90849060040161095e565b600060405180830381600087803b15801561029457600080fd5b505af11580156102a8573d6000803e3d6000fd5b505050505050565b6102b861049a565b60006102c2610544565b905060006102d086836106ee565b9050856001600160a01b0316634f1ef286348787876040518563ffffffff1660e01b815260040161030393929190610a5a565b6000604051808303818588803b15801561031c57600080fd5b505af1158015610330573d6000803e3d6000fd5b5050505050600061034187846106ee565b905061034d8282610873565b50505050505050565b61035e61049a565b6000610368610544565b9050600061037684836106ee565b604051631b2ce7f360e11b81529091506001600160a01b03851690633659cfe6906103a590869060040161095e565b600060405180830381600087803b1580156103bf57600080fd5b505af11580156103d3573d6000803e3d6000fd5b5050505060006103e385846106ee565b90506103ef8282610873565b5050505050565b6103fe61049a565b6001600160a01b0381166104685760405162461bcd60e51b815260206004820152602660248201527f4f776e61626c653a206e6577206f776e657220697320746865207a65726f206160448201526564647265737360d01b60648201526084015b60405180910390fd5b610471816104f4565b50565b6000806000836001600160a01b03166040516101c7906303e1469160e61b815260040190565b6000546001600160a01b031633146102445760405162461bcd60e51b815260206004820181905260248201527f4f776e61626c653a2063616c6c6572206973206e6f7420746865206f776e6572604482015260640161045f565b600080546001600160a01b038381166001600160a01b0319831681178455604051919092169283917f8be0079c531659141344cd1fd0a4f28419497f9722a3daafe3b4186f6b6457e09190a35050565b60408051600580825260c08201909252606091816020015b606081526020019060019003908161055c579050506040805160048152602481019091526020810180516001600160e01b03166306fdde0360e01b17905281519192509082906000906105b1576105b1610ab0565b60209081029190910181019190915260408051600481526024810190915290810180516001600160e01b03166395d89b4160e01b1790528151829060019081106105fd576105fd610ab0565b60209081029190910181019190915260408051600481526024810190915290810180516001600160e01b031663d547cfb760e01b17905281518290600290811061064957610649610ab0565b60209081029190910181019190915260408051600481526024810190915290810180516001600160e01b031663562e1fc360e11b17905281518290600390811061069557610695610ab0565b6020908102919091018101919091526040805160048082526024820190925291820180516001600160e01b0316631d5e528f60e21b179052825183919081106106e0576106e0610ab0565b602002602001018190525090565b805160609060008167ffffffffffffffff81111561070e5761070e610a9a565b60405190808252806020026020018201604052801561075457816020015b60408051808201909152600081526060602082015281526020019060019003908161072c5790505b50905060005b828110156107db578582828151811061077557610775610ab0565b60209081029190910101516001600160a01b03909116905284518590829081106107a1576107a1610ab0565b60200260200101518282815181106107bb576107bb610ab0565b602002602001015160200181905250806107d490610ac6565b905061075a565b50604051631296dd2160e11b815273ca11bde05977b3631167028862be2a173976ca119063252dba4290610813908490600401610b1b565b600060405180830381600087803b15801561082d57600080fd5b505af1158015610841573d6000803e3d6000fd5b505050506040513d6000823e601f3d908101601f191682016040526108699190810190610be6565b9695505050505050565b815160005b8181101561091f5782818151811061089257610892610ab0565b6020026020010151805190602001208482815181106108b3576108b3610ab0565b6020026020010151805190602001201461090f5760405162461bcd60e51b815260206004820152601a60248201527f73746f726167652d76616c75652d69732d6e6f742d657175616c000000000000604482015260640161045f565b61091881610ac6565b9050610878565b50505050565b6001600160a01b038116811461047157600080fd5b60006020828403121561094c57600080fd5b813561095781610925565b9392505050565b6001600160a01b0391909116815260200190565b6000806040838503121561098557600080fd5b823561099081610925565b915060208301356109a081610925565b809150509250929050565b600080600080606085870312156109c157600080fd5b84356109cc81610925565b935060208501356109dc81610925565b9250604085013567ffffffffffffffff808211156109f957600080fd5b818701915087601f830112610a0d57600080fd5b813581811115610a1c57600080fd5b886020828501011115610a2e57600080fd5b95989497505060200194505050565b600060208284031215610a4f57600080fd5b815161095781610925565b6001600160a01b03841681526040602082018190528101829052818360608301376000818301606090810191909152601f909201601f1916010192915050565b634e487b7160e01b600052604160045260246000fd5b634e487b7160e01b600052603260045260246000fd5b6000600019821415610ae857634e487b7160e01b600052601160045260246000fd5b5060010190565b60005b83811015610b0a578181015183820152602001610af2565b8381111561091f5750506000910152565b60006020808301818452808551808352604092508286019150828160051b87010184880160005b83811015610ba757888303603f19018552815180516001600160a01b0316845287015187840187905280518785018190526060610b8482828801858d01610aef565b96890196601f91909101601f191694909401909301925090860190600101610b42565b509098975050505050505050565b604051601f8201601f1916810167ffffffffffffffff81118282101715610bde57610bde610a9a565b604052919050565b6000806040808486031215610bfa57600080fd5b8351925060208085015167ffffffffffffffff80821115610c1a57600080fd5b8187019150601f8881840112610c2f57600080fd5b825182811115610c4157610c41610a9a565b8060051b610c50868201610bb5565b918252848101860191868101908c841115610c6a57600080fd5b87870192505b83831015610cf457825186811115610c885760008081fd5b8701603f81018e13610c9a5760008081fd5b8881015187811115610cae57610cae610a9a565b610cbf818801601f19168b01610bb5565b8181528f8c838501011115610cd45760008081fd5b610ce3828c83018e8601610aef565b845250509187019190870190610c70565b809950505050505050505050925092905056fea2646970667358221220fdf4f28c489cdb3e2869e0f2701f7362e28122de46c934bf345544e2ab4f240864736f6c63430008090033",
  "devdoc": {
    "kind": "dev",
    "methods": {
      "changeProxyAdmin(address,address)": {
        "details": "Changes the admin of `proxy` to `newAdmin`. Requirements: - This contract must be the current admin of `proxy`."
      },
      "getProxyAdmin(address)": {
        "details": "Returns the current admin of `proxy`. Requirements: - This contract must be the admin of `proxy`."
      },
      "getProxyImplementation(address)": {
        "details": "Returns the current implementation of `proxy`. Requirements: - This contract must be the admin of `proxy`."
      },
      "owner()": {
        "details": "Returns the address of the current owner."
      },
      "renounceOwnership()": {
        "details": "Leaves the contract without owner. It will not be possible to call `onlyOwner` functions anymore. Can only be called by the current owner. NOTE: Renouncing ownership will leave the contract without an owner, thereby removing any functionality that is only available to the owner."
      },
      "transferOwnership(address)": {
        "details": "Transfers ownership of the contract to a new account (`newOwner`). Can only be called by the current owner."
      },
      "upgrade(address,address)": {
        "details": "Upgrades `proxy` to `implementation`. See {TransparentUpgradeableProxy-upgradeTo}. Requirements: - This contract must be the admin of `proxy`."
      },
      "upgradeAndCall(address,address,bytes)": {
        "details": "Upgrades `proxy` to `implementation` and calls a function on the new implementation. See {TransparentUpgradeableProxy-upgradeToAndCall}. Requirements: - This contract must be the admin of `proxy`."
      }
    },
    "version": 1
  },
  "userdoc": {
    "kind": "user",
    "methods": {},
    "version": 1
  },
  "storageLayout": {
    "storage": [
      {
        "astId": 7,
        "contract": "contracts/upgraders/ESVSP721Upgrader.sol:ESVSP721Upgrader",
        "label": "_owner",
        "offset": 0,
        "slot": "0",
        "type": "t_address"
      }
    ],
    "types": {
      "t_address": {
        "encoding": "inplace",
        "label": "address",
        "numberOfBytes": "20"
      }
    }
  }
}