{
  "address": "0x927367b4cEcB2ac2723488411EAE967eb70393d4",
  "abi": [
    {
      "anonymous": false,
      "inputs": [
        {
          "indexed": true,
          "internalType": "address",
          "name": "owner",
          "type": "address"
        },
        {
          "indexed": true,
          "internalType": "address",
          "name": "approved",
          "type": "address"
        },
        {
          "indexed": true,
          "internalType": "uint256",
          "name": "tokenId",
          "type": "uint256"
        }
      ],
      "name": "Approval",
      "type": "event"
    },
    {
      "anonymous": false,
      "inputs": [
        {
          "indexed": true,
          "internalType": "address",
          "name": "owner",
          "type": "address"
        },
        {
          "indexed": true,
          "internalType": "address",
          "name": "operator",
          "type": "address"
        },
        {
          "indexed": false,
          "internalType": "bool",
          "name": "approved",
          "type": "bool"
        }
      ],
      "name": "ApprovalForAll",
      "type": "event"
    },
    {
      "anonymous": false,
      "inputs": [
        {
          "indexed": false,
          "internalType": "string",
          "name": "oldBaseTokenURI",
          "type": "string"
        },
        {
          "indexed": false,
          "internalType": "string",
          "name": "newBaseTokenURI",
          "type": "string"
        }
      ],
      "name": "BaseTokenURIUpdated",
      "type": "event"
    },
    {
      "anonymous": false,
      "inputs": [
        {
          "indexed": true,
          "internalType": "address",
          "name": "from",
          "type": "address"
        },
        {
          "indexed": true,
          "internalType": "address",
          "name": "to",
          "type": "address"
        },
        {
          "indexed": true,
          "internalType": "uint256",
          "name": "tokenId",
          "type": "uint256"
        }
      ],
      "name": "Transfer",
      "type": "event"
    },
    {
      "anonymous": false,
      "inputs": [
        {
          "indexed": true,
          "internalType": "address",
          "name": "previousGovernor",
          "type": "address"
        },
        {
          "indexed": true,
          "internalType": "address",
          "name": "proposedGovernor",
          "type": "address"
        }
      ],
      "name": "UpdatedGovernor",
      "type": "event"
    },
    {
      "inputs": [],
      "name": "acceptGovernorship",
      "outputs": [],
      "stateMutability": "nonpayable",
      "type": "function"
    },
    {
      "inputs": [
        {
          "internalType": "address",
          "name": "to",
          "type": "address"
        },
        {
          "internalType": "uint256",
          "name": "tokenId",
          "type": "uint256"
        }
      ],
      "name": "approve",
      "outputs": [],
      "stateMutability": "nonpayable",
      "type": "function"
    },
    {
      "inputs": [
        {
          "internalType": "address",
          "name": "owner",
          "type": "address"
        }
      ],
      "name": "balanceOf",
      "outputs": [
        {
          "internalType": "uint256",
          "name": "",
          "type": "uint256"
        }
      ],
      "stateMutability": "view",
      "type": "function"
    },
    {
      "inputs": [],
      "name": "baseTokenURI",
      "outputs": [
        {
          "internalType": "string",
          "name": "",
          "type": "string"
        }
      ],
      "stateMutability": "view",
      "type": "function"
    },
    {
      "inputs": [
        {
          "internalType": "uint256",
          "name": "tokenId_",
          "type": "uint256"
        }
      ],
      "name": "burn",
      "outputs": [],
      "stateMutability": "nonpayable",
      "type": "function"
    },
    {
      "inputs": [],
      "name": "esVSP",
      "outputs": [
        {
          "internalType": "contract IESVSP",
          "name": "",
          "type": "address"
        }
      ],
      "stateMutability": "view",
      "type": "function"
    },
    {
      "inputs": [
        {
          "internalType": "uint256",
          "name": "tokenId",
          "type": "uint256"
        }
      ],
      "name": "getApproved",
      "outputs": [
        {
          "internalType": "address",
          "name": "",
          "type": "address"
        }
      ],
      "stateMutability": "view",
      "type": "function"
    },
    {
      "inputs": [],
      "name": "governor",
      "outputs": [
        {
          "internalType": "address",
          "name": "",
          "type": "address"
        }
      ],
      "stateMutability": "view",
      "type": "function"
    },
    {
      "inputs": [
        {
          "internalType": "string",
          "name": "name_",
          "type": "string"
        },
        {
          "internalType": "string",
          "name": "symbol_",
          "type": "string"
        }
      ],
      "name": "initialize",
      "outputs": [],
      "stateMutability": "nonpayable",
      "type": "function"
    },
    {
      "inputs": [
        {
          "internalType": "contract IESVSP",
          "name": "esVSP_",
          "type": "address"
        }
      ],
      "name": "initializeESVSP",
      "outputs": [],
      "stateMutability": "nonpayable",
      "type": "function"
    },
    {
      "inputs": [
        {
          "internalType": "address",
          "name": "owner",
          "type": "address"
        },
        {
          "internalType": "address",
          "name": "operator",
          "type": "address"
        }
      ],
      "name": "isApprovedForAll",
      "outputs": [
        {
          "internalType": "bool",
          "name": "",
          "type": "bool"
        }
      ],
      "stateMutability": "view",
      "type": "function"
    },
    {
      "inputs": [
        {
          "internalType": "address",
          "name": "to_",
          "type": "address"
        }
      ],
      "name": "mint",
      "outputs": [
        {
          "internalType": "uint256",
          "name": "_tokenId",
          "type": "uint256"
        }
      ],
      "stateMutability": "nonpayable",
      "type": "function"
    },
    {
      "inputs": [],
      "name": "name",
      "outputs": [
        {
          "internalType": "string",
          "name": "",
          "type": "string"
        }
      ],
      "stateMutability": "view",
      "type": "function"
    },
    {
      "inputs": [],
      "name": "nextTokenId",
      "outputs": [
        {
          "internalType": "uint256",
          "name": "",
          "type": "uint256"
        }
      ],
      "stateMutability": "view",
      "type": "function"
    },
    {
      "inputs": [
        {
          "internalType": "uint256",
          "name": "tokenId",
          "type": "uint256"
        }
      ],
      "name": "ownerOf",
      "outputs": [
        {
          "internalType": "address",
          "name": "",
          "type": "address"
        }
      ],
      "stateMutability": "view",
      "type": "function"
    },
    {
      "inputs": [],
      "name": "proposedGovernor",
      "outputs": [
        {
          "internalType": "address",
          "name": "",
          "type": "address"
        }
      ],
      "stateMutability": "view",
      "type": "function"
    },
    {
      "inputs": [
        {
          "internalType": "address",
          "name": "from",
          "type": "address"
        },
        {
          "internalType": "address",
          "name": "to",
          "type": "address"
        },
        {
          "internalType": "uint256",
          "name": "tokenId",
          "type": "uint256"
        }
      ],
      "name": "safeTransferFrom",
      "outputs": [],
      "stateMutability": "nonpayable",
      "type": "function"
    },
    {
      "inputs": [
        {
          "internalType": "address",
          "name": "from",
          "type": "address"
        },
        {
          "internalType": "address",
          "name": "to",
          "type": "address"
        },
        {
          "internalType": "uint256",
          "name": "tokenId",
          "type": "uint256"
        },
        {
          "internalType": "bytes",
          "name": "_data",
          "type": "bytes"
        }
      ],
      "name": "safeTransferFrom",
      "outputs": [],
      "stateMutability": "nonpayable",
      "type": "function"
    },
    {
      "inputs": [
        {
          "internalType": "address",
          "name": "operator",
          "type": "address"
        },
        {
          "internalType": "bool",
          "name": "approved",
          "type": "bool"
        }
      ],
      "name": "setApprovalForAll",
      "outputs": [],
      "stateMutability": "nonpayable",
      "type": "function"
    },
    {
      "inputs": [
        {
          "internalType": "string",
          "name": "baseTokenURI_",
          "type": "string"
        }
      ],
      "name": "setBaseTokenURI",
      "outputs": [],
      "stateMutability": "nonpayable",
      "type": "function"
    },
    {
      "inputs": [
        {
          "internalType": "bytes4",
          "name": "interfaceId",
          "type": "bytes4"
        }
      ],
      "name": "supportsInterface",
      "outputs": [
        {
          "internalType": "bool",
          "name": "",
          "type": "bool"
        }
      ],
      "stateMutability": "view",
      "type": "function"
    },
    {
      "inputs": [],
      "name": "symbol",
      "outputs": [
        {
          "internalType": "string",
          "name": "",
          "type": "string"
        }
      ],
      "stateMutability": "view",
      "type": "function"
    },
    {
      "inputs": [
        {
          "internalType": "uint256",
          "name": "index",
          "type": "uint256"
        }
      ],
      "name": "tokenByIndex",
      "outputs": [
        {
          "internalType": "uint256",
          "name": "",
          "type": "uint256"
        }
      ],
      "stateMutability": "view",
      "type": "function"
    },
    {
      "inputs": [
        {
          "internalType": "address",
          "name": "owner",
          "type": "address"
        },
        {
          "internalType": "uint256",
          "name": "index",
          "type": "uint256"
        }
      ],
      "name": "tokenOfOwnerByIndex",
      "outputs": [
        {
          "internalType": "uint256",
          "name": "",
          "type": "uint256"
        }
      ],
      "stateMutability": "view",
      "type": "function"
    },
    {
      "inputs": [
        {
          "internalType": "uint256",
          "name": "tokenId",
          "type": "uint256"
        }
      ],
      "name": "tokenURI",
      "outputs": [
        {
          "internalType": "string",
          "name": "",
          "type": "string"
        }
      ],
      "stateMutability": "view",
      "type": "function"
    },
    {
      "inputs": [],
      "name": "totalSupply",
      "outputs": [
        {
          "internalType": "uint256",
          "name": "",
          "type": "uint256"
        }
      ],
      "stateMutability": "view",
      "type": "function"
    },
    {
      "inputs": [
        {
          "internalType": "address",
          "name": "from",
          "type": "address"
        },
        {
          "internalType": "address",
          "name": "to",
          "type": "address"
        },
        {
          "internalType": "uint256",
          "name": "tokenId",
          "type": "uint256"
        }
      ],
      "name": "transferFrom",
      "outputs": [],
      "stateMutability": "nonpayable",
      "type": "function"
    },
    {
      "inputs": [
        {
          "internalType": "address",
          "name": "_proposedGovernor",
          "type": "address"
        }
      ],
      "name": "transferGovernorship",
      "outputs": [],
      "stateMutability": "nonpayable",
      "type": "function"
    }
  ],
  "transactionHash": "0xcdd82a1c945a3199e0f95f4eb1bb9df1fd0cf8e89cf7b47e811adbeb4f7c94f1",
  "args": [],
  "numDeployments": 1,
  "solcInputHash": "f4048ce913a3d06b7f9cca2143d299b5",
  "bytecode": "0x608060405234801561001057600080fd5b50612215806100206000396000f3fe608060405234801561001057600080fd5b50600436106101845760003560e01c80636a627842116100d9578063ac5c3f8611610087578063ac5c3f8614610333578063b6aa515b14610346578063b88d4fde14610359578063c87b56dd1461036c578063d547cfb71461037f578063e985e9c514610387578063f3b27bc31461039a57600080fd5b80636a627842146102c357806370a08231146102d657806375794a3c146102e95780638a11a370146102f25780638dd230121461030557806395d89b4114610318578063a22cb4651461032057600080fd5b80632f745c59116101365780632f745c591461023e57806330176e131461025157806342842e0e1461026457806342966c68146102775780634cd88b761461028a5780634f6ccce71461029d5780636352211e146102b057600080fd5b806301ffc9a71461018957806306fdde03146101b1578063081812fc146101c6578063095ea7b3146101f15780630c340a241461020657806318160ddd1461021957806323b872dd1461022b575b600080fd5b61019c610197366004611acd565b6103a2565b60405190151581526020015b60405180910390f35b6101b96103cd565b6040516101a89190611b42565b6101d96101d4366004611b55565b61045f565b6040516001600160a01b0390911681526020016101a8565b6102046101ff366004611b83565b6104ec565b005b6007546101d9906001600160a01b031681565b600b545b6040519081526020016101a8565b610204610239366004611baf565b6105fd565b61021d61024c366004611b83565b61062e565b61020461025f366004611c9c565b6106c4565b610204610272366004611baf565b61073f565b610204610285366004611b55565b61075a565b610204610298366004611cd1565b610799565b61021d6102ab366004611b55565b61086a565b6101d96102be366004611b55565b6108fd565b61021d6102d1366004611d35565b610974565b61021d6102e4366004611d35565b6109cf565b61021d600f5481565b6008546101d9906001600160a01b031681565b610204610313366004611d35565b610a56565b6101b9610b39565b61020461032e366004611d52565b610b48565b600e546101d9906001600160a01b031681565b610204610354366004611d35565b610b53565b610204610367366004611d90565b610bf1565b6101b961037a366004611b55565b610c29565b6101b9610cf4565b61019c610395366004611e10565b610d82565b610204610db0565b60006001600160e01b0319821663780e9d6360e01b14806103c757506103c782610e6c565b92915050565b6060600180546103dc90611e3e565b80601f016020809104026020016040519081016040528092919081815260200182805461040890611e3e565b80156104555780601f1061042a57610100808354040283529160200191610455565b820191906000526020600020905b81548152906001019060200180831161043857829003601f168201915b5050505050905090565b600061046a82610ebc565b6104d05760405162461bcd60e51b815260206004820152602c60248201527f4552433732313a20617070726f76656420717565727920666f72206e6f6e657860448201526b34b9ba32b73a103a37b5b2b760a11b60648201526084015b60405180910390fd5b506000908152600560205260409020546001600160a01b031690565b60006104f7826108fd565b9050806001600160a01b0316836001600160a01b031614156105655760405162461bcd60e51b815260206004820152602160248201527f4552433732313a20617070726f76616c20746f2063757272656e74206f776e656044820152603960f91b60648201526084016104c7565b336001600160a01b038216148061058157506105818133610d82565b6105ee5760405162461bcd60e51b815260206004820152603860248201527f4552433732313a20617070726f76652063616c6c6572206973206e6f74206f776044820152771b995c881b9bdc88185c1c1c9bdd995908199bdc88185b1b60421b60648201526084016104c7565b6105f88383610ed9565b505050565b6106073382610f47565b6106235760405162461bcd60e51b81526004016104c790611e79565b6105f8838383611011565b6000610639836109cf565b821061069b5760405162461bcd60e51b815260206004820152602b60248201527f455243373231456e756d657261626c653a206f776e657220696e646578206f7560448201526a74206f6620626f756e647360a81b60648201526084016104c7565b506001600160a01b03919091166000908152600960209081526040808320938352929052205490565b6007546001600160a01b031633146106ee5760405162461bcd60e51b81526004016104c790611eca565b7f19c1a81f34d9a8d208a44017474815e9089aff4b57e461c08509577eea2c3900600d82604051610720929190611ef0565b60405180910390a1805161073b90600d906020840190611a1e565b5050565b6105f883838360405180602001604052806000815250610bf1565b600e546001600160a01b0316336001600160a01b03161461078d5760405162461bcd60e51b81526004016104c790611fac565b610796816111aa565b50565b600054610100900460ff166107b45760005460ff16156107b8565b303b155b61081b5760405162461bcd60e51b815260206004820152602e60248201527f496e697469616c697a61626c653a20636f6e747261637420697320616c72656160448201526d191e481a5b9a5d1a585b1a5e995960921b60648201526084016104c7565b600054610100900460ff1615801561083d576000805461ffff19166101011790555b610847838361123f565b61084f61128d565b6001600f5580156105f8576000805461ff0019169055505050565b6000610875600b5490565b82106108d85760405162461bcd60e51b815260206004820152602c60248201527f455243373231456e756d657261626c653a20676c6f62616c20696e646578206f60448201526b7574206f6620626f756e647360a01b60648201526084016104c7565b600b82815481106108eb576108eb611fcf565b90600052602060002001549050919050565b6000818152600360205260408120546001600160a01b0316806103c75760405162461bcd60e51b815260206004820152602960248201527f4552433732313a206f776e657220717565727920666f72206e6f6e657869737460448201526832b73a103a37b5b2b760b91b60648201526084016104c7565b600e546000906001600160a01b0316336001600160a01b0316146109aa5760405162461bcd60e51b81526004016104c790611fac565b600f80549060006109ba83611ffb565b9190505590506109ca82826112f6565b919050565b60006001600160a01b038216610a3a5760405162461bcd60e51b815260206004820152602a60248201527f4552433732313a2062616c616e636520717565727920666f7220746865207a65604482015269726f206164647265737360b01b60648201526084016104c7565b506001600160a01b031660009081526004602052604090205490565b6007546001600160a01b03163314610a805760405162461bcd60e51b81526004016104c790611eca565b600e546001600160a01b031615610acf5760405162461bcd60e51b8152602060048201526013602482015272185b1c9958591e4b5a5b9a5d1a585b1a5e9959606a1b60448201526064016104c7565b6001600160a01b038116610b175760405162461bcd60e51b815260206004820152600f60248201526e1859191c995cdccb5a5ccb5b9d5b1b608a1b60448201526064016104c7565b600e80546001600160a01b0319166001600160a01b0392909216919091179055565b6060600280546103dc90611e3e565b61073b338383611423565b6007546001600160a01b03163314610b7d5760405162461bcd60e51b81526004016104c790611eca565b6001600160a01b038116610bcf5760405162461bcd60e51b815260206004820152601960248201527870726f706f7365642d676f7665726e6f722d69732d7a65726f60381b60448201526064016104c7565b600880546001600160a01b0319166001600160a01b0392909216919091179055565b610bfb3383610f47565b610c175760405162461bcd60e51b81526004016104c790611e79565b610c23848484846114ee565b50505050565b6060610c3482610ebc565b610c985760405162461bcd60e51b815260206004820152602f60248201527f4552433732314d657461646174613a2055524920717565727920666f72206e6f60448201526e3732bc34b9ba32b73a103a37b5b2b760891b60648201526084016104c7565b6000610ca2611521565b90506000815111610cc25760405180602001604052806000815250610ced565b80610ccc84611530565b604051602001610cdd929190612016565b6040516020818303038152906040525b9392505050565b600d8054610d0190611e3e565b80601f0160208091040260200160405190810160405280929190818152602001828054610d2d90611e3e565b8015610d7a5780601f10610d4f57610100808354040283529160200191610d7a565b820191906000526020600020905b815481529060010190602001808311610d5d57829003601f168201915b505050505081565b6001600160a01b03918216600090815260066020908152604080832093909416825291909152205460ff1690565b6008546001600160a01b03163314610e065760405162461bcd60e51b81526020600482015260196024820152783737ba16ba343296b83937b837b9b2b216b3b7bb32b93737b960391b60448201526064016104c7565b6008546007546040516001600160a01b0392831692909116907fd4459d5b8b913cab0244230fd9b1c08b6ceace7fe9230e60d0f74cbffdf849d090600090a360088054600780546001600160a01b03199081166001600160a01b03841617909155169055565b60006001600160e01b031982166380ac58cd60e01b1480610e9d57506001600160e01b03198216635b5e139f60e01b145b806103c757506301ffc9a760e01b6001600160e01b03198316146103c7565b6000908152600360205260409020546001600160a01b0316151590565b600081815260056020526040902080546001600160a01b0319166001600160a01b0384169081179091558190610f0e826108fd565b6001600160a01b03167f8c5be1e5ebec7d5bd14f71427d1e84f3dd0314c0f7b2291e5b200ac8c7c3b92560405160405180910390a45050565b6000610f5282610ebc565b610fb35760405162461bcd60e51b815260206004820152602c60248201527f4552433732313a206f70657261746f7220717565727920666f72206e6f6e657860448201526b34b9ba32b73a103a37b5b2b760a11b60648201526084016104c7565b6000610fbe836108fd565b9050806001600160a01b0316846001600160a01b03161480610ff95750836001600160a01b0316610fee8461045f565b6001600160a01b0316145b8061100957506110098185610d82565b949350505050565b826001600160a01b0316611024826108fd565b6001600160a01b03161461108c5760405162461bcd60e51b815260206004820152602960248201527f4552433732313a207472616e73666572206f6620746f6b656e2074686174206960448201526839903737ba1037bbb760b91b60648201526084016104c7565b6001600160a01b0382166110ee5760405162461bcd60e51b8152602060048201526024808201527f4552433732313a207472616e7366657220746f20746865207a65726f206164646044820152637265737360e01b60648201526084016104c7565b6110f983838361162e565b611104600082610ed9565b6001600160a01b038316600090815260046020526040812080546001929061112d908490612045565b90915550506001600160a01b038216600090815260046020526040812080546001929061115b90849061205c565b909155505060008181526003602052604080822080546001600160a01b0319166001600160a01b0386811691821790925591518493918716916000805160206121c083398151915291a4505050565b60006111b5826108fd565b90506111c38160008461162e565b6111ce600083610ed9565b6001600160a01b03811660009081526004602052604081208054600192906111f7908490612045565b909155505060008281526003602052604080822080546001600160a01b0319169055518391906001600160a01b038416906000805160206121c0833981519152908390a45050565b600054610100900460ff166112665760405162461bcd60e51b81526004016104c790612074565b8151611279906001906020850190611a1e565b5080516105f8906002906020840190611a1e565b600054610100900460ff166112b45760405162461bcd60e51b81526004016104c790612074565b600780546001600160a01b031916339081179091556040516000907fd4459d5b8b913cab0244230fd9b1c08b6ceace7fe9230e60d0f74cbffdf849d0908290a3565b6001600160a01b03821661134c5760405162461bcd60e51b815260206004820181905260248201527f4552433732313a206d696e7420746f20746865207a65726f206164647265737360448201526064016104c7565b61135581610ebc565b156113a25760405162461bcd60e51b815260206004820152601c60248201527f4552433732313a20746f6b656e20616c7265616479206d696e7465640000000060448201526064016104c7565b6113ae6000838361162e565b6001600160a01b03821660009081526004602052604081208054600192906113d790849061205c565b909155505060008181526003602052604080822080546001600160a01b0319166001600160a01b03861690811790915590518392906000805160206121c0833981519152908290a45050565b816001600160a01b0316836001600160a01b031614156114815760405162461bcd60e51b815260206004820152601960248201527822a9219b99189d1030b8383937bb32903a379031b0b63632b960391b60448201526064016104c7565b6001600160a01b03838116600081815260066020908152604080832094871680845294825291829020805460ff191686151590811790915591519182527f17307eab39ab6107e8899845ad3d59bd9653f200f220920489ca2b5937696c31910160405180910390a3505050565b6114f9848484611011565b611505848484846116c9565b610c235760405162461bcd60e51b81526004016104c7906120bf565b6060600d80546103dc90611e3e565b6060816115545750506040805180820190915260018152600360fc1b602082015290565b8160005b811561157e578061156881611ffb565b91506115779050600a83612127565b9150611558565b60008167ffffffffffffffff81111561159957611599611bf0565b6040519080825280601f01601f1916602001820160405280156115c3576020820181803683370190505b5090505b8415611009576115d8600183612045565b91506115e5600a8661213b565b6115f090603061205c565b60f81b81838151811061160557611605611fcf565b60200101906001600160f81b031916908160001a905350611627600a86612127565b94506115c7565b6116398383836117d6565b6001600160a01b0383161580159061165957506001600160a01b03821615155b156105f857600e546040516355bd513f60e01b8152600481018390526001600160a01b038481166024830152909116906355bd513f90604401600060405180830381600087803b1580156116ac57600080fd5b505af11580156116c0573d6000803e3d6000fd5b50505050505050565b60006001600160a01b0384163b156117cb57604051630a85bd0160e11b81526001600160a01b0385169063150b7a029061170d90339089908890889060040161214f565b602060405180830381600087803b15801561172757600080fd5b505af1925050508015611757575060408051601f3d908101601f191682019092526117549181019061218c565b60015b6117b1573d808015611785576040519150601f19603f3d011682016040523d82523d6000602084013e61178a565b606091505b5080516117a95760405162461bcd60e51b81526004016104c7906120bf565b805181602001fd5b6001600160e01b031916630a85bd0160e11b149050611009565b506001949350505050565b6001600160a01b0383166118315761182c81600b80546000838152600c60205260408120829055600182018355919091527f0175b7a638427703f0dbe7bb9bbf987a2551717b34e79f33b5b1008d1fa01db90155565b611854565b816001600160a01b0316836001600160a01b03161461185457611854838261188e565b6001600160a01b03821661186b576105f88161192b565b826001600160a01b0316826001600160a01b0316146105f8576105f882826119da565b6000600161189b846109cf565b6118a59190612045565b6000838152600a60205260409020549091508082146118f8576001600160a01b03841660009081526009602090815260408083208584528252808320548484528184208190558352600a90915290208190555b506000918252600a602090815260408084208490556001600160a01b039094168352600981528383209183525290812055565b600b5460009061193d90600190612045565b6000838152600c6020526040812054600b805493945090928490811061196557611965611fcf565b9060005260206000200154905080600b838154811061198657611986611fcf565b6000918252602080832090910192909255828152600c9091526040808220849055858252812055600b8054806119be576119be6121a9565b6001900381819060005260206000200160009055905550505050565b60006119e5836109cf565b6001600160a01b0390931660009081526009602090815260408083208684528252808320859055938252600a9052919091209190915550565b828054611a2a90611e3e565b90600052602060002090601f016020900481019282611a4c5760008555611a92565b82601f10611a6557805160ff1916838001178555611a92565b82800160010185558215611a92579182015b82811115611a92578251825591602001919060010190611a77565b50611a9e929150611aa2565b5090565b5b80821115611a9e5760008155600101611aa3565b6001600160e01b03198116811461079657600080fd5b600060208284031215611adf57600080fd5b8135610ced81611ab7565b60005b83811015611b05578181015183820152602001611aed565b83811115610c235750506000910152565b60008151808452611b2e816020860160208601611aea565b601f01601f19169290920160200192915050565b602081526000610ced6020830184611b16565b600060208284031215611b6757600080fd5b5035919050565b6001600160a01b038116811461079657600080fd5b60008060408385031215611b9657600080fd5b8235611ba181611b6e565b946020939093013593505050565b600080600060608486031215611bc457600080fd5b8335611bcf81611b6e565b92506020840135611bdf81611b6e565b929592945050506040919091013590565b634e487b7160e01b600052604160045260246000fd5b600067ffffffffffffffff80841115611c2157611c21611bf0565b604051601f8501601f19908116603f01168101908282118183101715611c4957611c49611bf0565b81604052809350858152868686011115611c6257600080fd5b858560208301376000602087830101525050509392505050565b600082601f830112611c8d57600080fd5b610ced83833560208501611c06565b600060208284031215611cae57600080fd5b813567ffffffffffffffff811115611cc557600080fd5b61100984828501611c7c565b60008060408385031215611ce457600080fd5b823567ffffffffffffffff80821115611cfc57600080fd5b611d0886838701611c7c565b93506020850135915080821115611d1e57600080fd5b50611d2b85828601611c7c565b9150509250929050565b600060208284031215611d4757600080fd5b8135610ced81611b6e565b60008060408385031215611d6557600080fd5b8235611d7081611b6e565b915060208301358015158114611d8557600080fd5b809150509250929050565b60008060008060808587031215611da657600080fd5b8435611db181611b6e565b93506020850135611dc181611b6e565b925060408501359150606085013567ffffffffffffffff811115611de457600080fd5b8501601f81018713611df557600080fd5b611e0487823560208401611c06565b91505092959194509250565b60008060408385031215611e2357600080fd5b8235611e2e81611b6e565b91506020830135611d8581611b6e565b600181811c90821680611e5257607f821691505b60208210811415611e7357634e487b7160e01b600052602260045260246000fd5b50919050565b60208082526031908201527f4552433732313a207472616e736665722063616c6c6572206973206e6f74206f6040820152701ddb995c881b9bdc88185c1c1c9bdd9959607a1b606082015260800190565b6020808252600c908201526b3737ba16b3b7bb32b93737b960a11b604082015260600190565b60408152600080845481600182811c915080831680611f1057607f831692505b6020808410821415611f3057634e487b7160e01b86526022600452602486fd5b6040880184905260608801828015611f4f5760018114611f6057611f8b565b60ff19871682528282019750611f8b565b60008c81526020902060005b87811015611f8557815484820152908601908401611f6c565b83019850505b5050878603818901525050505050611fa38185611b16565b95945050505050565b60208082526009908201526806e6f742d65737673760bc1b604082015260600190565b634e487b7160e01b600052603260045260246000fd5b634e487b7160e01b600052601160045260246000fd5b600060001982141561200f5761200f611fe5565b5060010190565b60008351612028818460208801611aea565b83519083019061203c818360208801611aea565b01949350505050565b60008282101561205757612057611fe5565b500390565b6000821982111561206f5761206f611fe5565b500190565b6020808252602b908201527f496e697469616c697a61626c653a20636f6e7472616374206973206e6f74206960408201526a6e697469616c697a696e6760a81b606082015260800190565b60208082526032908201527f4552433732313a207472616e7366657220746f206e6f6e20455243373231526560408201527131b2b4bb32b91034b6b83632b6b2b73a32b960711b606082015260800190565b634e487b7160e01b600052601260045260246000fd5b60008261213657612136612111565b500490565b60008261214a5761214a612111565b500690565b6001600160a01b038581168252841660208201526040810183905260806060820181905260009061218290830184611b16565b9695505050505050565b60006020828403121561219e57600080fd5b8151610ced81611ab7565b634e487b7160e01b600052603160045260246000fdfeddf252ad1be2c89b69c2b068fc378daa952ba7f163c4a11628f55a4df523b3efa2646970667358221220d965a3f9d544bd0329981d94d97a324d9cf0419c52c4956a3cb266443dfc1d3b64736f6c63430008090033",
  "devdoc": {
    "kind": "dev",
    "methods": {
      "acceptGovernorship()": {
        "details": "Allows new governor to accept governorship of the contract."
      },
      "approve(address,uint256)": {
        "details": "See {IERC721-approve}."
      },
      "balanceOf(address)": {
        "details": "See {IERC721-balanceOf}."
      },
      "burn(uint256)": {
        "details": "Revert if caller isn't the esVSP",
        "params": {
          "tokenId_": "The id of the token to burn"
        }
      },
      "getApproved(uint256)": {
        "details": "See {IERC721-getApproved}."
      },
      "initializeESVSP(address)": {
        "details": "Called once"
      },
      "isApprovedForAll(address,address)": {
        "details": "See {IERC721-isApprovedForAll}."
      },
      "mint(address)": {
        "details": "Revert if caller isn't the esVSP",
        "params": {
          "to_": "The receiver account"
        }
      },
      "name()": {
        "details": "See {IERC721Metadata-name}."
      },
      "ownerOf(uint256)": {
        "details": "See {IERC721-ownerOf}."
      },
      "safeTransferFrom(address,address,uint256)": {
        "details": "See {IERC721-safeTransferFrom}."
      },
      "safeTransferFrom(address,address,uint256,bytes)": {
        "details": "See {IERC721-safeTransferFrom}."
      },
      "setApprovalForAll(address,bool)": {
        "details": "See {IERC721-setApprovalForAll}."
      },
      "supportsInterface(bytes4)": {
        "details": "See {IERC165-supportsInterface}."
      },
      "symbol()": {
        "details": "See {IERC721Metadata-symbol}."
      },
      "tokenByIndex(uint256)": {
        "details": "See {IERC721Enumerable-tokenByIndex}."
      },
      "tokenOfOwnerByIndex(address,uint256)": {
        "details": "See {IERC721Enumerable-tokenOfOwnerByIndex}."
      },
      "tokenURI(uint256)": {
        "details": "See {IERC721Metadata-tokenURI}."
      },
      "totalSupply()": {
        "details": "See {IERC721Enumerable-totalSupply}."
      },
      "transferFrom(address,address,uint256)": {
        "details": "See {IERC721-transferFrom}."
      },
      "transferGovernorship(address)": {
        "details": "Transfers governorship of the contract to a new account (`proposedGovernor`). Can only be called by the current owner."
      }
    },
    "version": 1
  },
  "userdoc": {
    "events": {
      "BaseTokenURIUpdated(string,string)": {
        "notice": "Emitted when `baseTokenURI` is updated"
      }
    },
    "kind": "user",
    "methods": {
      "baseTokenURI()": {
        "notice": "Base URI"
      },
      "burn(uint256)": {
        "notice": "Burn NFT"
      },
      "esVSP()": {
        "notice": "ESVSP contract"
      },
      "initializeESVSP(address)": {
        "notice": "Initialized esVSP contract"
      },
      "mint(address)": {
        "notice": "Mint NFT"
      },
      "nextTokenId()": {
        "notice": "Tracks the next token id to mint"
      },
      "setBaseTokenURI(string)": {
        "notice": "Update the base token URI"
      }
    },
    "version": 1
  },
  "storageLayout": {
    "storage": [
      {
        "astId": 3021,
        "contract": "contracts/ESVSP721.sol:ESVSP721",
        "label": "_initialized",
        "offset": 0,
        "slot": "0",
        "type": "t_bool"
      },
      {
        "astId": 3024,
        "contract": "contracts/ESVSP721.sol:ESVSP721",
        "label": "_initializing",
        "offset": 1,
        "slot": "0",
        "type": "t_bool"
      },
      {
        "astId": 3484,
        "contract": "contracts/ESVSP721.sol:ESVSP721",
        "label": "_name",
        "offset": 0,
        "slot": "1",
        "type": "t_string_storage"
      },
      {
        "astId": 3486,
        "contract": "contracts/ESVSP721.sol:ESVSP721",
        "label": "_symbol",
        "offset": 0,
        "slot": "2",
        "type": "t_string_storage"
      },
      {
        "astId": 3490,
        "contract": "contracts/ESVSP721.sol:ESVSP721",
        "label": "_owners",
        "offset": 0,
        "slot": "3",
        "type": "t_mapping(t_uint256,t_address)"
      },
      {
        "astId": 3494,
        "contract": "contracts/ESVSP721.sol:ESVSP721",
        "label": "_balances",
        "offset": 0,
        "slot": "4",
        "type": "t_mapping(t_address,t_uint256)"
      },
      {
        "astId": 3498,
        "contract": "contracts/ESVSP721.sol:ESVSP721",
        "label": "_tokenApprovals",
        "offset": 0,
        "slot": "5",
        "type": "t_mapping(t_uint256,t_address)"
      },
      {
        "astId": 3504,
        "contract": "contracts/ESVSP721.sol:ESVSP721",
        "label": "_operatorApprovals",
        "offset": 0,
        "slot": "6",
        "type": "t_mapping(t_address,t_mapping(t_address,t_bool))"
      },
      {
        "astId": 2051,
        "contract": "contracts/ESVSP721.sol:ESVSP721",
        "label": "governor",
        "offset": 0,
        "slot": "7",
        "type": "t_address"
      },
      {
        "astId": 2053,
        "contract": "contracts/ESVSP721.sol:ESVSP721",
        "label": "proposedGovernor",
        "offset": 0,
        "slot": "8",
        "type": "t_address"
      },
      {
        "astId": 4440,
        "contract": "contracts/ESVSP721.sol:ESVSP721",
        "label": "_ownedTokens",
        "offset": 0,
        "slot": "9",
        "type": "t_mapping(t_address,t_mapping(t_uint256,t_uint256))"
      },
      {
        "astId": 4444,
        "contract": "contracts/ESVSP721.sol:ESVSP721",
        "label": "_ownedTokensIndex",
        "offset": 0,
        "slot": "10",
        "type": "t_mapping(t_uint256,t_uint256)"
      },
      {
        "astId": 4447,
        "contract": "contracts/ESVSP721.sol:ESVSP721",
        "label": "_allTokens",
        "offset": 0,
        "slot": "11",
        "type": "t_array(t_uint256)dyn_storage"
      },
      {
        "astId": 4451,
        "contract": "contracts/ESVSP721.sol:ESVSP721",
        "label": "_allTokensIndex",
        "offset": 0,
        "slot": "12",
        "type": "t_mapping(t_uint256,t_uint256)"
      },
      {
        "astId": 6117,
        "contract": "contracts/ESVSP721.sol:ESVSP721",
        "label": "baseTokenURI",
        "offset": 0,
        "slot": "13",
        "type": "t_string_storage"
      },
      {
        "astId": 6121,
        "contract": "contracts/ESVSP721.sol:ESVSP721",
        "label": "esVSP",
        "offset": 0,
        "slot": "14",
        "type": "t_contract(IESVSP)6003"
      },
      {
        "astId": 6124,
        "contract": "contracts/ESVSP721.sol:ESVSP721",
        "label": "nextTokenId",
        "offset": 0,
        "slot": "15",
        "type": "t_uint256"
      }
    ],
    "types": {
      "t_address": {
        "encoding": "inplace",
        "label": "address",
        "numberOfBytes": "20"
      },
      "t_array(t_uint256)dyn_storage": {
        "base": "t_uint256",
        "encoding": "dynamic_array",
        "label": "uint256[]",
        "numberOfBytes": "32"
      },
      "t_bool": {
        "encoding": "inplace",
        "label": "bool",
        "numberOfBytes": "1"
      },
      "t_contract(IESVSP)6003": {
        "encoding": "inplace",
        "label": "contract IESVSP",
        "numberOfBytes": "20"
      },
      "t_mapping(t_address,t_bool)": {
        "encoding": "mapping",
        "key": "t_address",
        "label": "mapping(address => bool)",
        "numberOfBytes": "32",
        "value": "t_bool"
      },
      "t_mapping(t_address,t_mapping(t_address,t_bool))": {
        "encoding": "mapping",
        "key": "t_address",
        "label": "mapping(address => mapping(address => bool))",
        "numberOfBytes": "32",
        "value": "t_mapping(t_address,t_bool)"
      },
      "t_mapping(t_address,t_mapping(t_uint256,t_uint256))": {
        "encoding": "mapping",
        "key": "t_address",
        "label": "mapping(address => mapping(uint256 => uint256))",
        "numberOfBytes": "32",
        "value": "t_mapping(t_uint256,t_uint256)"
      },
      "t_mapping(t_address,t_uint256)": {
        "encoding": "mapping",
        "key": "t_address",
        "label": "mapping(address => uint256)",
        "numberOfBytes": "32",
        "value": "t_uint256"
      },
      "t_mapping(t_uint256,t_address)": {
        "encoding": "mapping",
        "key": "t_uint256",
        "label": "mapping(uint256 => address)",
        "numberOfBytes": "32",
        "value": "t_address"
      },
      "t_mapping(t_uint256,t_uint256)": {
        "encoding": "mapping",
        "key": "t_uint256",
        "label": "mapping(uint256 => uint256)",
        "numberOfBytes": "32",
        "value": "t_uint256"
      },
      "t_string_storage": {
        "encoding": "bytes",
        "label": "string",
        "numberOfBytes": "32"
      },
      "t_uint256": {
        "encoding": "inplace",
        "label": "uint256",
        "numberOfBytes": "32"
      }
    }
  }
}