{
  "address": "0x50710b8831A785dbE1375167C6E5B269eE4395c8",
  "abi": [
    {
      "anonymous": false,
      "inputs": [
        {
          "indexed": true,
          "internalType": "address",
          "name": "owner",
          "type": "address"
        },
        {
          "indexed": true,
          "internalType": "address",
          "name": "approved",
          "type": "address"
        },
        {
          "indexed": true,
          "internalType": "uint256",
          "name": "tokenId",
          "type": "uint256"
        }
      ],
      "name": "Approval",
      "type": "event"
    },
    {
      "anonymous": false,
      "inputs": [
        {
          "indexed": true,
          "internalType": "address",
          "name": "owner",
          "type": "address"
        },
        {
          "indexed": true,
          "internalType": "address",
          "name": "operator",
          "type": "address"
        },
        {
          "indexed": false,
          "internalType": "bool",
          "name": "approved",
          "type": "bool"
        }
      ],
      "name": "ApprovalForAll",
      "type": "event"
    },
    {
      "anonymous": false,
      "inputs": [
        {
          "indexed": false,
          "internalType": "string",
          "name": "oldBaseTokenURI",
          "type": "string"
        },
        {
          "indexed": false,
          "internalType": "string",
          "name": "newBaseTokenURI",
          "type": "string"
        }
      ],
      "name": "BaseTokenURIUpdated",
      "type": "event"
    },
    {
      "anonymous": false,
      "inputs": [
        {
          "indexed": false,
          "internalType": "uint8",
          "name": "version",
          "type": "uint8"
        }
      ],
      "name": "Initialized",
      "type": "event"
    },
    {
      "anonymous": false,
      "inputs": [
        {
          "indexed": true,
          "internalType": "address",
          "name": "from",
          "type": "address"
        },
        {
          "indexed": true,
          "internalType": "address",
          "name": "to",
          "type": "address"
        },
        {
          "indexed": true,
          "internalType": "uint256",
          "name": "tokenId",
          "type": "uint256"
        }
      ],
      "name": "Transfer",
      "type": "event"
    },
    {
      "anonymous": false,
      "inputs": [
        {
          "indexed": true,
          "internalType": "address",
          "name": "previousGovernor",
          "type": "address"
        },
        {
          "indexed": true,
          "internalType": "address",
          "name": "proposedGovernor",
          "type": "address"
        }
      ],
      "name": "UpdatedGovernor",
      "type": "event"
    },
    {
      "inputs": [],
      "name": "acceptGovernorship",
      "outputs": [],
      "stateMutability": "nonpayable",
      "type": "function"
    },
    {
      "inputs": [
        {
          "internalType": "address",
          "name": "to",
          "type": "address"
        },
        {
          "internalType": "uint256",
          "name": "tokenId",
          "type": "uint256"
        }
      ],
      "name": "approve",
      "outputs": [],
      "stateMutability": "nonpayable",
      "type": "function"
    },
    {
      "inputs": [
        {
          "internalType": "address",
          "name": "owner",
          "type": "address"
        }
      ],
      "name": "balanceOf",
      "outputs": [
        {
          "internalType": "uint256",
          "name": "",
          "type": "uint256"
        }
      ],
      "stateMutability": "view",
      "type": "function"
    },
    {
      "inputs": [],
      "name": "baseTokenURI",
      "outputs": [
        {
          "internalType": "string",
          "name": "",
          "type": "string"
        }
      ],
      "stateMutability": "view",
      "type": "function"
    },
    {
      "inputs": [
        {
          "internalType": "uint256",
          "name": "tokenId_",
          "type": "uint256"
        }
      ],
      "name": "burn",
      "outputs": [],
      "stateMutability": "nonpayable",
      "type": "function"
    },
    {
      "inputs": [],
      "name": "esVSP",
      "outputs": [
        {
          "internalType": "contract IESVSP",
          "name": "",
          "type": "address"
        }
      ],
      "stateMutability": "view",
      "type": "function"
    },
    {
      "inputs": [
        {
          "internalType": "uint256",
          "name": "tokenId",
          "type": "uint256"
        }
      ],
      "name": "getApproved",
      "outputs": [
        {
          "internalType": "address",
          "name": "",
          "type": "address"
        }
      ],
      "stateMutability": "view",
      "type": "function"
    },
    {
      "inputs": [],
      "name": "governor",
      "outputs": [
        {
          "internalType": "address",
          "name": "",
          "type": "address"
        }
      ],
      "stateMutability": "view",
      "type": "function"
    },
    {
      "inputs": [
        {
          "internalType": "string",
          "name": "name_",
          "type": "string"
        },
        {
          "internalType": "string",
          "name": "symbol_",
          "type": "string"
        }
      ],
      "name": "initialize",
      "outputs": [],
      "stateMutability": "nonpayable",
      "type": "function"
    },
    {
      "inputs": [
        {
          "internalType": "contract IESVSP",
          "name": "esVSP_",
          "type": "address"
        }
      ],
      "name": "initializeESVSP",
      "outputs": [],
      "stateMutability": "nonpayable",
      "type": "function"
    },
    {
      "inputs": [
        {
          "internalType": "address",
          "name": "owner",
          "type": "address"
        },
        {
          "internalType": "address",
          "name": "operator",
          "type": "address"
        }
      ],
      "name": "isApprovedForAll",
      "outputs": [
        {
          "internalType": "bool",
          "name": "",
          "type": "bool"
        }
      ],
      "stateMutability": "view",
      "type": "function"
    },
    {
      "inputs": [
        {
          "internalType": "address",
          "name": "to_",
          "type": "address"
        }
      ],
      "name": "mint",
      "outputs": [
        {
          "internalType": "uint256",
          "name": "_tokenId",
          "type": "uint256"
        }
      ],
      "stateMutability": "nonpayable",
      "type": "function"
    },
    {
      "inputs": [],
      "name": "name",
      "outputs": [
        {
          "internalType": "string",
          "name": "",
          "type": "string"
        }
      ],
      "stateMutability": "view",
      "type": "function"
    },
    {
      "inputs": [],
      "name": "nextTokenId",
      "outputs": [
        {
          "internalType": "uint256",
          "name": "",
          "type": "uint256"
        }
      ],
      "stateMutability": "view",
      "type": "function"
    },
    {
      "inputs": [
        {
          "internalType": "uint256",
          "name": "tokenId",
          "type": "uint256"
        }
      ],
      "name": "ownerOf",
      "outputs": [
        {
          "internalType": "address",
          "name": "",
          "type": "address"
        }
      ],
      "stateMutability": "view",
      "type": "function"
    },
    {
      "inputs": [],
      "name": "proposedGovernor",
      "outputs": [
        {
          "internalType": "address",
          "name": "",
          "type": "address"
        }
      ],
      "stateMutability": "view",
      "type": "function"
    },
    {
      "inputs": [
        {
          "internalType": "address",
          "name": "from",
          "type": "address"
        },
        {
          "internalType": "address",
          "name": "to",
          "type": "address"
        },
        {
          "internalType": "uint256",
          "name": "tokenId",
          "type": "uint256"
        }
      ],
      "name": "safeTransferFrom",
      "outputs": [],
      "stateMutability": "nonpayable",
      "type": "function"
    },
    {
      "inputs": [
        {
          "internalType": "address",
          "name": "from",
          "type": "address"
        },
        {
          "internalType": "address",
          "name": "to",
          "type": "address"
        },
        {
          "internalType": "uint256",
          "name": "tokenId",
          "type": "uint256"
        },
        {
          "internalType": "bytes",
          "name": "data",
          "type": "bytes"
        }
      ],
      "name": "safeTransferFrom",
      "outputs": [],
      "stateMutability": "nonpayable",
      "type": "function"
    },
    {
      "inputs": [
        {
          "internalType": "address",
          "name": "operator",
          "type": "address"
        },
        {
          "internalType": "bool",
          "name": "approved",
          "type": "bool"
        }
      ],
      "name": "setApprovalForAll",
      "outputs": [],
      "stateMutability": "nonpayable",
      "type": "function"
    },
    {
      "inputs": [
        {
          "internalType": "string",
          "name": "baseTokenURI_",
          "type": "string"
        }
      ],
      "name": "setBaseTokenURI",
      "outputs": [],
      "stateMutability": "nonpayable",
      "type": "function"
    },
    {
      "inputs": [
        {
          "internalType": "bytes4",
          "name": "interfaceId",
          "type": "bytes4"
        }
      ],
      "name": "supportsInterface",
      "outputs": [
        {
          "internalType": "bool",
          "name": "",
          "type": "bool"
        }
      ],
      "stateMutability": "view",
      "type": "function"
    },
    {
      "inputs": [],
      "name": "symbol",
      "outputs": [
        {
          "internalType": "string",
          "name": "",
          "type": "string"
        }
      ],
      "stateMutability": "view",
      "type": "function"
    },
    {
      "inputs": [
        {
          "internalType": "uint256",
          "name": "index",
          "type": "uint256"
        }
      ],
      "name": "tokenByIndex",
      "outputs": [
        {
          "internalType": "uint256",
          "name": "",
          "type": "uint256"
        }
      ],
      "stateMutability": "view",
      "type": "function"
    },
    {
      "inputs": [
        {
          "internalType": "address",
          "name": "owner",
          "type": "address"
        },
        {
          "internalType": "uint256",
          "name": "index",
          "type": "uint256"
        }
      ],
      "name": "tokenOfOwnerByIndex",
      "outputs": [
        {
          "internalType": "uint256",
          "name": "",
          "type": "uint256"
        }
      ],
      "stateMutability": "view",
      "type": "function"
    },
    {
      "inputs": [
        {
          "internalType": "uint256",
          "name": "tokenId",
          "type": "uint256"
        }
      ],
      "name": "tokenURI",
      "outputs": [
        {
          "internalType": "string",
          "name": "",
          "type": "string"
        }
      ],
      "stateMutability": "view",
      "type": "function"
    },
    {
      "inputs": [],
      "name": "totalSupply",
      "outputs": [
        {
          "internalType": "uint256",
          "name": "",
          "type": "uint256"
        }
      ],
      "stateMutability": "view",
      "type": "function"
    },
    {
      "inputs": [
        {
          "internalType": "address",
          "name": "from",
          "type": "address"
        },
        {
          "internalType": "address",
          "name": "to",
          "type": "address"
        },
        {
          "internalType": "uint256",
          "name": "tokenId",
          "type": "uint256"
        }
      ],
      "name": "transferFrom",
      "outputs": [],
      "stateMutability": "nonpayable",
      "type": "function"
    },
    {
      "inputs": [
        {
          "internalType": "address",
          "name": "_proposedGovernor",
          "type": "address"
        }
      ],
      "name": "transferGovernorship",
      "outputs": [],
      "stateMutability": "nonpayable",
      "type": "function"
    }
  ],
  "transactionHash": "0x18b21a6008ce0c058e2f92165a194da7281f09673e3981141551f9ab2b64c8ff",
  "args": [],
  "numDeployments": 1,
  "solcInputHash": "7f37f03f0bc33d73c73e9428bb0a0c84",
  "bytecode": "0x608060405234801561001057600080fd5b506122af806100206000396000f3fe608060405234801561001057600080fd5b50600436106101845760003560e01c80636a627842116100d9578063ac5c3f8611610087578063ac5c3f8614610333578063b6aa515b14610346578063b88d4fde14610359578063c87b56dd1461036c578063d547cfb71461037f578063e985e9c514610387578063f3b27bc31461039a57600080fd5b80636a627842146102c357806370a08231146102d657806375794a3c146102e95780638a11a370146102f25780638dd230121461030557806395d89b4114610318578063a22cb4651461032057600080fd5b80632f745c59116101365780632f745c591461023e57806330176e131461025157806342842e0e1461026457806342966c68146102775780634cd88b761461028a5780634f6ccce71461029d5780636352211e146102b057600080fd5b806301ffc9a71461018957806306fdde03146101b1578063081812fc146101c6578063095ea7b3146101f15780630c340a241461020657806318160ddd1461021957806323b872dd1461022b575b600080fd5b61019c610197366004611afb565b6103a2565b60405190151581526020015b60405180910390f35b6101b96103cd565b6040516101a89190611b70565b6101d96101d4366004611b83565b61045f565b6040516001600160a01b0390911681526020016101a8565b6102046101ff366004611bb1565b610486565b005b6007546101d9906001600160a01b031681565b600b545b6040519081526020016101a8565b610204610239366004611bdd565b6105a1565b61021d61024c366004611bb1565b6105d2565b61020461025f366004611cca565b610668565b610204610272366004611bdd565b6106e3565b610204610285366004611b83565b6106fe565b610204610298366004611cff565b61073d565b61021d6102ab366004611b83565b61085e565b6101d96102be366004611b83565b6108f1565b61021d6102d1366004611d63565b610926565b61021d6102e4366004611d63565b610981565b61021d600f5481565b6008546101d9906001600160a01b031681565b610204610313366004611d63565b610a07565b6101b9610aea565b61020461032e366004611d80565b610af9565b600e546101d9906001600160a01b031681565b610204610354366004611d63565b610b04565b610204610367366004611dbe565b610ba2565b6101b961037a366004611b83565b610bda565b6101b9610c41565b61019c610395366004611e3e565b610ccf565b610204610cfd565b60006001600160e01b0319821663780e9d6360e01b14806103c757506103c782610db9565b92915050565b6060600180546103dc90611e6c565b80601f016020809104026020016040519081016040528092919081815260200182805461040890611e6c565b80156104555780601f1061042a57610100808354040283529160200191610455565b820191906000526020600020905b81548152906001019060200180831161043857829003601f168201915b5050505050905090565b600061046a82610e09565b506000908152600560205260409020546001600160a01b031690565b6000610491826108f1565b9050806001600160a01b0316836001600160a01b031614156105045760405162461bcd60e51b815260206004820152602160248201527f4552433732313a20617070726f76616c20746f2063757272656e74206f776e656044820152603960f91b60648201526084015b60405180910390fd5b336001600160a01b038216148061052057506105208133610ccf565b6105925760405162461bcd60e51b815260206004820152603d60248201527f4552433732313a20617070726f76652063616c6c6572206973206e6f7420746f60448201527f6b656e206f776e6572206f7220617070726f76656420666f7220616c6c00000060648201526084016104fb565b61059c8383610e2e565b505050565b6105ab3382610e9c565b6105c75760405162461bcd60e51b81526004016104fb90611ea7565b61059c838383610efb565b60006105dd83610981565b821061063f5760405162461bcd60e51b815260206004820152602b60248201527f455243373231456e756d657261626c653a206f776e657220696e646578206f7560448201526a74206f6620626f756e647360a81b60648201526084016104fb565b506001600160a01b03919091166000908152600960209081526040808320938352929052205490565b6007546001600160a01b031633146106925760405162461bcd60e51b81526004016104fb90611ef4565b7f19c1a81f34d9a8d208a44017474815e9089aff4b57e461c08509577eea2c3900600d826040516106c4929190611f1a565b60405180910390a180516106df90600d906020840190611a4c565b5050565b61059c83838360405180602001604052806000815250610ba2565b600e546001600160a01b0316336001600160a01b0316146107315760405162461bcd60e51b81526004016104fb90611fd6565b61073a8161105a565b50565b600054610100900460ff161580801561075d5750600054600160ff909116105b806107775750303b158015610777575060005460ff166001145b6107da5760405162461bcd60e51b815260206004820152602e60248201527f496e697469616c697a61626c653a20636f6e747261637420697320616c72656160448201526d191e481a5b9a5d1a585b1a5e995960921b60648201526084016104fb565b6000805460ff1916600117905580156107fd576000805461ff0019166101001790555b61080783836110eb565b61080f611139565b6001600f55801561059c576000805461ff0019169055604051600181527f7f26b83ff96e1f2b6a682f133852f6798a09c465da95921460cefb38474024989060200160405180910390a1505050565b6000610869600b5490565b82106108cc5760405162461bcd60e51b815260206004820152602c60248201527f455243373231456e756d657261626c653a20676c6f62616c20696e646578206f60448201526b7574206f6620626f756e647360a01b60648201526084016104fb565b600b82815481106108df576108df611ff9565b90600052602060002001549050919050565b6000818152600360205260408120546001600160a01b0316806103c75760405162461bcd60e51b81526004016104fb9061200f565b600e546000906001600160a01b0316336001600160a01b03161461095c5760405162461bcd60e51b81526004016104fb90611fd6565b600f805490600061096c83612057565b91905055905061097c82826111a2565b919050565b60006001600160a01b0382166109eb5760405162461bcd60e51b815260206004820152602960248201527f4552433732313a2061646472657373207a65726f206973206e6f7420612076616044820152683634b21037bbb732b960b91b60648201526084016104fb565b506001600160a01b031660009081526004602052604090205490565b6007546001600160a01b03163314610a315760405162461bcd60e51b81526004016104fb90611ef4565b600e546001600160a01b031615610a805760405162461bcd60e51b8152602060048201526013602482015272185b1c9958591e4b5a5b9a5d1a585b1a5e9959606a1b60448201526064016104fb565b6001600160a01b038116610ac85760405162461bcd60e51b815260206004820152600f60248201526e1859191c995cdccb5a5ccb5b9d5b1b608a1b60448201526064016104fb565b600e80546001600160a01b0319166001600160a01b0392909216919091179055565b6060600280546103dc90611e6c565b6106df3383836112ab565b6007546001600160a01b03163314610b2e5760405162461bcd60e51b81526004016104fb90611ef4565b6001600160a01b038116610b805760405162461bcd60e51b815260206004820152601960248201527870726f706f7365642d676f7665726e6f722d69732d7a65726f60381b60448201526064016104fb565b600880546001600160a01b0319166001600160a01b0392909216919091179055565b610bac3383610e9c565b610bc85760405162461bcd60e51b81526004016104fb90611ea7565b610bd484848484611376565b50505050565b6060610be582610e09565b6000610bef6113a9565b90506000815111610c0f5760405180602001604052806000815250610c3a565b80610c19846113b8565b604051602001610c2a929190612072565b6040516020818303038152906040525b9392505050565b600d8054610c4e90611e6c565b80601f0160208091040260200160405190810160405280929190818152602001828054610c7a90611e6c565b8015610cc75780601f10610c9c57610100808354040283529160200191610cc7565b820191906000526020600020905b815481529060010190602001808311610caa57829003601f168201915b505050505081565b6001600160a01b03918216600090815260066020908152604080832093909416825291909152205460ff1690565b6008546001600160a01b03163314610d535760405162461bcd60e51b81526020600482015260196024820152783737ba16ba343296b83937b837b9b2b216b3b7bb32b93737b960391b60448201526064016104fb565b6008546007546040516001600160a01b0392831692909116907fd4459d5b8b913cab0244230fd9b1c08b6ceace7fe9230e60d0f74cbffdf849d090600090a360088054600780546001600160a01b03199081166001600160a01b03841617909155169055565b60006001600160e01b031982166380ac58cd60e01b1480610dea57506001600160e01b03198216635b5e139f60e01b145b806103c757506301ffc9a760e01b6001600160e01b03198316146103c7565b610e1281611455565b61073a5760405162461bcd60e51b81526004016104fb9061200f565b600081815260056020526040902080546001600160a01b0319166001600160a01b0384169081179091558190610e63826108f1565b6001600160a01b03167f8c5be1e5ebec7d5bd14f71427d1e84f3dd0314c0f7b2291e5b200ac8c7c3b92560405160405180910390a45050565b600080610ea8836108f1565b9050806001600160a01b0316846001600160a01b03161480610ecf5750610ecf8185610ccf565b80610ef35750836001600160a01b0316610ee88461045f565b6001600160a01b0316145b949350505050565b826001600160a01b0316610f0e826108f1565b6001600160a01b031614610f345760405162461bcd60e51b81526004016104fb906120a1565b6001600160a01b038216610f965760405162461bcd60e51b8152602060048201526024808201527f4552433732313a207472616e7366657220746f20746865207a65726f206164646044820152637265737360e01b60648201526084016104fb565b610fa38383836001611472565b826001600160a01b0316610fb6826108f1565b6001600160a01b031614610fdc5760405162461bcd60e51b81526004016104fb906120a1565b600081815260056020908152604080832080546001600160a01b03199081169091556001600160a01b03878116808652600485528386208054600019019055908716808652838620805460010190558686526003909452828520805490921684179091559051849360008051602061225a83398151915291a4505050565b6000611065826108f1565b9050611075816000846001611472565b61107e826108f1565b600083815260056020908152604080832080546001600160a01b03199081169091556001600160a01b03851680855260048452828520805460001901905587855260039093528184208054909116905551929350849260008051602061225a833981519152908390a45050565b600054610100900460ff166111125760405162461bcd60e51b81526004016104fb906120e6565b8151611125906001906020850190611a4c565b50805161059c906002906020840190611a4c565b600054610100900460ff166111605760405162461bcd60e51b81526004016104fb906120e6565b600780546001600160a01b031916339081179091556040516000907fd4459d5b8b913cab0244230fd9b1c08b6ceace7fe9230e60d0f74cbffdf849d0908290a3565b6001600160a01b0382166111f85760405162461bcd60e51b815260206004820181905260248201527f4552433732313a206d696e7420746f20746865207a65726f206164647265737360448201526064016104fb565b61120181611455565b1561121e5760405162461bcd60e51b81526004016104fb90612131565b61122c600083836001611472565b61123581611455565b156112525760405162461bcd60e51b81526004016104fb90612131565b6001600160a01b038216600081815260046020908152604080832080546001019055848352600390915280822080546001600160a01b03191684179055518392919060008051602061225a833981519152908290a45050565b816001600160a01b0316836001600160a01b031614156113095760405162461bcd60e51b815260206004820152601960248201527822a9219b99189d1030b8383937bb32903a379031b0b63632b960391b60448201526064016104fb565b6001600160a01b03838116600081815260066020908152604080832094871680845294825291829020805460ff191686151590811790915591519182527f17307eab39ab6107e8899845ad3d59bd9653f200f220920489ca2b5937696c31910160405180910390a3505050565b611381848484610efb565b61138d8484848461150f565b610bd45760405162461bcd60e51b81526004016104fb90612168565b6060600d80546103dc90611e6c565b606060006113c58361161c565b600101905060008167ffffffffffffffff8111156113e5576113e5611c1e565b6040519080825280601f01601f19166020018201604052801561140f576020820181803683370190505b5090508181016020015b600019016f181899199a1a9b1b9c1cb0b131b232b360811b600a86061a8153600a85049450846114485761144d565b611419565b509392505050565b6000908152600360205260409020546001600160a01b0316151590565b61147e848484846116f4565b6001600160a01b0384161580159061149e57506001600160a01b03831615155b15610bd457600e546040516355bd513f60e01b8152600481018490526001600160a01b038581166024830152909116906355bd513f90604401600060405180830381600087803b1580156114f157600080fd5b505af1158015611505573d6000803e3d6000fd5b5050505050505050565b60006001600160a01b0384163b1561161157604051630a85bd0160e11b81526001600160a01b0385169063150b7a02906115539033908990889088906004016121ba565b602060405180830381600087803b15801561156d57600080fd5b505af192505050801561159d575060408051601f3d908101601f1916820190925261159a918101906121f7565b60015b6115f7573d8080156115cb576040519150601f19603f3d011682016040523d82523d6000602084013e6115d0565b606091505b5080516115ef5760405162461bcd60e51b81526004016104fb90612168565b805181602001fd5b6001600160e01b031916630a85bd0160e11b149050610ef3565b506001949350505050565b60008072184f03e93ff9f4daa797ed6e38ed64bf6a1f0160401b831061165b5772184f03e93ff9f4daa797ed6e38ed64bf6a1f0160401b830492506040015b6d04ee2d6d415b85acef81000000008310611687576d04ee2d6d415b85acef8100000000830492506020015b662386f26fc1000083106116a557662386f26fc10000830492506010015b6305f5e10083106116bd576305f5e100830492506008015b61271083106116d157612710830492506004015b606483106116e3576064830492506002015b600a83106103c75760010192915050565b61170084848484611834565b600181111561176f5760405162461bcd60e51b815260206004820152603560248201527f455243373231456e756d657261626c653a20636f6e7365637574697665207472604482015274185b9cd9995c9cc81b9bdd081cdd5c1c1bdc9d1959605a1b60648201526084016104fb565b816001600160a01b0385166117cb576117c681600b80546000838152600c60205260408120829055600182018355919091527f0175b7a638427703f0dbe7bb9bbf987a2551717b34e79f33b5b1008d1fa01db90155565b6117ee565b836001600160a01b0316856001600160a01b0316146117ee576117ee85826118bc565b6001600160a01b03841661180a5761180581611959565b61182d565b846001600160a01b0316846001600160a01b03161461182d5761182d8482611a08565b5050505050565b6001811115610bd4576001600160a01b0384161561187a576001600160a01b03841660009081526004602052604081208054839290611874908490612214565b90915550505b6001600160a01b03831615610bd4576001600160a01b038316600090815260046020526040812080548392906118b190849061222b565b909155505050505050565b600060016118c984610981565b6118d39190612214565b6000838152600a6020526040902054909150808214611926576001600160a01b03841660009081526009602090815260408083208584528252808320548484528184208190558352600a90915290208190555b506000918252600a602090815260408084208490556001600160a01b039094168352600981528383209183525290812055565b600b5460009061196b90600190612214565b6000838152600c6020526040812054600b805493945090928490811061199357611993611ff9565b9060005260206000200154905080600b83815481106119b4576119b4611ff9565b6000918252602080832090910192909255828152600c9091526040808220849055858252812055600b8054806119ec576119ec612243565b6001900381819060005260206000200160009055905550505050565b6000611a1383610981565b6001600160a01b0390931660009081526009602090815260408083208684528252808320859055938252600a9052919091209190915550565b828054611a5890611e6c565b90600052602060002090601f016020900481019282611a7a5760008555611ac0565b82601f10611a9357805160ff1916838001178555611ac0565b82800160010185558215611ac0579182015b82811115611ac0578251825591602001919060010190611aa5565b50611acc929150611ad0565b5090565b5b80821115611acc5760008155600101611ad1565b6001600160e01b03198116811461073a57600080fd5b600060208284031215611b0d57600080fd5b8135610c3a81611ae5565b60005b83811015611b33578181015183820152602001611b1b565b83811115610bd45750506000910152565b60008151808452611b5c816020860160208601611b18565b601f01601f19169290920160200192915050565b602081526000610c3a6020830184611b44565b600060208284031215611b9557600080fd5b5035919050565b6001600160a01b038116811461073a57600080fd5b60008060408385031215611bc457600080fd5b8235611bcf81611b9c565b946020939093013593505050565b600080600060608486031215611bf257600080fd5b8335611bfd81611b9c565b92506020840135611c0d81611b9c565b929592945050506040919091013590565b634e487b7160e01b600052604160045260246000fd5b600067ffffffffffffffff80841115611c4f57611c4f611c1e565b604051601f8501601f19908116603f01168101908282118183101715611c7757611c77611c1e565b81604052809350858152868686011115611c9057600080fd5b858560208301376000602087830101525050509392505050565b600082601f830112611cbb57600080fd5b610c3a83833560208501611c34565b600060208284031215611cdc57600080fd5b813567ffffffffffffffff811115611cf357600080fd5b610ef384828501611caa565b60008060408385031215611d1257600080fd5b823567ffffffffffffffff80821115611d2a57600080fd5b611d3686838701611caa565b93506020850135915080821115611d4c57600080fd5b50611d5985828601611caa565b9150509250929050565b600060208284031215611d7557600080fd5b8135610c3a81611b9c565b60008060408385031215611d9357600080fd5b8235611d9e81611b9c565b915060208301358015158114611db357600080fd5b809150509250929050565b60008060008060808587031215611dd457600080fd5b8435611ddf81611b9c565b93506020850135611def81611b9c565b925060408501359150606085013567ffffffffffffffff811115611e1257600080fd5b8501601f81018713611e2357600080fd5b611e3287823560208401611c34565b91505092959194509250565b60008060408385031215611e5157600080fd5b8235611e5c81611b9c565b91506020830135611db381611b9c565b600181811c90821680611e8057607f821691505b60208210811415611ea157634e487b7160e01b600052602260045260246000fd5b50919050565b6020808252602d908201527f4552433732313a2063616c6c6572206973206e6f7420746f6b656e206f776e6560408201526c1c881bdc88185c1c1c9bdd9959609a1b606082015260800190565b6020808252600c908201526b3737ba16b3b7bb32b93737b960a11b604082015260600190565b60408152600080845481600182811c915080831680611f3a57607f831692505b6020808410821415611f5a57634e487b7160e01b86526022600452602486fd5b6040880184905260608801828015611f795760018114611f8a57611fb5565b60ff19871682528282019750611fb5565b60008c81526020902060005b87811015611faf57815484820152908601908401611f96565b83019850505b5050878603818901525050505050611fcd8185611b44565b95945050505050565b60208082526009908201526806e6f742d65737673760bc1b604082015260600190565b634e487b7160e01b600052603260045260246000fd5b602080825260189082015277115490cdcc8c4e881a5b9d985b1a59081d1bdad95b88125160421b604082015260600190565b634e487b7160e01b600052601160045260246000fd5b600060001982141561206b5761206b612041565b5060010190565b60008351612084818460208801611b18565b835190830190612098818360208801611b18565b01949350505050565b60208082526025908201527f4552433732313a207472616e736665722066726f6d20696e636f72726563742060408201526437bbb732b960d91b606082015260800190565b6020808252602b908201527f496e697469616c697a61626c653a20636f6e7472616374206973206e6f74206960408201526a6e697469616c697a696e6760a81b606082015260800190565b6020808252601c908201527f4552433732313a20746f6b656e20616c7265616479206d696e74656400000000604082015260600190565b60208082526032908201527f4552433732313a207472616e7366657220746f206e6f6e20455243373231526560408201527131b2b4bb32b91034b6b83632b6b2b73a32b960711b606082015260800190565b6001600160a01b03858116825284166020820152604081018390526080606082018190526000906121ed90830184611b44565b9695505050505050565b60006020828403121561220957600080fd5b8151610c3a81611ae5565b60008282101561222657612226612041565b500390565b6000821982111561223e5761223e612041565b500190565b634e487b7160e01b600052603160045260246000fdfeddf252ad1be2c89b69c2b068fc378daa952ba7f163c4a11628f55a4df523b3efa264697066735822122062fe6e6e55cd188f9b1a832344a16c41e6ec72064a5c2ce10717dd1675caf37664736f6c63430008090033",
  "devdoc": {
    "kind": "dev",
    "methods": {
      "acceptGovernorship()": {
        "details": "Allows new governor to accept governorship of the contract."
      },
      "approve(address,uint256)": {
        "details": "See {IERC721-approve}."
      },
      "balanceOf(address)": {
        "details": "See {IERC721-balanceOf}."
      },
      "burn(uint256)": {
        "details": "Revert if caller isn't the esVSP",
        "params": {
          "tokenId_": "The id of the token to burn"
        }
      },
      "getApproved(uint256)": {
        "details": "See {IERC721-getApproved}."
      },
      "initializeESVSP(address)": {
        "details": "Called once"
      },
      "isApprovedForAll(address,address)": {
        "details": "See {IERC721-isApprovedForAll}."
      },
      "mint(address)": {
        "details": "Revert if caller isn't the esVSP",
        "params": {
          "to_": "The receiver account"
        }
      },
      "name()": {
        "details": "See {IERC721Metadata-name}."
      },
      "ownerOf(uint256)": {
        "details": "See {IERC721-ownerOf}."
      },
      "safeTransferFrom(address,address,uint256)": {
        "details": "See {IERC721-safeTransferFrom}."
      },
      "safeTransferFrom(address,address,uint256,bytes)": {
        "details": "See {IERC721-safeTransferFrom}."
      },
      "setApprovalForAll(address,bool)": {
        "details": "See {IERC721-setApprovalForAll}."
      },
      "supportsInterface(bytes4)": {
        "details": "See {IERC165-supportsInterface}."
      },
      "symbol()": {
        "details": "See {IERC721Metadata-symbol}."
      },
      "tokenByIndex(uint256)": {
        "details": "See {IERC721Enumerable-tokenByIndex}."
      },
      "tokenOfOwnerByIndex(address,uint256)": {
        "details": "See {IERC721Enumerable-tokenOfOwnerByIndex}."
      },
      "tokenURI(uint256)": {
        "details": "See {IERC721Metadata-tokenURI}."
      },
      "totalSupply()": {
        "details": "See {IERC721Enumerable-totalSupply}."
      },
      "transferFrom(address,address,uint256)": {
        "details": "See {IERC721-transferFrom}."
      },
      "transferGovernorship(address)": {
        "details": "Transfers governorship of the contract to a new account (`proposedGovernor`). Can only be called by the current owner."
      }
    },
    "version": 1
  },
  "userdoc": {
    "events": {
      "BaseTokenURIUpdated(string,string)": {
        "notice": "Emitted when `baseTokenURI` is updated"
      }
    },
    "kind": "user",
    "methods": {
      "baseTokenURI()": {
        "notice": "Base URI"
      },
      "burn(uint256)": {
        "notice": "Burn NFT"
      },
      "esVSP()": {
        "notice": "ESVSP contract"
      },
      "initializeESVSP(address)": {
        "notice": "Initialized esVSP contract"
      },
      "mint(address)": {
        "notice": "Mint NFT"
      },
      "nextTokenId()": {
        "notice": "Tracks the next token id to mint"
      },
      "setBaseTokenURI(string)": {
        "notice": "Update the base token URI"
      }
    },
    "version": 1
  },
  "storageLayout": {
    "storage": [
      {
        "astId": 3756,
        "contract": "contracts/ESVSP721.sol:ESVSP721",
        "label": "_initialized",
        "offset": 0,
        "slot": "0",
        "type": "t_uint8"
      },
      {
        "astId": 3759,
        "contract": "contracts/ESVSP721.sol:ESVSP721",
        "label": "_initializing",
        "offset": 1,
        "slot": "0",
        "type": "t_bool"
      },
      {
        "astId": 4421,
        "contract": "contracts/ESVSP721.sol:ESVSP721",
        "label": "_name",
        "offset": 0,
        "slot": "1",
        "type": "t_string_storage"
      },
      {
        "astId": 4423,
        "contract": "contracts/ESVSP721.sol:ESVSP721",
        "label": "_symbol",
        "offset": 0,
        "slot": "2",
        "type": "t_string_storage"
      },
      {
        "astId": 4427,
        "contract": "contracts/ESVSP721.sol:ESVSP721",
        "label": "_owners",
        "offset": 0,
        "slot": "3",
        "type": "t_mapping(t_uint256,t_address)"
      },
      {
        "astId": 4431,
        "contract": "contracts/ESVSP721.sol:ESVSP721",
        "label": "_balances",
        "offset": 0,
        "slot": "4",
        "type": "t_mapping(t_address,t_uint256)"
      },
      {
        "astId": 4435,
        "contract": "contracts/ESVSP721.sol:ESVSP721",
        "label": "_tokenApprovals",
        "offset": 0,
        "slot": "5",
        "type": "t_mapping(t_uint256,t_address)"
      },
      {
        "astId": 4441,
        "contract": "contracts/ESVSP721.sol:ESVSP721",
        "label": "_operatorApprovals",
        "offset": 0,
        "slot": "6",
        "type": "t_mapping(t_address,t_mapping(t_address,t_bool))"
      },
      {
        "astId": 2831,
        "contract": "contracts/ESVSP721.sol:ESVSP721",
        "label": "governor",
        "offset": 0,
        "slot": "7",
        "type": "t_address"
      },
      {
        "astId": 2833,
        "contract": "contracts/ESVSP721.sol:ESVSP721",
        "label": "proposedGovernor",
        "offset": 0,
        "slot": "8",
        "type": "t_address"
      },
      {
        "astId": 5491,
        "contract": "contracts/ESVSP721.sol:ESVSP721",
        "label": "_ownedTokens",
        "offset": 0,
        "slot": "9",
        "type": "t_mapping(t_address,t_mapping(t_uint256,t_uint256))"
      },
      {
        "astId": 5495,
        "contract": "contracts/ESVSP721.sol:ESVSP721",
        "label": "_ownedTokensIndex",
        "offset": 0,
        "slot": "10",
        "type": "t_mapping(t_uint256,t_uint256)"
      },
      {
        "astId": 5498,
        "contract": "contracts/ESVSP721.sol:ESVSP721",
        "label": "_allTokens",
        "offset": 0,
        "slot": "11",
        "type": "t_array(t_uint256)dyn_storage"
      },
      {
        "astId": 5502,
        "contract": "contracts/ESVSP721.sol:ESVSP721",
        "label": "_allTokensIndex",
        "offset": 0,
        "slot": "12",
        "type": "t_mapping(t_uint256,t_uint256)"
      },
      {
        "astId": 9118,
        "contract": "contracts/ESVSP721.sol:ESVSP721",
        "label": "baseTokenURI",
        "offset": 0,
        "slot": "13",
        "type": "t_string_storage"
      },
      {
        "astId": 9122,
        "contract": "contracts/ESVSP721.sol:ESVSP721",
        "label": "esVSP",
        "offset": 0,
        "slot": "14",
        "type": "t_contract(IESVSP)8993"
      },
      {
        "astId": 9125,
        "contract": "contracts/ESVSP721.sol:ESVSP721",
        "label": "nextTokenId",
        "offset": 0,
        "slot": "15",
        "type": "t_uint256"
      }
    ],
    "types": {
      "t_address": {
        "encoding": "inplace",
        "label": "address",
        "numberOfBytes": "20"
      },
      "t_array(t_uint256)dyn_storage": {
        "base": "t_uint256",
        "encoding": "dynamic_array",
        "label": "uint256[]",
        "numberOfBytes": "32"
      },
      "t_bool": {
        "encoding": "inplace",
        "label": "bool",
        "numberOfBytes": "1"
      },
      "t_contract(IESVSP)8993": {
        "encoding": "inplace",
        "label": "contract IESVSP",
        "numberOfBytes": "20"
      },
      "t_mapping(t_address,t_bool)": {
        "encoding": "mapping",
        "key": "t_address",
        "label": "mapping(address => bool)",
        "numberOfBytes": "32",
        "value": "t_bool"
      },
      "t_mapping(t_address,t_mapping(t_address,t_bool))": {
        "encoding": "mapping",
        "key": "t_address",
        "label": "mapping(address => mapping(address => bool))",
        "numberOfBytes": "32",
        "value": "t_mapping(t_address,t_bool)"
      },
      "t_mapping(t_address,t_mapping(t_uint256,t_uint256))": {
        "encoding": "mapping",
        "key": "t_address",
        "label": "mapping(address => mapping(uint256 => uint256))",
        "numberOfBytes": "32",
        "value": "t_mapping(t_uint256,t_uint256)"
      },
      "t_mapping(t_address,t_uint256)": {
        "encoding": "mapping",
        "key": "t_address",
        "label": "mapping(address => uint256)",
        "numberOfBytes": "32",
        "value": "t_uint256"
      },
      "t_mapping(t_uint256,t_address)": {
        "encoding": "mapping",
        "key": "t_uint256",
        "label": "mapping(uint256 => address)",
        "numberOfBytes": "32",
        "value": "t_address"
      },
      "t_mapping(t_uint256,t_uint256)": {
        "encoding": "mapping",
        "key": "t_uint256",
        "label": "mapping(uint256 => uint256)",
        "numberOfBytes": "32",
        "value": "t_uint256"
      },
      "t_string_storage": {
        "encoding": "bytes",
        "label": "string",
        "numberOfBytes": "32"
      },
      "t_uint256": {
        "encoding": "inplace",
        "label": "uint256",
        "numberOfBytes": "32"
      },
      "t_uint8": {
        "encoding": "inplace",
        "label": "uint8",
        "numberOfBytes": "1"
      }
    }
  }
}