{
  "address": "0x6a507c08574ea9FdfBD2FE55acf42ad9995aE54b",
  "abi": [
    {
      "anonymous": false,
      "inputs": [
        {
          "indexed": true,
          "internalType": "address",
          "name": "owner",
          "type": "address"
        },
        {
          "indexed": true,
          "internalType": "address",
          "name": "spender",
          "type": "address"
        },
        {
          "indexed": false,
          "internalType": "uint256",
          "name": "value",
          "type": "uint256"
        }
      ],
      "name": "Approval",
      "type": "event"
    },
    {
      "anonymous": false,
      "inputs": [
        {
          "indexed": true,
          "internalType": "address",
          "name": "delegator",
          "type": "address"
        },
        {
          "indexed": true,
          "internalType": "address",
          "name": "fromDelegate",
          "type": "address"
        },
        {
          "indexed": true,
          "internalType": "address",
          "name": "toDelegate",
          "type": "address"
        }
      ],
      "name": "DelegateChanged",
      "type": "event"
    },
    {
      "anonymous": false,
      "inputs": [
        {
          "indexed": true,
          "internalType": "address",
          "name": "delegate",
          "type": "address"
        },
        {
          "indexed": false,
          "internalType": "uint256",
          "name": "previousBalance",
          "type": "uint256"
        },
        {
          "indexed": false,
          "internalType": "uint256",
          "name": "newBalance",
          "type": "uint256"
        }
      ],
      "name": "DelegateVotesChanged",
      "type": "event"
    },
    {
      "anonymous": false,
      "inputs": [
        {
          "indexed": false,
          "internalType": "uint256",
          "name": "oldExitPenalty",
          "type": "uint256"
        },
        {
          "indexed": false,
          "internalType": "uint256",
          "name": "newExitPenalty",
          "type": "uint256"
        }
      ],
      "name": "ExitPenaltyUpdated",
      "type": "event"
    },
    {
      "anonymous": false,
      "inputs": [
        {
          "indexed": false,
          "internalType": "uint8",
          "name": "version",
          "type": "uint8"
        }
      ],
      "name": "Initialized",
      "type": "event"
    },
    {
      "anonymous": false,
      "inputs": [
        {
          "indexed": true,
          "internalType": "address",
          "name": "from",
          "type": "address"
        },
        {
          "indexed": true,
          "internalType": "address",
          "name": "to",
          "type": "address"
        },
        {
          "indexed": false,
          "internalType": "uint256",
          "name": "value",
          "type": "uint256"
        }
      ],
      "name": "Transfer",
      "type": "event"
    },
    {
      "anonymous": false,
      "inputs": [
        {
          "indexed": false,
          "internalType": "address",
          "name": "oldTreasury",
          "type": "address"
        },
        {
          "indexed": false,
          "internalType": "address",
          "name": "newTreasury",
          "type": "address"
        }
      ],
      "name": "TreasuryUpdated",
      "type": "event"
    },
    {
      "anonymous": false,
      "inputs": [
        {
          "indexed": true,
          "internalType": "address",
          "name": "previousGovernor",
          "type": "address"
        },
        {
          "indexed": true,
          "internalType": "address",
          "name": "proposedGovernor",
          "type": "address"
        }
      ],
      "name": "UpdatedGovernor",
      "type": "event"
    },
    {
      "anonymous": false,
      "inputs": [
        {
          "indexed": false,
          "internalType": "uint256",
          "name": "tokenId",
          "type": "uint256"
        },
        {
          "indexed": false,
          "internalType": "address",
          "name": "account",
          "type": "address"
        },
        {
          "indexed": false,
          "internalType": "uint256",
          "name": "amount",
          "type": "uint256"
        },
        {
          "indexed": false,
          "internalType": "uint256",
          "name": "lockPeriod",
          "type": "uint256"
        }
      ],
      "name": "VspLocked",
      "type": "event"
    },
    {
      "anonymous": false,
      "inputs": [
        {
          "indexed": false,
          "internalType": "uint256",
          "name": "tokenId",
          "type": "uint256"
        },
        {
          "indexed": false,
          "internalType": "uint256",
          "name": "amount",
          "type": "uint256"
        },
        {
          "indexed": false,
          "internalType": "uint256",
          "name": "unlocked",
          "type": "uint256"
        },
        {
          "indexed": false,
          "internalType": "uint256",
          "name": "penalty",
          "type": "uint256"
        }
      ],
      "name": "VspUnlocked",
      "type": "event"
    },
    {
      "inputs": [],
      "name": "COOL_DOWN_PERIOD",
      "outputs": [
        {
          "internalType": "uint256",
          "name": "",
          "type": "uint256"
        }
      ],
      "stateMutability": "view",
      "type": "function"
    },
    {
      "inputs": [],
      "name": "MAXIMUM_BOOST",
      "outputs": [
        {
          "internalType": "uint256",
          "name": "",
          "type": "uint256"
        }
      ],
      "stateMutability": "view",
      "type": "function"
    },
    {
      "inputs": [],
      "name": "MAXIMUM_LOCK_PERIOD",
      "outputs": [
        {
          "internalType": "uint256",
          "name": "",
          "type": "uint256"
        }
      ],
      "stateMutability": "view",
      "type": "function"
    },
    {
      "inputs": [],
      "name": "MINIMUM_LOCK_PERIOD",
      "outputs": [
        {
          "internalType": "uint256",
          "name": "",
          "type": "uint256"
        }
      ],
      "stateMutability": "view",
      "type": "function"
    },
    {
      "inputs": [],
      "name": "VERSION",
      "outputs": [
        {
          "internalType": "string",
          "name": "",
          "type": "string"
        }
      ],
      "stateMutability": "view",
      "type": "function"
    },
    {
      "inputs": [],
      "name": "VSP",
      "outputs": [
        {
          "internalType": "contract IVSP",
          "name": "",
          "type": "address"
        }
      ],
      "stateMutability": "view",
      "type": "function"
    },
    {
      "inputs": [],
      "name": "acceptGovernorship",
      "outputs": [],
      "stateMutability": "nonpayable",
      "type": "function"
    },
    {
      "inputs": [
        {
          "internalType": "address",
          "name": "",
          "type": "address"
        },
        {
          "internalType": "address",
          "name": "",
          "type": "address"
        }
      ],
      "name": "allowance",
      "outputs": [
        {
          "internalType": "uint256",
          "name": "",
          "type": "uint256"
        }
      ],
      "stateMutability": "view",
      "type": "function"
    },
    {
      "inputs": [
        {
          "internalType": "address",
          "name": "",
          "type": "address"
        },
        {
          "internalType": "uint256",
          "name": "",
          "type": "uint256"
        }
      ],
      "name": "approve",
      "outputs": [
        {
          "internalType": "bool",
          "name": "",
          "type": "bool"
        }
      ],
      "stateMutability": "nonpayable",
      "type": "function"
    },
    {
      "inputs": [
        {
          "internalType": "address",
          "name": "account_",
          "type": "address"
        }
      ],
      "name": "balanceOf",
      "outputs": [
        {
          "internalType": "uint256",
          "name": "",
          "type": "uint256"
        }
      ],
      "stateMutability": "view",
      "type": "function"
    },
    {
      "inputs": [
        {
          "internalType": "address",
          "name": "",
          "type": "address"
        }
      ],
      "name": "boosted",
      "outputs": [
        {
          "internalType": "uint256",
          "name": "",
          "type": "uint256"
        }
      ],
      "stateMutability": "view",
      "type": "function"
    },
    {
      "inputs": [
        {
          "internalType": "uint256",
          "name": "tokenId_",
          "type": "uint256"
        }
      ],
      "name": "calculateExitPenalty",
      "outputs": [
        {
          "internalType": "uint256",
          "name": "_penalty",
          "type": "uint256"
        }
      ],
      "stateMutability": "view",
      "type": "function"
    },
    {
      "inputs": [
        {
          "internalType": "address",
          "name": "account",
          "type": "address"
        },
        {
          "internalType": "uint32",
          "name": "pos",
          "type": "uint32"
        }
      ],
      "name": "checkpoints",
      "outputs": [
        {
          "components": [
            {
              "internalType": "uint32",
              "name": "fromBlock",
              "type": "uint32"
            },
            {
              "internalType": "uint256",
              "name": "votes",
              "type": "uint256"
            }
          ],
          "internalType": "struct ESVSPStorageV1.Checkpoint",
          "name": "",
          "type": "tuple"
        }
      ],
      "stateMutability": "view",
      "type": "function"
    },
    {
      "inputs": [],
      "name": "decimals",
      "outputs": [
        {
          "internalType": "uint8",
          "name": "",
          "type": "uint8"
        }
      ],
      "stateMutability": "view",
      "type": "function"
    },
    {
      "inputs": [
        {
          "internalType": "address",
          "name": "",
          "type": "address"
        },
        {
          "internalType": "uint256",
          "name": "",
          "type": "uint256"
        }
      ],
      "name": "decreaseAllowance",
      "outputs": [
        {
          "internalType": "bool",
          "name": "",
          "type": "bool"
        }
      ],
      "stateMutability": "nonpayable",
      "type": "function"
    },
    {
      "inputs": [
        {
          "internalType": "address",
          "name": "delegatee",
          "type": "address"
        }
      ],
      "name": "delegate",
      "outputs": [],
      "stateMutability": "nonpayable",
      "type": "function"
    },
    {
      "inputs": [
        {
          "internalType": "address",
          "name": "delegatee",
          "type": "address"
        },
        {
          "internalType": "uint256",
          "name": "nonce",
          "type": "uint256"
        },
        {
          "internalType": "uint256",
          "name": "expiry",
          "type": "uint256"
        },
        {
          "internalType": "uint8",
          "name": "v",
          "type": "uint8"
        },
        {
          "internalType": "bytes32",
          "name": "r",
          "type": "bytes32"
        },
        {
          "internalType": "bytes32",
          "name": "s",
          "type": "bytes32"
        }
      ],
      "name": "delegateBySig",
      "outputs": [],
      "stateMutability": "nonpayable",
      "type": "function"
    },
    {
      "inputs": [
        {
          "internalType": "address",
          "name": "account",
          "type": "address"
        }
      ],
      "name": "delegates",
      "outputs": [
        {
          "internalType": "address",
          "name": "",
          "type": "address"
        }
      ],
      "stateMutability": "view",
      "type": "function"
    },
    {
      "inputs": [],
      "name": "esVSP721",
      "outputs": [
        {
          "internalType": "contract IESVSP721",
          "name": "",
          "type": "address"
        }
      ],
      "stateMutability": "view",
      "type": "function"
    },
    {
      "inputs": [],
      "name": "exitPenalty",
      "outputs": [
        {
          "internalType": "uint256",
          "name": "",
          "type": "uint256"
        }
      ],
      "stateMutability": "view",
      "type": "function"
    },
    {
      "inputs": [
        {
          "internalType": "uint256",
          "name": "tokenId_",
          "type": "uint256"
        }
      ],
      "name": "getLockedPeriodOf",
      "outputs": [
        {
          "internalType": "uint256",
          "name": "_lockPeriod",
          "type": "uint256"
        }
      ],
      "stateMutability": "view",
      "type": "function"
    },
    {
      "inputs": [
        {
          "internalType": "uint256",
          "name": "blockNumber",
          "type": "uint256"
        }
      ],
      "name": "getPastTotalSupply",
      "outputs": [
        {
          "internalType": "uint256",
          "name": "",
          "type": "uint256"
        }
      ],
      "stateMutability": "view",
      "type": "function"
    },
    {
      "inputs": [
        {
          "internalType": "address",
          "name": "account",
          "type": "address"
        },
        {
          "internalType": "uint256",
          "name": "blockNumber",
          "type": "uint256"
        }
      ],
      "name": "getPastVotes",
      "outputs": [
        {
          "internalType": "uint256",
          "name": "",
          "type": "uint256"
        }
      ],
      "stateMutability": "view",
      "type": "function"
    },
    {
      "inputs": [
        {
          "internalType": "address",
          "name": "account",
          "type": "address"
        }
      ],
      "name": "getVotes",
      "outputs": [
        {
          "internalType": "uint256",
          "name": "",
          "type": "uint256"
        }
      ],
      "stateMutability": "view",
      "type": "function"
    },
    {
      "inputs": [],
      "name": "governor",
      "outputs": [
        {
          "internalType": "address",
          "name": "",
          "type": "address"
        }
      ],
      "stateMutability": "view",
      "type": "function"
    },
    {
      "inputs": [
        {
          "internalType": "address",
          "name": "",
          "type": "address"
        },
        {
          "internalType": "uint256",
          "name": "",
          "type": "uint256"
        }
      ],
      "name": "increaseAllowance",
      "outputs": [
        {
          "internalType": "bool",
          "name": "",
          "type": "bool"
        }
      ],
      "stateMutability": "nonpayable",
      "type": "function"
    },
    {
      "inputs": [
        {
          "internalType": "string",
          "name": "name_",
          "type": "string"
        },
        {
          "internalType": "string",
          "name": "symbol_",
          "type": "string"
        },
        {
          "internalType": "uint8",
          "name": "decimals_",
          "type": "uint8"
        },
        {
          "internalType": "contract IESVSP721",
          "name": "esVSP721_",
          "type": "address"
        },
        {
          "internalType": "address",
          "name": "treasury_",
          "type": "address"
        }
      ],
      "name": "initialize",
      "outputs": [],
      "stateMutability": "nonpayable",
      "type": "function"
    },
    {
      "inputs": [
        {
          "internalType": "contract IRewards",
          "name": "rewards_",
          "type": "address"
        }
      ],
      "name": "initializeRewards",
      "outputs": [],
      "stateMutability": "nonpayable",
      "type": "function"
    },
    {
      "inputs": [
        {
          "internalType": "uint256",
          "name": "tokenId_",
          "type": "uint256"
        }
      ],
      "name": "kick",
      "outputs": [],
      "stateMutability": "nonpayable",
      "type": "function"
    },
    {
      "inputs": [
        {
          "internalType": "address",
          "name": "account_",
          "type": "address"
        }
      ],
      "name": "kickAllExpiredOf",
      "outputs": [],
      "stateMutability": "nonpayable",
      "type": "function"
    },
    {
      "inputs": [
        {
          "internalType": "uint256",
          "name": "amount_",
          "type": "uint256"
        },
        {
          "internalType": "uint256",
          "name": "lockPeriod_",
          "type": "uint256"
        }
      ],
      "name": "lock",
      "outputs": [],
      "stateMutability": "nonpayable",
      "type": "function"
    },
    {
      "inputs": [
        {
          "internalType": "address",
          "name": "to_",
          "type": "address"
        },
        {
          "internalType": "uint256",
          "name": "amount_",
          "type": "uint256"
        },
        {
          "internalType": "uint256",
          "name": "lockPeriod_",
          "type": "uint256"
        }
      ],
      "name": "lockFor",
      "outputs": [],
      "stateMutability": "nonpayable",
      "type": "function"
    },
    {
      "inputs": [
        {
          "internalType": "address",
          "name": "",
          "type": "address"
        }
      ],
      "name": "locked",
      "outputs": [
        {
          "internalType": "uint256",
          "name": "",
          "type": "uint256"
        }
      ],
      "stateMutability": "view",
      "type": "function"
    },
    {
      "inputs": [],
      "name": "name",
      "outputs": [
        {
          "internalType": "string",
          "name": "",
          "type": "string"
        }
      ],
      "stateMutability": "view",
      "type": "function"
    },
    {
      "inputs": [
        {
          "internalType": "address",
          "name": "",
          "type": "address"
        }
      ],
      "name": "nonces",
      "outputs": [
        {
          "internalType": "uint256",
          "name": "",
          "type": "uint256"
        }
      ],
      "stateMutability": "view",
      "type": "function"
    },
    {
      "inputs": [
        {
          "internalType": "address",
          "name": "account",
          "type": "address"
        }
      ],
      "name": "numCheckpoints",
      "outputs": [
        {
          "internalType": "uint32",
          "name": "",
          "type": "uint32"
        }
      ],
      "stateMutability": "view",
      "type": "function"
    },
    {
      "inputs": [
        {
          "internalType": "uint256",
          "name": "",
          "type": "uint256"
        }
      ],
      "name": "positions",
      "outputs": [
        {
          "internalType": "uint256",
          "name": "lockedAmount",
          "type": "uint256"
        },
        {
          "internalType": "uint256",
          "name": "boostedAmount",
          "type": "uint256"
        },
        {
          "internalType": "uint256",
          "name": "unlockTime",
          "type": "uint256"
        }
      ],
      "stateMutability": "view",
      "type": "function"
    },
    {
      "inputs": [],
      "name": "proposedGovernor",
      "outputs": [
        {
          "internalType": "address",
          "name": "",
          "type": "address"
        }
      ],
      "stateMutability": "view",
      "type": "function"
    },
    {
      "inputs": [],
      "name": "rewards",
      "outputs": [
        {
          "internalType": "contract IRewards",
          "name": "",
          "type": "address"
        }
      ],
      "stateMutability": "view",
      "type": "function"
    },
    {
      "inputs": [],
      "name": "symbol",
      "outputs": [
        {
          "internalType": "string",
          "name": "",
          "type": "string"
        }
      ],
      "stateMutability": "view",
      "type": "function"
    },
    {
      "inputs": [],
      "name": "totalBoosted",
      "outputs": [
        {
          "internalType": "uint256",
          "name": "",
          "type": "uint256"
        }
      ],
      "stateMutability": "view",
      "type": "function"
    },
    {
      "inputs": [],
      "name": "totalLocked",
      "outputs": [
        {
          "internalType": "uint256",
          "name": "",
          "type": "uint256"
        }
      ],
      "stateMutability": "view",
      "type": "function"
    },
    {
      "inputs": [],
      "name": "totalSupply",
      "outputs": [
        {
          "internalType": "uint256",
          "name": "",
          "type": "uint256"
        }
      ],
      "stateMutability": "view",
      "type": "function"
    },
    {
      "inputs": [
        {
          "internalType": "address",
          "name": "",
          "type": "address"
        },
        {
          "internalType": "uint256",
          "name": "",
          "type": "uint256"
        }
      ],
      "name": "transfer",
      "outputs": [
        {
          "internalType": "bool",
          "name": "",
          "type": "bool"
        }
      ],
      "stateMutability": "nonpayable",
      "type": "function"
    },
    {
      "inputs": [
        {
          "internalType": "address",
          "name": "",
          "type": "address"
        },
        {
          "internalType": "address",
          "name": "",
          "type": "address"
        },
        {
          "internalType": "uint256",
          "name": "",
          "type": "uint256"
        }
      ],
      "name": "transferFrom",
      "outputs": [
        {
          "internalType": "bool",
          "name": "",
          "type": "bool"
        }
      ],
      "stateMutability": "nonpayable",
      "type": "function"
    },
    {
      "inputs": [
        {
          "internalType": "address",
          "name": "_proposedGovernor",
          "type": "address"
        }
      ],
      "name": "transferGovernorship",
      "outputs": [],
      "stateMutability": "nonpayable",
      "type": "function"
    },
    {
      "inputs": [
        {
          "internalType": "uint256",
          "name": "tokenId_",
          "type": "uint256"
        },
        {
          "internalType": "address",
          "name": "to_",
          "type": "address"
        }
      ],
      "name": "transferPosition",
      "outputs": [],
      "stateMutability": "nonpayable",
      "type": "function"
    },
    {
      "inputs": [],
      "name": "treasury",
      "outputs": [
        {
          "internalType": "address",
          "name": "",
          "type": "address"
        }
      ],
      "stateMutability": "view",
      "type": "function"
    },
    {
      "inputs": [
        {
          "internalType": "uint256",
          "name": "tokenId_",
          "type": "uint256"
        },
        {
          "internalType": "bool",
          "name": "beforeUnlockTime_",
          "type": "bool"
        }
      ],
      "name": "unlock",
      "outputs": [],
      "stateMutability": "nonpayable",
      "type": "function"
    },
    {
      "inputs": [
        {
          "internalType": "uint256",
          "name": "exitPenalty_",
          "type": "uint256"
        }
      ],
      "name": "updateExitPenalty",
      "outputs": [],
      "stateMutability": "nonpayable",
      "type": "function"
    },
    {
      "inputs": [
        {
          "internalType": "address",
          "name": "treasury_",
          "type": "address"
        }
      ],
      "name": "updateTreasury",
      "outputs": [],
      "stateMutability": "nonpayable",
      "type": "function"
    }
  ],
  "transactionHash": "0xf643902f86d14b24eed924fc487bba344b6cd30f4a56197fe071737e79d8cfd8",
  "args": [],
  "numDeployments": 1,
  "solcInputHash": "7f37f03f0bc33d73c73e9428bb0a0c84",
  "bytecode": "0x608060405234801561001057600080fd5b506001600055613407806100256000396000f3fe608060405234801561001057600080fd5b50600436106102c15760003560e01c80637f51bb1f1161017d578063a457c2d7116100d9578063ce0cf1a511610092578063ce0cf1a51461067e578063d8de0c4e14610691578063dd62ed3e146106a4578063e361ad1a146106b2578063f1127ed8146106c5578063f3b27bc3146106f9578063ffa1ad741461070157600080fd5b8063a457c2d7146103ed578063a9059cbb14610617578063b6aa515b14610625578063c3cda52014610638578063c820f1461461064b578063cbf9fe5f1461065e57600080fd5b80638e539e8c116101365780638e539e8c1461056f57806395d89b411461058257806399fbab881461058a5780639ab24eb0146105d45780639cf6db9f146105e75780639ec5a894146105fa578063a059b2971461060d57600080fd5b80637f51bb1f146104f85780637faf90571461050b57806383e0c6b21461051657806383e25f8a146105365780638a11a370146105495780638e0b01981461055c57600080fd5b806335faf3891161022c5780635c19a95c116101e55780635c19a95c1461045b57806361d027b31461046e578063631516c2146104815780636b41674c1461048a5780636fcfff451461049d57806370a08231146104c55780637ecebe00146104d857600080fd5b806335faf389146103d257806339509351146103ed5780633a46b1a81461040057806355bd513f146104135780635689141214610426578063587cde1e1461042f57600080fd5b80631bff60981161027e5780631bff60981461036b57806321a405891461037357806323b872dd1461037d578063240581d4146103905780632669e8ea146103a3578063313ce567146103ac57600080fd5b806306fdde03146102c6578063095ea7b3146102e45780630c340a24146103075780631338736f1461032d57806318160ddd146103425780631a225bb414610358575b600080fd5b6102ce610725565b6040516102db9190612d55565b60405180910390f35b6102f76102f2366004612d9d565b6107b3565b60405190151581526020016102db565b600154610320906201000090046001600160a01b031681565b6040516102db9190612dc9565b61034061033b366004612ddd565b6107fc565b005b61034a610828565b6040519081526020016102db565b610340610366366004612dff565b61083f565b61034a600481565b61034a62093a8081565b6102f761038b366004612e1c565b610866565b61034061039e366004612dff565b6108aa565b61034a600a5481565b6002546103c090600160a01b900460ff1681565b60405160ff90911681526020016102db565b610320731b40183efb4dd766f11bda7a7c3ad8982e99842181565b6102f76103fb366004612d9d565b610994565b61034a61040e366004612d9d565b6109d9565b610340610421366004612e5d565b610a23565b61034a60085481565b61032061043d366004612dff565b6001600160a01b039081166000908152600e60205260409020541690565b610340610469366004612dff565b610c6b565b600554610320906001600160a01b031681565b61034a60095481565b610340610498366004612e9b565b610c75565b6104b06104ab366004612dff565b610c9b565b60405163ffffffff90911681526020016102db565b61034a6104d3366004612dff565b610cc3565b61034a6104e6366004612dff565b60116020526000908152604090205481565b610340610506366004612dff565b610cf1565b61034a6303c2670081565b61034a610524366004612dff565b600d6020526000908152604090205481565b610340610544366004612ec0565b610e2e565b600254610320906001600160a01b031681565b61034061056a366004612ef5565b610e59565b61034a61057d366004612ef5565b610f61565b6102ce610f8d565b6105b9610598366004612ef5565b600b6020526000908152604090208054600182015460029092015490919083565b604080519384526020840192909252908201526060016102db565b61034a6105e2366004612dff565b610f9a565b61034a6105f5366004612ef5565b61100c565b600754610320906001600160a01b031681565b61034a6201518081565b6102f761038b366004612d9d565b610340610633366004612dff565b611046565b610340610646366004612f24565b6110eb565b610340610659366004613021565b6113e7565b61034a61066c366004612dff565b600c6020526000908152604090205481565b61034061068c366004612ef5565b61166f565b600654610320906001600160a01b031681565b61034a6103fb3660046130bd565b61034a6106c0366004612ef5565b611714565b6106d86106d33660046130eb565b61175d565b60408051825163ffffffff16815260209283015192810192909252016102db565b6103406117d9565b6102ce604051806040016040528060058152602001640312e302e360dc1b81525081565b6003805461073290613122565b80601f016020809104026020016040519081016040528092919081815260200182805461075e90613122565b80156107ab5780601f10610780576101008083540402835291602001916107ab565b820191906000526020600020905b81548152906001019060200180831161078e57829003601f168201915b505050505081565b60405162461bcd60e51b8152602060048201526016602482015275185c1c1c9bdd985b0b5b9bdd0b5cdd5c1c1bdc9d195960521b60448201526000906064015b60405180910390fd5b6108046118a9565b3361080e81611903565b610819818484611979565b506108246001600055565b5050565b600060085460095461083a919061316d565b905090565b6108476118a9565b61085081611903565b61085981611dd7565b6108636001600055565b50565b60405162461bcd60e51b81526020600482015260166024820152751d1c985b9cd9995c8b5b9bdd0b5cdd5c1c1bdc9d195960521b60448201526000906064016107f3565b6001546001600160a01b03620100009091041633146108db5760405162461bcd60e51b81526004016107f390613185565b6007546001600160a01b03161561092a5760405162461bcd60e51b8152602060048201526013602482015272185b1c9958591e4b5a5b9a5d1a585b1a5e9959606a1b60448201526064016107f3565b6001600160a01b0381166109725760405162461bcd60e51b815260206004820152600f60248201526e1859191c995cdccb5a5ccb5b9d5b1b608a1b60448201526064016107f3565b600780546001600160a01b0319166001600160a01b0392909216919091179055565b60405162461bcd60e51b8152602060048201526017602482015276185b1b1bddd85b98d94b5b9bdd0b5cdd5c1c1bdc9d1959604a1b60448201526000906064016107f3565b60004382106109fa5760405162461bcd60e51b81526004016107f3906131ab565b6001600160a01b0383166000908152600f60205260409020610a1c9083611f36565b9392505050565b6006546001600160a01b0316336001600160a01b031614610a755760405162461bcd60e51b815260206004820152600c60248201526b6e6f742d657376737037323160a01b60448201526064016107f3565b6006546040516331a9108f60e11b8152600481018490526000916001600160a01b031690636352211e9060240160206040518083038186803b158015610aba57600080fd5b505afa158015610ace573d6000803e3d6000fd5b505050506040513d601f19601f82011682018060405250810190610af291906131e2565b9050610afd81611903565b610b0682611903565b6000838152600b60209081526040808320815160608101835281548082526001830154828601819052600290930154828501526001600160a01b0387168652600c909452918420805492949192849290610b619084906131ff565b90915550506001600160a01b0384166000908152600d602052604081208054839290610b8e9084906131ff565b90915550506001600160a01b0385166000908152600c602052604081208054849290610bbb90849061316d565b90915550506001600160a01b0385166000908152600d602052604081208054839290610be890849061316d565b90915550506001600160a01b038085166000908152600e6020526040808220548884168352912054610c28929182169116610c23848661316d565b611fe4565b846001600160a01b0316846001600160a01b03166000805160206133b283398151915283604051610c5b91815260200190565b60405180910390a3505050505050565b6108633382612121565b610c7d6118a9565b610c8633611903565b610c9182821561218e565b6108246001600055565b6001600160a01b0381166000908152600f6020526040812054610cbd90612265565b92915050565b6001600160a01b0381166000908152600d6020908152604080832054600c909252822054610cbd919061316d565b6001546001600160a01b0362010000909104163314610d225760405162461bcd60e51b81526004016107f390613185565b6001600160a01b038116610d675760405162461bcd60e51b815260206004820152600c60248201526b1859191c995cdccb5b9d5b1b60a21b60448201526064016107f3565b6005546001600160a01b0382811691161415610dc55760405162461bcd60e51b815260206004820152601a60248201527f616464726573732d69732d73616d652d61732d63757272656e7400000000000060448201526064016107f3565b600554604080516001600160a01b03928316815291831660208301527f4ab5be82436d353e61ca18726e984e561f5c1cc7c6d38b29d2553c790434705a910160405180910390a1600580546001600160a01b0319166001600160a01b0392909216919091179055565b610e366118a9565b610e3f83611903565b610e4a838383611979565b610e546001600055565b505050565b6001546001600160a01b0362010000909104163314610e8a5760405162461bcd60e51b81526004016107f390613185565b670de0b6b3a7640000811115610ed55760405162461bcd60e51b815260206004820152601060248201526f657869742d6665652d67742d3130302560801b60448201526064016107f3565b600a54811415610f205760405162461bcd60e51b81526020600482015260166024820152751999594b5a5ccb5cd85b594b585ccb58dd5c9c995b9d60521b60448201526064016107f3565b600a5460408051918252602082018390527f40a1b57526b8108990c3b8bdc1a76477678cc96d824146b9af3f9799bb3d50a1910160405180910390a1600a55565b6000438210610f825760405162461bcd60e51b81526004016107f3906131ab565b610cbd601083611f36565b6004805461073290613122565b6001600160a01b0381166000908152600f60205260408120548015611003576001600160a01b0383166000908152600f60205260409020610fdc6001836131ff565b81548110610fec57610fec613216565b906000526020600020906002020160010154610a1c565b60009392505050565b6000818152600b602090815260408083208151606081018352815481526001820154938101939093526002015490820152610cbd906122ce565b6001546001600160a01b03620100009091041633146110775760405162461bcd60e51b81526004016107f390613185565b6001600160a01b0381166110c95760405162461bcd60e51b815260206004820152601960248201527870726f706f7365642d676f7665726e6f722d69732d7a65726f60381b60448201526064016107f3565b600280546001600160a01b0319166001600160a01b0392909216919091179055565b60007f8b73c3c69bb8fe3d512ecc4cf759cc79239f7b179b0ffacaa9a75d522b39400f600360405161111d919061322c565b60408051918290038220828201825260018352603160f81b602093840152815180840194909452838201527fc89efdaa54c0f20c7adf612882df0950f5a951637e0307cdcb4c672f298b8bc660608401524660808401523060a0808501919091528151808503909101815260c08401909152805191012091506000906111cd907fe48329057bfd03d55e49b547132e39cffd9c1820ad7b9d4c5307691425d15adf908a908a908a9060e0016132c8565b6040516020818303038152906040528051906020012090506000828260405160200161121092919061190160f01b81526002810192909252602282015260420190565b60408051601f198184030181528282528051602091820120600080855291840180845281905260ff8a169284019290925260608301889052608083018790529092509060019060a0016020604051602081039080840390855afa15801561127b573d6000803e3d6000fd5b5050604051601f1901519150506001600160a01b0381166112ee5760405162461bcd60e51b815260206004820152602760248201527f45535653503a3a64656c656761746542795369673a20696e76616c6964207369604482015266676e617475726560c81b60648201526084016107f3565b6001600160a01b0381166000908152601160205260408120805491611312836132ec565b9190505589146113705760405162461bcd60e51b815260206004820152602360248201527f45535653503a3a64656c656761746542795369673a20696e76616c6964206e6f6044820152626e636560e81b60648201526084016107f3565b874211156113d05760405162461bcd60e51b815260206004820152602760248201527f45535653503a3a64656c656761746542795369673a207369676e617475726520604482015266195e1c1a5c995960ca1b60648201526084016107f3565b6113da818b612121565b505050505b505050505050565b600154610100900460ff161580801561140457506001805460ff16105b8061141d5750303b15801561141d57506001805460ff16145b6114805760405162461bcd60e51b815260206004820152602e60248201527f496e697469616c697a61626c653a20636f6e747261637420697320616c72656160448201526d191e481a5b9a5d1a585b1a5e995960921b60648201526084016107f3565b6001805460ff19168117905580156114a2576001805461ff0019166101001790555b6001600160a01b0383166114eb5760405162461bcd60e51b815260206004820152601060248201526f195cd594d40dcc8c4b5a5ccb5b9d5b1b60821b60448201526064016107f3565b6001600160a01b0382166115345760405162461bcd60e51b815260206004820152601060248201526f1d1c99585cdd5c9e4b5a5ccb5b9d5b1b60821b60448201526064016107f3565b61153c6122ff565b855161154f906003906020890190612c99565b508451611563906004906020880190612c99565b506002805460ff8616600160a01b0260ff60a01b19909116179055600680546001600160a01b038086166001600160a01b0319928316179092556706f05b59d3b20000600a5560058054928516929091169190911790556040516317066a5760e21b8152731b40183efb4dd766f11bda7a7c3ad8982e99842190635c19a95c906115f1903090600401612dc9565b600060405180830381600087803b15801561160b57600080fd5b505af115801561161f573d6000803e3d6000fd5b5050505080156113df576001805461ff00191681556040519081527f7f26b83ff96e1f2b6a682f133852f6798a09c465da95921460cefb38474024989060200160405180910390a1505050505050565b6116776118a9565b6006546040516331a9108f60e11b8152600481018390526000916001600160a01b031690636352211e9060240160206040518083038186803b1580156116bc57600080fd5b505afa1580156116d0573d6000803e3d6000fd5b505050506040513d601f19601f820116820180604052508101906116f491906131e2565b90506116ff81611903565b61170982826123c4565b506108636001600055565b6000818152600b602090815260408083208151606081018352815481526001820154938101939093526002015490820181905242101561175757610a1c816123d0565b50919050565b60408051808201909152600080825260208201526001600160a01b0383166000908152600f60205260409020805463ffffffff84169081106117a1576117a1613216565b600091825260209182902060408051808201909152600290920201805463ffffffff1682526001015491810191909152905092915050565b6002546001600160a01b0316331461182f5760405162461bcd60e51b81526020600482015260196024820152783737ba16ba343296b83937b837b9b2b216b3b7bb32b93737b960391b60448201526064016107f3565b6002546001546040516001600160a01b039283169262010000909204909116907fd4459d5b8b913cab0244230fd9b1c08b6ceace7fe9230e60d0f74cbffdf849d090600090a3600280546001805462010000600160b01b0319166001600160a01b03831662010000021790556001600160a01b0319169055565b600260005414156118fc5760405162461bcd60e51b815260206004820152601f60248201527f5265656e7472616e637947756172643a207265656e7472616e742063616c6c0060448201526064016107f3565b6002600055565b6007546001600160a01b0316156108635760075460405163632447c960e01b81526001600160a01b039091169063632447c990611944908490600401612dc9565b600060405180830381600087803b15801561195e57600080fd5b505af1158015611972573d6000803e3d6000fd5b5050505050565b600082116119ba5760405162461bcd60e51b815260206004820152600e60248201526d616d6f756e742d69732d7a65726f60901b60448201526064016107f3565b62093a808111611a055760405162461bcd60e51b81526020600482015260166024820152756c6f636b2d706572696f642d6c742d6d696e696d756d60501b60448201526064016107f3565b6303c26700811115611a525760405162461bcd60e51b81526020600482015260166024820152756c6f636b2d706572696f642d67742d6d6178696d756d60501b60448201526064016107f3565b6040516370a0823160e01b8152600090731b40183efb4dd766f11bda7a7c3ad8982e998421906370a0823190611a8c903090600401612dc9565b60206040518083038186803b158015611aa457600080fd5b505afa158015611ab8573d6000803e3d6000fd5b505050506040513d601f19601f82011682018060405250810190611adc9190613307565b9050611afe731b40183efb4dd766f11bda7a7c3ad8982e99842133308661244d565b6040516370a0823160e01b81526000908290731b40183efb4dd766f11bda7a7c3ad8982e998421906370a0823190611b3a903090600401612dc9565b60206040518083038186803b158015611b5257600080fd5b505afa158015611b66573d6000803e3d6000fd5b505050506040513d601f19601f82011682018060405250810190611b8a9190613307565b611b9491906131ff565b905060006303c267006004611ba98685613320565b611bb39190613320565b611bbd919061333f565b6001600160a01b0387166000908152600c6020526040812080549293508492909190611bea90849061316d565b90915550506001600160a01b0386166000908152600d602052604081208054839290611c1790849061316d565b925050819055508160086000828254611c30919061316d565b925050819055508060096000828254611c49919061316d565b9091555060009050611c5b828461316d565b9050611c6b60106124be836124ca565b50506001600160a01b038088166000908152600e6020526040812054611c92921683611fe4565b6006546040516335313c2160e11b81526000916001600160a01b031690636a62784290611cc3908b90600401612dc9565b602060405180830381600087803b158015611cdd57600080fd5b505af1158015611cf1573d6000803e3d6000fd5b505050506040513d601f19601f82011682018060405250810190611d159190613307565b905060405180606001604052808581526020018481526020018742611d3a919061316d565b90526000828152600b60209081526040808320845181558483015160018201559381015160029094019390935591518581526001600160a01b038b16926000805160206133b2833981519152910160405180910390a37faa9ebde20f0514c177b5333c75b05a899f29679313ee2851ee0b7fe9aee727b281898989604051611dc594939291906132c8565b60405180910390a15050505050505050565b6006546040516370a0823160e01b81526000916001600160a01b0316906370a0823190611e08908590600401612dc9565b60206040518083038186803b158015611e2057600080fd5b505afa158015611e34573d6000803e3d6000fd5b505050506040513d601f19601f82011682018060405250810190611e589190613307565b905060005b81811015610e5457600654604051632f745c5960e01b81526001600160a01b038581166004830152602482018490526000921690632f745c599060440160206040518083038186803b158015611eb257600080fd5b505afa158015611ec6573d6000803e3d6000fd5b505050506040513d601f19601f82011682018060405250810190611eea9190613307565b6000818152600b6020526040902060020154909150421115611f2257611f1081856123c4565b82611f1a81613361565b935050611f30565b81611f2c816132ec565b9250505b50611e5d565b8154600090815b81811015611f9f576000611f518284612626565b905084868281548110611f6657611f66613216565b600091825260209091206002909102015463ffffffff161115611f8b57809250611f99565b611f9681600161316d565b91505b50611f3d565b8115611fd85784611fb16001846131ff565b81548110611fc157611fc1613216565b906000526020600020906002020160010154611fdb565b60005b95945050505050565b816001600160a01b0316836001600160a01b0316141580156120065750600081115b15610e54576001600160a01b03831615612094576001600160a01b0383166000908152600f60205260408120819061204190612641856124ca565b91509150846001600160a01b03167fdec2bacdd2f05b59de34da9b523dff8be42e5e38e818c82fdb0bae774387a7248383604051612089929190918252602082015260400190565b60405180910390a250505b6001600160a01b03821615610e54576001600160a01b0382166000908152600f6020526040812081906120ca906124be856124ca565b91509150836001600160a01b03167fdec2bacdd2f05b59de34da9b523dff8be42e5e38e818c82fdb0bae774387a7248383604051612112929190918252602082015260400190565b60405180910390a25050505050565b6001600160a01b038083166000818152600e602052604080822080548686166001600160a01b0319821681179092559151919094169392849290917f3134e8a2e6d97e929a7e54011ea5485d7d196dd5f0ba4d4ef95803e8e3fc257f9190a4610e548183610c2386610cc3565b6006546040516331a9108f60e11b8152600481018490526000916001600160a01b031690636352211e9060240160206040518083038186803b1580156121d357600080fd5b505afa1580156121e7573d6000803e3d6000fd5b505050506040513d601f19601f8201168201806040525081019061220b91906131e2565b9050336001600160a01b0382161461225a5760405162461bcd60e51b81526020600482015260126024820152713737ba16b837b9b4ba34b7b716b7bbb732b960711b60448201526064016107f3565b610e5483838361264d565b600063ffffffff8211156122ca5760405162461bcd60e51b815260206004820152602660248201527f53616665436173743a2076616c756520646f65736e27742066697420696e203360448201526532206269747360d01b60648201526084016107f3565b5090565b6000816000015160046303c2670084602001516122eb9190613320565b6122f5919061333f565b610cbd919061333f565b600154610100900460ff1661236a5760405162461bcd60e51b815260206004820152602b60248201527f496e697469616c697a61626c653a20636f6e7472616374206973206e6f74206960448201526a6e697469616c697a696e6760a81b60648201526084016107f3565b600180546201000033810262010000600160b01b0319909216919091179182905560405191046001600160a01b0316906000907fd4459d5b8b913cab0244230fd9b1c08b6ceace7fe9230e60d0f74cbffdf849d0908290a3565b6108248260018361264d565b6000806123dc836122ce565b4284604001516123ec91906131ff565b6123fe90670de0b6b3a7640000613320565b612408919061333f565b9050670de0b6b3a764000081670de0b6b3a7640000600a54866000015161242f9190613320565b612439919061333f565b6124439190613320565b610a1c919061333f565b6040516001600160a01b03808516602483015283166044820152606481018290526124b89085906323b872dd60e01b906084015b60408051601f198184030181529190526020810180516001600160e01b03166001600160e01b0319909316929092179091526129a1565b50505050565b6000610a1c828461316d565b82546000908190801561250a57856124e36001836131ff565b815481106124f3576124f3613216565b90600052602060002090600202016001015461250d565b60005b925061251d83858763ffffffff16565b9150600081118015612560575043866125376001846131ff565b8154811061254757612547613216565b600091825260209091206002909102015463ffffffff16145b156125ad5761256e82612a73565b6001600160e01b0316866125836001846131ff565b8154811061259357612593613216565b90600052602060002090600202016001018190555061261d565b8560405180604001604052806125c243612265565b63ffffffff1681526020016125d685612a73565b6001600160e01b0316905281546001808201845560009384526020938490208351600290930201805463ffffffff191663ffffffff90931692909217825591909201519101555b50935093915050565b6000612635600284841861333f565b610a1c9084841661316d565b6000610a1c82846131ff565b6000838152600b6020908152604091829020825160608101845281548152600182015492810192909252600201549181018290529042811084156126cb57806126cb5760405162461bcd60e51b815260206004820152601060248201526f1b9bdd0b5d5b9b1bd8dad9590b5e595d60821b60448201526064016107f3565b60006126d6846122ce565b6126e090846131ff565b90506126ef620151808261316d565b421161273d5760405162461bcd60e51b815260206004820152601d60248201527f636f6f6c2d646f776e2d706572696f642d6469642d6e6f742d7061737300000060448201526064016107f3565b83516020850151600654604051630852cd8d60e31b8152600481018b90526001600160a01b03909116906342966c6890602401600060405180830381600087803b15801561278a57600080fd5b505af115801561279e573d6000803e3d6000fd5b50505060008a8152600b60209081526040808320838155600181018490556002018390556001600160a01b038b168352600c909152812080548593509091906127e89084906131ff565b92505081905550816008600082825461280191906131ff565b90915550506001600160a01b0387166000908152600d60205260408120805483929061282e9084906131ff565b92505081905550806009600082825461284791906131ff565b9091555060009050612859828461316d565b90506128696010612641836124ca565b50506001600160a01b038089166000908152600e602052604081205461289192169083611fe4565b82851580156128a257506000600a54115b156128f55760006128b2896123d0565b905080156128f3576005546128e690731b40183efb4dd766f11bda7a7c3ad8982e998421906001600160a01b031683612adc565b6128f081836131ff565b91505b505b612914731b40183efb4dd766f11bda7a7c3ad8982e9984218a83612adc565b6040518381526000906001600160a01b038b16906000805160206133b28339815191529060200160405180910390a37f12b401e87a80986bf539c17eb044022d7a4d83471454b06d8977cab0decdbd5e8b858361297181836131ff565b60408051948552602085019390935291830152606082015260800160405180910390a15050505050505050505050565b60006129f6826040518060400160405280602081526020017f5361666545524332303a206c6f772d6c6576656c2063616c6c206661696c6564815250856001600160a01b0316612b0c9092919063ffffffff16565b805190915015610e545780806020019051810190612a149190613378565b610e545760405162461bcd60e51b815260206004820152602a60248201527f5361666545524332303a204552433230206f7065726174696f6e20646964206e6044820152691bdd081cdd58d8d9595960b21b60648201526084016107f3565b60006001600160e01b038211156122ca5760405162461bcd60e51b815260206004820152602760248201527f53616665436173743a2076616c756520646f65736e27742066697420696e20326044820152663234206269747360c81b60648201526084016107f3565b6040516001600160a01b038316602482015260448101829052610e5490849063a9059cbb60e01b90606401612481565b6060612b1b8484600085612b23565b949350505050565b606082471015612b845760405162461bcd60e51b815260206004820152602660248201527f416464726573733a20696e73756666696369656e742062616c616e636520666f6044820152651c8818d85b1b60d21b60648201526084016107f3565b600080866001600160a01b03168587604051612ba09190613395565b60006040518083038185875af1925050503d8060008114612bdd576040519150601f19603f3d011682016040523d82523d6000602084013e612be2565b606091505b5091509150612bf387838387612bfe565b979650505050505050565b60608315612c6a578251612c63576001600160a01b0385163b612c635760405162461bcd60e51b815260206004820152601d60248201527f416464726573733a2063616c6c20746f206e6f6e2d636f6e747261637400000060448201526064016107f3565b5081612b1b565b612b1b8383815115612c7f5781518083602001fd5b8060405162461bcd60e51b81526004016107f39190612d55565b828054612ca590613122565b90600052602060002090601f016020900481019282612cc75760008555612d0d565b82601f10612ce057805160ff1916838001178555612d0d565b82800160010185558215612d0d579182015b82811115612d0d578251825591602001919060010190612cf2565b506122ca9291505b808211156122ca5760008155600101612d15565b60005b83811015612d44578181015183820152602001612d2c565b838111156124b85750506000910152565b6020815260008251806020840152612d74816040850160208701612d29565b601f01601f19169190910160400192915050565b6001600160a01b038116811461086357600080fd5b60008060408385031215612db057600080fd5b8235612dbb81612d88565b946020939093013593505050565b6001600160a01b0391909116815260200190565b60008060408385031215612df057600080fd5b50508035926020909101359150565b600060208284031215612e1157600080fd5b8135610a1c81612d88565b600080600060608486031215612e3157600080fd5b8335612e3c81612d88565b92506020840135612e4c81612d88565b929592945050506040919091013590565b60008060408385031215612e7057600080fd5b823591506020830135612e8281612d88565b809150509250929050565b801515811461086357600080fd5b60008060408385031215612eae57600080fd5b823591506020830135612e8281612e8d565b600080600060608486031215612ed557600080fd5b8335612ee081612d88565b95602085013595506040909401359392505050565b600060208284031215612f0757600080fd5b5035919050565b803560ff81168114612f1f57600080fd5b919050565b60008060008060008060c08789031215612f3d57600080fd5b8635612f4881612d88565b95506020870135945060408701359350612f6460608801612f0e565b92506080870135915060a087013590509295509295509295565b634e487b7160e01b600052604160045260246000fd5b600082601f830112612fa557600080fd5b813567ffffffffffffffff80821115612fc057612fc0612f7e565b604051601f8301601f19908116603f01168101908282118183101715612fe857612fe8612f7e565b8160405283815286602085880101111561300157600080fd5b836020870160208301376000602085830101528094505050505092915050565b600080600080600060a0868803121561303957600080fd5b853567ffffffffffffffff8082111561305157600080fd5b61305d89838a01612f94565b9650602088013591508082111561307357600080fd5b5061308088828901612f94565b94505061308f60408701612f0e565b9250606086013561309f81612d88565b915060808601356130af81612d88565b809150509295509295909350565b600080604083850312156130d057600080fd5b82356130db81612d88565b91506020830135612e8281612d88565b600080604083850312156130fe57600080fd5b823561310981612d88565b9150602083013563ffffffff81168114612e8257600080fd5b600181811c9082168061313657607f821691505b6020821081141561175757634e487b7160e01b600052602260045260246000fd5b634e487b7160e01b600052601160045260246000fd5b6000821982111561318057613180613157565b500190565b6020808252600c908201526b3737ba16b3b7bb32b93737b960a11b604082015260600190565b6020808252601f908201527f4552433230566f7465733a20626c6f636b206e6f7420796574206d696e656400604082015260600190565b6000602082840312156131f457600080fd5b8151610a1c81612d88565b60008282101561321157613211613157565b500390565b634e487b7160e01b600052603260045260246000fd5b600080835481600182811c91508083168061324857607f831692505b602080841082141561326857634e487b7160e01b86526022600452602486fd5b81801561327c576001811461328d576132ba565b60ff198616895284890196506132ba565b60008a81526020902060005b868110156132b25781548b820152908501908301613299565b505084890196505b509498975050505050505050565b9384526001600160a01b039290921660208401526040830152606082015260800190565b600060001982141561330057613300613157565b5060010190565b60006020828403121561331957600080fd5b5051919050565b600081600019048311821515161561333a5761333a613157565b500290565b60008261335c57634e487b7160e01b600052601260045260246000fd5b500490565b60008161337057613370613157565b506000190190565b60006020828403121561338a57600080fd5b8151610a1c81612e8d565b600082516133a7818460208701612d29565b919091019291505056feddf252ad1be2c89b69c2b068fc378daa952ba7f163c4a11628f55a4df523b3efa264697066735822122008175b89a786110964d704f77b56e7fa340db876c339f582083e5e0b5796e60c64736f6c63430008090033",
  "devdoc": {
    "kind": "dev",
    "methods": {
      "acceptGovernorship()": {
        "details": "Allows new governor to accept governorship of the contract."
      },
      "balanceOf(address)": {
        "params": {
          "account_": "The account"
        },
        "returns": {
          "_0": "user's total VSP balance."
        }
      },
      "calculateExitPenalty(uint256)": {
        "params": {
          "tokenId_": "The position/token id"
        }
      },
      "checkpoints(address,uint32)": {
        "details": "Get the `pos`-th checkpoint for `account`."
      },
      "delegate(address)": {
        "details": "Delegate votes from the sender to `delegatee`."
      },
      "delegateBySig(address,uint256,uint256,uint8,bytes32,bytes32)": {
        "details": "Delegates votes from signatory to `delegatee`",
        "params": {
          "delegatee": "The address to delegate votes to",
          "expiry": "The time at which to expire the signature",
          "nonce": "The contract state required to match the signature",
          "r": "Half of the ECDSA signature pair",
          "s": "Half of the ECDSA signature pair",
          "v": "The recovery byte of the signature"
        }
      },
      "delegates(address)": {
        "details": "Get the address `account` is currently delegating to."
      },
      "getLockedPeriodOf(uint256)": {
        "params": {
          "tokenId_": "The position/token id"
        }
      },
      "getPastTotalSupply(uint256)": {
        "details": "Retrieve the `totalSupply` at the end of `blockNumber`. Note, this value is the sum of all balances. It is but NOT the sum of all the delegated votes! Requirements: - `blockNumber` must have been already mined"
      },
      "getPastVotes(address,uint256)": {
        "details": "Retrieve the number of votes for `account` at the end of `blockNumber`. Requirements: - `blockNumber` must have been already mined"
      },
      "getVotes(address)": {
        "details": "Gets the current votes balance for `account`"
      },
      "initializeRewards(address)": {
        "details": "Called once",
        "params": {
          "rewards_": "The new contract"
        }
      },
      "kick(uint256)": {
        "params": {
          "tokenId_": "ERC721 tokenId"
        }
      },
      "kickAllExpiredOf(address)": {
        "params": {
          "account_": "The target account"
        }
      },
      "lock(uint256,uint256)": {
        "params": {
          "amount_": "The VSP amount to lock",
          "lockPeriod_": "The lock period"
        }
      },
      "lockFor(address,uint256,uint256)": {
        "params": {
          "amount_": "The VSP amount to lock",
          "lockPeriod_": "The lock period"
        }
      },
      "numCheckpoints(address)": {
        "details": "Get number of checkpoints for `account`."
      },
      "transferGovernorship(address)": {
        "details": "Transfers governorship of the contract to a new account (`proposedGovernor`). Can only be called by the current owner."
      },
      "transferPosition(uint256,address)": {
        "details": "Revert if caller isn't the esVSP721 contract",
        "params": {
          "to_": "The recipient",
          "tokenId_": "The position (NFT) to transfer"
        }
      },
      "unlock(uint256,bool)": {
        "params": {
          "beforeUnlockTime_": "When `true` unlock before expiration and pays exit penalty",
          "tokenId_": "ERC721 tokenId"
        }
      },
      "updateExitPenalty(uint256)": {
        "params": {
          "exitPenalty_": "The new exit penalty"
        }
      },
      "updateTreasury(address)": {
        "params": {
          "treasury_": "The new treasury address"
        }
      }
    },
    "title": "Non-transferable escrowed VSP.",
    "version": 1
  },
  "userdoc": {
    "events": {
      "ExitPenaltyUpdated(uint256,uint256)": {
        "notice": "Emitted when the exit penalty is updated"
      },
      "TreasuryUpdated(address,address)": {
        "notice": "Emitted when the treasury address is updated"
      },
      "VspLocked(uint256,address,uint256,uint256)": {
        "notice": "Emitted when a new position is created (i.e. when user locks VSP)"
      },
      "VspUnlocked(uint256,uint256,uint256,uint256)": {
        "notice": "Emitted when a position is burned due to unlock or kick"
      }
    },
    "kind": "user",
    "methods": {
      "allowance(address,address)": {
        "notice": "Methods not supported *"
      },
      "balanceOf(address)": {
        "notice": "Get total(locked + boosted) VSP balance of user. This is different than ESVSP721.balanceOf(). It is sum of - total locked VSP:: sum of locked VSP in each ESVSP721 token, position, of user. - total boosted VSP:: sum of boosted amount of VSP in each ESVSP721 token, position, of user."
      },
      "boosted(address)": {
        "notice": "Total boosted amount by user among all his positions"
      },
      "calculateExitPenalty(uint256)": {
        "notice": "Calculate exit penalty for a position"
      },
      "esVSP721()": {
        "notice": "NFT contract"
      },
      "exitPenalty()": {
        "notice": "Fee paid when withdrawing. Decreases linearly as period finish approaches."
      },
      "getLockedPeriodOf(uint256)": {
        "notice": "Get the lock period"
      },
      "initializeRewards(address)": {
        "notice": "Initialize the Rewards contract"
      },
      "kick(uint256)": {
        "notice": "Burn an expired position and send locked amount to the owner"
      },
      "kickAllExpiredOf(address)": {
        "notice": "Kick all expired positions from a given account"
      },
      "lock(uint256,uint256)": {
        "notice": "Lock VSP to get boosted revenue and voting power. Lock VSP and generate users position by minting ERC721"
      },
      "lockFor(address,uint256,uint256)": {
        "notice": "Lock VSP to get boosted revenue and voting power. Lock VSP and generate users position by minting ERC721"
      },
      "locked(address)": {
        "notice": "Total VSP locked by user among all his positions"
      },
      "nonces(address)": {
        "notice": "A record of states for signing / validating signatures"
      },
      "positions(uint256)": {
        "notice": "Lock positions"
      },
      "rewards()": {
        "notice": "Rewards contract"
      },
      "totalBoosted()": {
        "notice": "Total boosted amount"
      },
      "totalLocked()": {
        "notice": "Total VSP locked"
      },
      "totalSupply()": {
        "notice": "Total Supply is some of total boosted and total locked"
      },
      "transferPosition(uint256,address)": {
        "notice": "Transfer position (i.e. locked and boosted amounts) between accounts"
      },
      "treasury()": {
        "notice": "The treasury contract (will receive exit penalty collected)"
      },
      "unlock(uint256,bool)": {
        "notice": "Unlock VSP by burning given ERC721 tokenId_"
      },
      "updateExitPenalty(uint256)": {
        "notice": "Update exit penalty"
      },
      "updateTreasury(address)": {
        "notice": "Update treasury contract"
      }
    },
    "version": 1
  },
  "storageLayout": {
    "storage": [
      {
        "astId": 3929,
        "contract": "contracts/ESVSP.sol:ESVSP",
        "label": "_status",
        "offset": 0,
        "slot": "0",
        "type": "t_uint256"
      },
      {
        "astId": 3756,
        "contract": "contracts/ESVSP.sol:ESVSP",
        "label": "_initialized",
        "offset": 0,
        "slot": "1",
        "type": "t_uint8"
      },
      {
        "astId": 3759,
        "contract": "contracts/ESVSP.sol:ESVSP",
        "label": "_initializing",
        "offset": 1,
        "slot": "1",
        "type": "t_bool"
      },
      {
        "astId": 2831,
        "contract": "contracts/ESVSP.sol:ESVSP",
        "label": "governor",
        "offset": 2,
        "slot": "1",
        "type": "t_address"
      },
      {
        "astId": 2833,
        "contract": "contracts/ESVSP.sol:ESVSP",
        "label": "proposedGovernor",
        "offset": 0,
        "slot": "2",
        "type": "t_address"
      },
      {
        "astId": 9141,
        "contract": "contracts/ESVSP.sol:ESVSP",
        "label": "decimals",
        "offset": 20,
        "slot": "2",
        "type": "t_uint8"
      },
      {
        "astId": 9143,
        "contract": "contracts/ESVSP.sol:ESVSP",
        "label": "name",
        "offset": 0,
        "slot": "3",
        "type": "t_string_storage"
      },
      {
        "astId": 9145,
        "contract": "contracts/ESVSP.sol:ESVSP",
        "label": "symbol",
        "offset": 0,
        "slot": "4",
        "type": "t_string_storage"
      },
      {
        "astId": 9148,
        "contract": "contracts/ESVSP.sol:ESVSP",
        "label": "treasury",
        "offset": 0,
        "slot": "5",
        "type": "t_address"
      },
      {
        "astId": 9152,
        "contract": "contracts/ESVSP.sol:ESVSP",
        "label": "esVSP721",
        "offset": 0,
        "slot": "6",
        "type": "t_contract(IESVSP721)9011"
      },
      {
        "astId": 9156,
        "contract": "contracts/ESVSP.sol:ESVSP",
        "label": "rewards",
        "offset": 0,
        "slot": "7",
        "type": "t_contract(IRewards)9081"
      },
      {
        "astId": 9160,
        "contract": "contracts/ESVSP.sol:ESVSP",
        "label": "totalLocked",
        "offset": 0,
        "slot": "8",
        "type": "t_uint256"
      },
      {
        "astId": 9164,
        "contract": "contracts/ESVSP.sol:ESVSP",
        "label": "totalBoosted",
        "offset": 0,
        "slot": "9",
        "type": "t_uint256"
      },
      {
        "astId": 9167,
        "contract": "contracts/ESVSP.sol:ESVSP",
        "label": "exitPenalty",
        "offset": 0,
        "slot": "10",
        "type": "t_uint256"
      },
      {
        "astId": 9173,
        "contract": "contracts/ESVSP.sol:ESVSP",
        "label": "positions",
        "offset": 0,
        "slot": "11",
        "type": "t_mapping(t_uint256,t_struct(LockPosition)9139_storage)"
      },
      {
        "astId": 9179,
        "contract": "contracts/ESVSP.sol:ESVSP",
        "label": "locked",
        "offset": 0,
        "slot": "12",
        "type": "t_mapping(t_address,t_uint256)"
      },
      {
        "astId": 9185,
        "contract": "contracts/ESVSP.sol:ESVSP",
        "label": "boosted",
        "offset": 0,
        "slot": "13",
        "type": "t_mapping(t_address,t_uint256)"
      },
      {
        "astId": 9195,
        "contract": "contracts/ESVSP.sol:ESVSP",
        "label": "_delegates",
        "offset": 0,
        "slot": "14",
        "type": "t_mapping(t_address,t_address)"
      },
      {
        "astId": 9202,
        "contract": "contracts/ESVSP.sol:ESVSP",
        "label": "_checkpoints",
        "offset": 0,
        "slot": "15",
        "type": "t_mapping(t_address,t_array(t_struct(Checkpoint)9190_storage)dyn_storage)"
      },
      {
        "astId": 9206,
        "contract": "contracts/ESVSP.sol:ESVSP",
        "label": "_totalSupplyCheckpoints",
        "offset": 0,
        "slot": "16",
        "type": "t_array(t_struct(Checkpoint)9190_storage)dyn_storage"
      },
      {
        "astId": 9211,
        "contract": "contracts/ESVSP.sol:ESVSP",
        "label": "nonces",
        "offset": 0,
        "slot": "17",
        "type": "t_mapping(t_address,t_uint256)"
      }
    ],
    "types": {
      "t_address": {
        "encoding": "inplace",
        "label": "address",
        "numberOfBytes": "20"
      },
      "t_array(t_struct(Checkpoint)9190_storage)dyn_storage": {
        "base": "t_struct(Checkpoint)9190_storage",
        "encoding": "dynamic_array",
        "label": "struct ESVSPStorageV1.Checkpoint[]",
        "numberOfBytes": "32"
      },
      "t_bool": {
        "encoding": "inplace",
        "label": "bool",
        "numberOfBytes": "1"
      },
      "t_contract(IESVSP721)9011": {
        "encoding": "inplace",
        "label": "contract IESVSP721",
        "numberOfBytes": "20"
      },
      "t_contract(IRewards)9081": {
        "encoding": "inplace",
        "label": "contract IRewards",
        "numberOfBytes": "20"
      },
      "t_mapping(t_address,t_address)": {
        "encoding": "mapping",
        "key": "t_address",
        "label": "mapping(address => address)",
        "numberOfBytes": "32",
        "value": "t_address"
      },
      "t_mapping(t_address,t_array(t_struct(Checkpoint)9190_storage)dyn_storage)": {
        "encoding": "mapping",
        "key": "t_address",
        "label": "mapping(address => struct ESVSPStorageV1.Checkpoint[])",
        "numberOfBytes": "32",
        "value": "t_array(t_struct(Checkpoint)9190_storage)dyn_storage"
      },
      "t_mapping(t_address,t_uint256)": {
        "encoding": "mapping",
        "key": "t_address",
        "label": "mapping(address => uint256)",
        "numberOfBytes": "32",
        "value": "t_uint256"
      },
      "t_mapping(t_uint256,t_struct(LockPosition)9139_storage)": {
        "encoding": "mapping",
        "key": "t_uint256",
        "label": "mapping(uint256 => struct ESVSPStorageV1.LockPosition)",
        "numberOfBytes": "32",
        "value": "t_struct(LockPosition)9139_storage"
      },
      "t_string_storage": {
        "encoding": "bytes",
        "label": "string",
        "numberOfBytes": "32"
      },
      "t_struct(Checkpoint)9190_storage": {
        "encoding": "inplace",
        "label": "struct ESVSPStorageV1.Checkpoint",
        "members": [
          {
            "astId": 9187,
            "contract": "contracts/ESVSP.sol:ESVSP",
            "label": "fromBlock",
            "offset": 0,
            "slot": "0",
            "type": "t_uint32"
          },
          {
            "astId": 9189,
            "contract": "contracts/ESVSP.sol:ESVSP",
            "label": "votes",
            "offset": 0,
            "slot": "1",
            "type": "t_uint256"
          }
        ],
        "numberOfBytes": "64"
      },
      "t_struct(LockPosition)9139_storage": {
        "encoding": "inplace",
        "label": "struct ESVSPStorageV1.LockPosition",
        "members": [
          {
            "astId": 9134,
            "contract": "contracts/ESVSP.sol:ESVSP",
            "label": "lockedAmount",
            "offset": 0,
            "slot": "0",
            "type": "t_uint256"
          },
          {
            "astId": 9136,
            "contract": "contracts/ESVSP.sol:ESVSP",
            "label": "boostedAmount",
            "offset": 0,
            "slot": "1",
            "type": "t_uint256"
          },
          {
            "astId": 9138,
            "contract": "contracts/ESVSP.sol:ESVSP",
            "label": "unlockTime",
            "offset": 0,
            "slot": "2",
            "type": "t_uint256"
          }
        ],
        "numberOfBytes": "96"
      },
      "t_uint256": {
        "encoding": "inplace",
        "label": "uint256",
        "numberOfBytes": "32"
      },
      "t_uint32": {
        "encoding": "inplace",
        "label": "uint32",
        "numberOfBytes": "4"
      },
      "t_uint8": {
        "encoding": "inplace",
        "label": "uint8",
        "numberOfBytes": "1"
      }
    }
  }
}