{
  "address": "0x8fd96F12E4cA0752af07F8d2aB9De30E09b05679",
  "abi": [
    {
      "anonymous": false,
      "inputs": [
        {
          "indexed": true,
          "internalType": "address",
          "name": "owner",
          "type": "address"
        },
        {
          "indexed": true,
          "internalType": "address",
          "name": "spender",
          "type": "address"
        },
        {
          "indexed": false,
          "internalType": "uint256",
          "name": "value",
          "type": "uint256"
        }
      ],
      "name": "Approval",
      "type": "event"
    },
    {
      "anonymous": false,
      "inputs": [
        {
          "indexed": true,
          "internalType": "address",
          "name": "delegator",
          "type": "address"
        },
        {
          "indexed": true,
          "internalType": "address",
          "name": "fromDelegate",
          "type": "address"
        },
        {
          "indexed": true,
          "internalType": "address",
          "name": "toDelegate",
          "type": "address"
        }
      ],
      "name": "DelegateChanged",
      "type": "event"
    },
    {
      "anonymous": false,
      "inputs": [
        {
          "indexed": true,
          "internalType": "address",
          "name": "delegate",
          "type": "address"
        },
        {
          "indexed": false,
          "internalType": "uint256",
          "name": "previousBalance",
          "type": "uint256"
        },
        {
          "indexed": false,
          "internalType": "uint256",
          "name": "newBalance",
          "type": "uint256"
        }
      ],
      "name": "DelegateVotesChanged",
      "type": "event"
    },
    {
      "anonymous": false,
      "inputs": [
        {
          "indexed": false,
          "internalType": "uint256",
          "name": "oldExitPenalty",
          "type": "uint256"
        },
        {
          "indexed": false,
          "internalType": "uint256",
          "name": "newExitPenalty",
          "type": "uint256"
        }
      ],
      "name": "ExitPenaltyUpdated",
      "type": "event"
    },
    {
      "anonymous": false,
      "inputs": [
        {
          "indexed": false,
          "internalType": "uint8",
          "name": "version",
          "type": "uint8"
        }
      ],
      "name": "Initialized",
      "type": "event"
    },
    {
      "anonymous": false,
      "inputs": [
        {
          "indexed": true,
          "internalType": "address",
          "name": "from",
          "type": "address"
        },
        {
          "indexed": true,
          "internalType": "address",
          "name": "to",
          "type": "address"
        },
        {
          "indexed": false,
          "internalType": "uint256",
          "name": "value",
          "type": "uint256"
        }
      ],
      "name": "Transfer",
      "type": "event"
    },
    {
      "anonymous": false,
      "inputs": [
        {
          "indexed": false,
          "internalType": "address",
          "name": "oldTreasury",
          "type": "address"
        },
        {
          "indexed": false,
          "internalType": "address",
          "name": "newTreasury",
          "type": "address"
        }
      ],
      "name": "TreasuryUpdated",
      "type": "event"
    },
    {
      "anonymous": false,
      "inputs": [
        {
          "indexed": true,
          "internalType": "address",
          "name": "previousGovernor",
          "type": "address"
        },
        {
          "indexed": true,
          "internalType": "address",
          "name": "proposedGovernor",
          "type": "address"
        }
      ],
      "name": "UpdatedGovernor",
      "type": "event"
    },
    {
      "anonymous": false,
      "inputs": [
        {
          "indexed": true,
          "internalType": "uint256",
          "name": "tokenId",
          "type": "uint256"
        },
        {
          "indexed": true,
          "internalType": "address",
          "name": "account",
          "type": "address"
        },
        {
          "indexed": false,
          "internalType": "uint256",
          "name": "amount",
          "type": "uint256"
        },
        {
          "indexed": false,
          "internalType": "uint256",
          "name": "lockPeriod",
          "type": "uint256"
        }
      ],
      "name": "VspLocked",
      "type": "event"
    },
    {
      "anonymous": false,
      "inputs": [
        {
          "indexed": true,
          "internalType": "uint256",
          "name": "tokenId",
          "type": "uint256"
        },
        {
          "indexed": true,
          "internalType": "address",
          "name": "account",
          "type": "address"
        },
        {
          "indexed": false,
          "internalType": "uint256",
          "name": "amount",
          "type": "uint256"
        },
        {
          "indexed": false,
          "internalType": "uint256",
          "name": "unlocked",
          "type": "uint256"
        },
        {
          "indexed": false,
          "internalType": "uint256",
          "name": "penalty",
          "type": "uint256"
        }
      ],
      "name": "VspUnlocked",
      "type": "event"
    },
    {
      "inputs": [],
      "name": "COOL_DOWN_PERIOD",
      "outputs": [
        {
          "internalType": "uint256",
          "name": "",
          "type": "uint256"
        }
      ],
      "stateMutability": "view",
      "type": "function"
    },
    {
      "inputs": [],
      "name": "MAXIMUM_BOOST",
      "outputs": [
        {
          "internalType": "uint256",
          "name": "",
          "type": "uint256"
        }
      ],
      "stateMutability": "view",
      "type": "function"
    },
    {
      "inputs": [],
      "name": "MAXIMUM_LOCK_PERIOD",
      "outputs": [
        {
          "internalType": "uint256",
          "name": "",
          "type": "uint256"
        }
      ],
      "stateMutability": "view",
      "type": "function"
    },
    {
      "inputs": [],
      "name": "MINIMUM_LOCK_PERIOD",
      "outputs": [
        {
          "internalType": "uint256",
          "name": "",
          "type": "uint256"
        }
      ],
      "stateMutability": "view",
      "type": "function"
    },
    {
      "inputs": [],
      "name": "VERSION",
      "outputs": [
        {
          "internalType": "string",
          "name": "",
          "type": "string"
        }
      ],
      "stateMutability": "view",
      "type": "function"
    },
    {
      "inputs": [],
      "name": "VSP",
      "outputs": [
        {
          "internalType": "contract IVSP",
          "name": "",
          "type": "address"
        }
      ],
      "stateMutability": "view",
      "type": "function"
    },
    {
      "inputs": [],
      "name": "acceptGovernorship",
      "outputs": [],
      "stateMutability": "nonpayable",
      "type": "function"
    },
    {
      "inputs": [
        {
          "internalType": "address",
          "name": "",
          "type": "address"
        },
        {
          "internalType": "address",
          "name": "",
          "type": "address"
        }
      ],
      "name": "allowance",
      "outputs": [
        {
          "internalType": "uint256",
          "name": "",
          "type": "uint256"
        }
      ],
      "stateMutability": "view",
      "type": "function"
    },
    {
      "inputs": [
        {
          "internalType": "address",
          "name": "",
          "type": "address"
        },
        {
          "internalType": "uint256",
          "name": "",
          "type": "uint256"
        }
      ],
      "name": "approve",
      "outputs": [
        {
          "internalType": "bool",
          "name": "",
          "type": "bool"
        }
      ],
      "stateMutability": "nonpayable",
      "type": "function"
    },
    {
      "inputs": [
        {
          "internalType": "address",
          "name": "account_",
          "type": "address"
        }
      ],
      "name": "balanceOf",
      "outputs": [
        {
          "internalType": "uint256",
          "name": "",
          "type": "uint256"
        }
      ],
      "stateMutability": "view",
      "type": "function"
    },
    {
      "inputs": [
        {
          "internalType": "address",
          "name": "",
          "type": "address"
        }
      ],
      "name": "boosted",
      "outputs": [
        {
          "internalType": "uint256",
          "name": "",
          "type": "uint256"
        }
      ],
      "stateMutability": "view",
      "type": "function"
    },
    {
      "inputs": [
        {
          "internalType": "uint256",
          "name": "tokenId_",
          "type": "uint256"
        }
      ],
      "name": "calculateExitPenalty",
      "outputs": [
        {
          "internalType": "uint256",
          "name": "_penalty",
          "type": "uint256"
        }
      ],
      "stateMutability": "view",
      "type": "function"
    },
    {
      "inputs": [
        {
          "internalType": "uint256",
          "name": "tokenId_",
          "type": "uint256"
        }
      ],
      "name": "canUnlock",
      "outputs": [
        {
          "internalType": "bool",
          "name": "",
          "type": "bool"
        }
      ],
      "stateMutability": "view",
      "type": "function"
    },
    {
      "inputs": [
        {
          "internalType": "address",
          "name": "account",
          "type": "address"
        },
        {
          "internalType": "uint32",
          "name": "pos",
          "type": "uint32"
        }
      ],
      "name": "checkpoints",
      "outputs": [
        {
          "components": [
            {
              "internalType": "uint32",
              "name": "fromBlock",
              "type": "uint32"
            },
            {
              "internalType": "uint256",
              "name": "votes",
              "type": "uint256"
            }
          ],
          "internalType": "struct ESVSPStorageV1.Checkpoint",
          "name": "",
          "type": "tuple"
        }
      ],
      "stateMutability": "view",
      "type": "function"
    },
    {
      "inputs": [],
      "name": "decimals",
      "outputs": [
        {
          "internalType": "uint8",
          "name": "",
          "type": "uint8"
        }
      ],
      "stateMutability": "view",
      "type": "function"
    },
    {
      "inputs": [
        {
          "internalType": "address",
          "name": "",
          "type": "address"
        },
        {
          "internalType": "uint256",
          "name": "",
          "type": "uint256"
        }
      ],
      "name": "decreaseAllowance",
      "outputs": [
        {
          "internalType": "bool",
          "name": "",
          "type": "bool"
        }
      ],
      "stateMutability": "nonpayable",
      "type": "function"
    },
    {
      "inputs": [
        {
          "internalType": "address",
          "name": "delegatee",
          "type": "address"
        }
      ],
      "name": "delegate",
      "outputs": [],
      "stateMutability": "nonpayable",
      "type": "function"
    },
    {
      "inputs": [
        {
          "internalType": "address",
          "name": "delegatee",
          "type": "address"
        },
        {
          "internalType": "uint256",
          "name": "nonce",
          "type": "uint256"
        },
        {
          "internalType": "uint256",
          "name": "expiry",
          "type": "uint256"
        },
        {
          "internalType": "uint8",
          "name": "v",
          "type": "uint8"
        },
        {
          "internalType": "bytes32",
          "name": "r",
          "type": "bytes32"
        },
        {
          "internalType": "bytes32",
          "name": "s",
          "type": "bytes32"
        }
      ],
      "name": "delegateBySig",
      "outputs": [],
      "stateMutability": "nonpayable",
      "type": "function"
    },
    {
      "inputs": [
        {
          "internalType": "address",
          "name": "account",
          "type": "address"
        }
      ],
      "name": "delegates",
      "outputs": [
        {
          "internalType": "address",
          "name": "",
          "type": "address"
        }
      ],
      "stateMutability": "view",
      "type": "function"
    },
    {
      "inputs": [],
      "name": "esVSP721",
      "outputs": [
        {
          "internalType": "contract IESVSP721",
          "name": "",
          "type": "address"
        }
      ],
      "stateMutability": "view",
      "type": "function"
    },
    {
      "inputs": [],
      "name": "exitPenalty",
      "outputs": [
        {
          "internalType": "uint256",
          "name": "",
          "type": "uint256"
        }
      ],
      "stateMutability": "view",
      "type": "function"
    },
    {
      "inputs": [
        {
          "internalType": "uint256",
          "name": "tokenId_",
          "type": "uint256"
        }
      ],
      "name": "getLockedPeriodOf",
      "outputs": [
        {
          "internalType": "uint256",
          "name": "_lockPeriod",
          "type": "uint256"
        }
      ],
      "stateMutability": "view",
      "type": "function"
    },
    {
      "inputs": [
        {
          "internalType": "uint256",
          "name": "blockNumber",
          "type": "uint256"
        }
      ],
      "name": "getPastTotalSupply",
      "outputs": [
        {
          "internalType": "uint256",
          "name": "",
          "type": "uint256"
        }
      ],
      "stateMutability": "view",
      "type": "function"
    },
    {
      "inputs": [
        {
          "internalType": "address",
          "name": "account",
          "type": "address"
        },
        {
          "internalType": "uint256",
          "name": "blockNumber",
          "type": "uint256"
        }
      ],
      "name": "getPastVotes",
      "outputs": [
        {
          "internalType": "uint256",
          "name": "",
          "type": "uint256"
        }
      ],
      "stateMutability": "view",
      "type": "function"
    },
    {
      "inputs": [
        {
          "internalType": "address",
          "name": "account",
          "type": "address"
        }
      ],
      "name": "getVotes",
      "outputs": [
        {
          "internalType": "uint256",
          "name": "",
          "type": "uint256"
        }
      ],
      "stateMutability": "view",
      "type": "function"
    },
    {
      "inputs": [],
      "name": "governor",
      "outputs": [
        {
          "internalType": "address",
          "name": "",
          "type": "address"
        }
      ],
      "stateMutability": "view",
      "type": "function"
    },
    {
      "inputs": [
        {
          "internalType": "address",
          "name": "",
          "type": "address"
        },
        {
          "internalType": "uint256",
          "name": "",
          "type": "uint256"
        }
      ],
      "name": "increaseAllowance",
      "outputs": [
        {
          "internalType": "bool",
          "name": "",
          "type": "bool"
        }
      ],
      "stateMutability": "nonpayable",
      "type": "function"
    },
    {
      "inputs": [
        {
          "internalType": "string",
          "name": "name_",
          "type": "string"
        },
        {
          "internalType": "string",
          "name": "symbol_",
          "type": "string"
        },
        {
          "internalType": "uint8",
          "name": "decimals_",
          "type": "uint8"
        },
        {
          "internalType": "contract IESVSP721",
          "name": "esVSP721_",
          "type": "address"
        },
        {
          "internalType": "address",
          "name": "treasury_",
          "type": "address"
        }
      ],
      "name": "initialize",
      "outputs": [],
      "stateMutability": "nonpayable",
      "type": "function"
    },
    {
      "inputs": [
        {
          "internalType": "contract IRewards",
          "name": "rewards_",
          "type": "address"
        }
      ],
      "name": "initializeRewards",
      "outputs": [],
      "stateMutability": "nonpayable",
      "type": "function"
    },
    {
      "inputs": [
        {
          "internalType": "uint256",
          "name": "tokenId_",
          "type": "uint256"
        }
      ],
      "name": "kick",
      "outputs": [],
      "stateMutability": "nonpayable",
      "type": "function"
    },
    {
      "inputs": [
        {
          "internalType": "address",
          "name": "account_",
          "type": "address"
        }
      ],
      "name": "kickAllExpiredOf",
      "outputs": [],
      "stateMutability": "nonpayable",
      "type": "function"
    },
    {
      "inputs": [
        {
          "internalType": "uint256",
          "name": "amount_",
          "type": "uint256"
        },
        {
          "internalType": "uint256",
          "name": "lockPeriod_",
          "type": "uint256"
        }
      ],
      "name": "lock",
      "outputs": [],
      "stateMutability": "nonpayable",
      "type": "function"
    },
    {
      "inputs": [
        {
          "internalType": "address",
          "name": "to_",
          "type": "address"
        },
        {
          "internalType": "uint256",
          "name": "amount_",
          "type": "uint256"
        },
        {
          "internalType": "uint256",
          "name": "lockPeriod_",
          "type": "uint256"
        }
      ],
      "name": "lockFor",
      "outputs": [],
      "stateMutability": "nonpayable",
      "type": "function"
    },
    {
      "inputs": [
        {
          "internalType": "address",
          "name": "",
          "type": "address"
        }
      ],
      "name": "locked",
      "outputs": [
        {
          "internalType": "uint256",
          "name": "",
          "type": "uint256"
        }
      ],
      "stateMutability": "view",
      "type": "function"
    },
    {
      "inputs": [],
      "name": "name",
      "outputs": [
        {
          "internalType": "string",
          "name": "",
          "type": "string"
        }
      ],
      "stateMutability": "view",
      "type": "function"
    },
    {
      "inputs": [
        {
          "internalType": "address",
          "name": "",
          "type": "address"
        }
      ],
      "name": "nonces",
      "outputs": [
        {
          "internalType": "uint256",
          "name": "",
          "type": "uint256"
        }
      ],
      "stateMutability": "view",
      "type": "function"
    },
    {
      "inputs": [
        {
          "internalType": "address",
          "name": "account",
          "type": "address"
        }
      ],
      "name": "numCheckpoints",
      "outputs": [
        {
          "internalType": "uint32",
          "name": "",
          "type": "uint32"
        }
      ],
      "stateMutability": "view",
      "type": "function"
    },
    {
      "inputs": [
        {
          "internalType": "uint256",
          "name": "",
          "type": "uint256"
        }
      ],
      "name": "positions",
      "outputs": [
        {
          "internalType": "uint256",
          "name": "lockedAmount",
          "type": "uint256"
        },
        {
          "internalType": "uint256",
          "name": "boostedAmount",
          "type": "uint256"
        },
        {
          "internalType": "uint256",
          "name": "unlockTime",
          "type": "uint256"
        }
      ],
      "stateMutability": "view",
      "type": "function"
    },
    {
      "inputs": [],
      "name": "proposedGovernor",
      "outputs": [
        {
          "internalType": "address",
          "name": "",
          "type": "address"
        }
      ],
      "stateMutability": "view",
      "type": "function"
    },
    {
      "inputs": [],
      "name": "rewards",
      "outputs": [
        {
          "internalType": "contract IRewards",
          "name": "",
          "type": "address"
        }
      ],
      "stateMutability": "view",
      "type": "function"
    },
    {
      "inputs": [],
      "name": "symbol",
      "outputs": [
        {
          "internalType": "string",
          "name": "",
          "type": "string"
        }
      ],
      "stateMutability": "view",
      "type": "function"
    },
    {
      "inputs": [],
      "name": "totalBoosted",
      "outputs": [
        {
          "internalType": "uint256",
          "name": "",
          "type": "uint256"
        }
      ],
      "stateMutability": "view",
      "type": "function"
    },
    {
      "inputs": [],
      "name": "totalLocked",
      "outputs": [
        {
          "internalType": "uint256",
          "name": "",
          "type": "uint256"
        }
      ],
      "stateMutability": "view",
      "type": "function"
    },
    {
      "inputs": [],
      "name": "totalSupply",
      "outputs": [
        {
          "internalType": "uint256",
          "name": "",
          "type": "uint256"
        }
      ],
      "stateMutability": "view",
      "type": "function"
    },
    {
      "inputs": [
        {
          "internalType": "address",
          "name": "",
          "type": "address"
        },
        {
          "internalType": "uint256",
          "name": "",
          "type": "uint256"
        }
      ],
      "name": "transfer",
      "outputs": [
        {
          "internalType": "bool",
          "name": "",
          "type": "bool"
        }
      ],
      "stateMutability": "nonpayable",
      "type": "function"
    },
    {
      "inputs": [
        {
          "internalType": "address",
          "name": "",
          "type": "address"
        },
        {
          "internalType": "address",
          "name": "",
          "type": "address"
        },
        {
          "internalType": "uint256",
          "name": "",
          "type": "uint256"
        }
      ],
      "name": "transferFrom",
      "outputs": [
        {
          "internalType": "bool",
          "name": "",
          "type": "bool"
        }
      ],
      "stateMutability": "nonpayable",
      "type": "function"
    },
    {
      "inputs": [
        {
          "internalType": "address",
          "name": "_proposedGovernor",
          "type": "address"
        }
      ],
      "name": "transferGovernorship",
      "outputs": [],
      "stateMutability": "nonpayable",
      "type": "function"
    },
    {
      "inputs": [
        {
          "internalType": "uint256",
          "name": "tokenId_",
          "type": "uint256"
        },
        {
          "internalType": "address",
          "name": "to_",
          "type": "address"
        }
      ],
      "name": "transferPosition",
      "outputs": [],
      "stateMutability": "nonpayable",
      "type": "function"
    },
    {
      "inputs": [],
      "name": "treasury",
      "outputs": [
        {
          "internalType": "address",
          "name": "",
          "type": "address"
        }
      ],
      "stateMutability": "view",
      "type": "function"
    },
    {
      "inputs": [
        {
          "internalType": "uint256",
          "name": "tokenId_",
          "type": "uint256"
        },
        {
          "internalType": "bool",
          "name": "beforeUnlockTime_",
          "type": "bool"
        }
      ],
      "name": "unlock",
      "outputs": [],
      "stateMutability": "nonpayable",
      "type": "function"
    },
    {
      "inputs": [
        {
          "internalType": "uint256",
          "name": "exitPenalty_",
          "type": "uint256"
        }
      ],
      "name": "updateExitPenalty",
      "outputs": [],
      "stateMutability": "nonpayable",
      "type": "function"
    },
    {
      "inputs": [
        {
          "internalType": "address",
          "name": "treasury_",
          "type": "address"
        }
      ],
      "name": "updateTreasury",
      "outputs": [],
      "stateMutability": "nonpayable",
      "type": "function"
    }
  ],
  "transactionHash": "0xff6e83299f1cf9cecf00a213de5eafe98a6f950081aaada63c7b1c318151dcfb",
  "args": [],
  "numDeployments": 2,
  "solcInputHash": "3c137f2e7d5c453d7941f21f807f9b46",
  "bytecode": "0x608060405234801561001057600080fd5b50600160005561348a806100256000396000f3fe608060405234801561001057600080fd5b50600436106102cc5760003560e01c80637faf90571161017d578063a9059cbb116100d9578063d8de0c4e11610092578063d8de0c4e1461069c578063d94a7af5146106af578063dd62ed3e146106c2578063e361ad1a146106d0578063f1127ed8146106e3578063f3b27bc314610717578063ffa1ad741461071f57600080fd5b8063a9059cbb14610622578063b6aa515b14610630578063c3cda52014610643578063c820f14614610656578063cbf9fe5f14610669578063ce0cf1a51461068957600080fd5b806395d89b411161013657806395d89b411461058d57806399fbab88146105955780639ab24eb0146105df5780639cf6db9f146105f25780639ec5a89414610605578063a059b29714610618578063a457c2d7146103f857600080fd5b80637faf90571461051657806383e0c6b21461052157806383e25f8a146105415780638a11a370146105545780638e0b0198146105675780638e539e8c1461057a57600080fd5b8063395093511161022c57806361d027b3116101e557806361d027b314610479578063631516c21461048c5780636b41674c146104955780636fcfff45146104a857806370a08231146104d05780637ecebe00146104e35780637f51bb1f1461050357600080fd5b806339509351146103f85780633a46b1a81461040b57806355bd513f1461041e5780635689141214610431578063587cde1e1461043a5780635c19a95c1461046657600080fd5b80631bff6098116102895780631bff60981461037657806321a405891461037e57806323b872dd14610388578063240581d41461039b5780632669e8ea146103ae578063313ce567146103b757806335faf389146103dd57600080fd5b806306fdde03146102d1578063095ea7b3146102ef5780630c340a24146103125780631338736f1461033857806318160ddd1461034d5780631a225bb414610363575b600080fd5b6102d9610743565b6040516102e69190612dfc565b60405180910390f35b6103026102fd366004612e44565b6107d1565b60405190151581526020016102e6565b60015461032b906201000090046001600160a01b031681565b6040516102e69190612e70565b61034b610346366004612e84565b61081a565b005b610355610846565b6040519081526020016102e6565b61034b610371366004612ea6565b61085d565b610355600481565b61035562093a8081565b610302610396366004612ec3565b610884565b61034b6103a9366004612ea6565b6108c8565b610355600a5481565b6002546103cb90600160a01b900460ff1681565b60405160ff90911681526020016102e6565b61032b731b40183efb4dd766f11bda7a7c3ad8982e99842181565b610302610406366004612e44565b6109b2565b610355610419366004612e44565b6109f7565b61034b61042c366004612f04565b610a41565b61035560085481565b61032b610448366004612ea6565b6001600160a01b039081166000908152600e60205260409020541690565b61034b610474366004612ea6565b610c91565b60055461032b906001600160a01b031681565b61035560095481565b61034b6104a3366004612f42565b610c9b565b6104bb6104b6366004612ea6565b610cc1565b60405163ffffffff90911681526020016102e6565b6103556104de366004612ea6565b610ce9565b6103556104f1366004612ea6565b60116020526000908152604090205481565b61034b610511366004612ea6565b610d17565b6103556303c2670081565b61035561052f366004612ea6565b600d6020526000908152604090205481565b61034b61054f366004612f67565b610e54565b60025461032b906001600160a01b031681565b61034b610575366004612f9c565b610e7f565b610355610588366004612f9c565b610f87565b6102d9610fb3565b6105c46105a3366004612f9c565b600b6020526000908152604090208054600182015460029092015490919083565b604080519384526020840192909252908201526060016102e6565b6103556105ed366004612ea6565b610fc0565b610355610600366004612f9c565b611032565b60075461032b906001600160a01b031681565b6103556201518081565b610302610396366004612e44565b61034b61063e366004612ea6565b61106c565b61034b610651366004612fcb565b611111565b61034b6106643660046130c8565b611418565b610355610677366004612ea6565b600c6020526000908152604090205481565b61034b610697366004612f9c565b6116a0565b60065461032b906001600160a01b031681565b6103026106bd366004612f9c565b611745565b610355610406366004613164565b6103556106de366004612f9c565b6117a8565b6106f66106f1366004613192565b6117f1565b60408051825163ffffffff16815260209283015192810192909252016102e6565b61034b61186d565b6102d9604051806040016040528060058152602001640312e302e360dc1b81525081565b60038054610750906131c9565b80601f016020809104026020016040519081016040528092919081815260200182805461077c906131c9565b80156107c95780601f1061079e576101008083540402835291602001916107c9565b820191906000526020600020905b8154815290600101906020018083116107ac57829003601f168201915b505050505081565b60405162461bcd60e51b8152602060048201526016602482015275185c1c1c9bdd985b0b5b9bdd0b5cdd5c1c1bdc9d195960521b60448201526000906064015b60405180910390fd5b61082261193d565b3361082c81611997565b610837818484611a0d565b506108426001600055565b5050565b60006008546009546108589190613214565b905090565b61086561193d565b61086e81611997565b61087781611e74565b6108816001600055565b50565b60405162461bcd60e51b81526020600482015260166024820152751d1c985b9cd9995c8b5b9bdd0b5cdd5c1c1bdc9d195960521b6044820152600090606401610811565b6001546001600160a01b03620100009091041633146108f95760405162461bcd60e51b81526004016108119061322c565b6007546001600160a01b0316156109485760405162461bcd60e51b8152602060048201526013602482015272185b1c9958591e4b5a5b9a5d1a585b1a5e9959606a1b6044820152606401610811565b6001600160a01b0381166109905760405162461bcd60e51b815260206004820152600f60248201526e1859191c995cdccb5a5ccb5b9d5b1b608a1b6044820152606401610811565b600780546001600160a01b0319166001600160a01b0392909216919091179055565b60405162461bcd60e51b8152602060048201526017602482015276185b1b1bddd85b98d94b5b9bdd0b5cdd5c1c1bdc9d1959604a1b6044820152600090606401610811565b6000438210610a185760405162461bcd60e51b815260040161081190613252565b6001600160a01b0383166000908152600f60205260409020610a3a9083611fd3565b9392505050565b6006546001600160a01b0316336001600160a01b031614610a935760405162461bcd60e51b815260206004820152600c60248201526b6e6f742d657376737037323160a01b6044820152606401610811565b6006546040516331a9108f60e11b8152600481018490526000916001600160a01b031690636352211e9060240160206040518083038186803b158015610ad857600080fd5b505afa158015610aec573d6000803e3d6000fd5b505050506040513d601f19601f82011682018060405250810190610b109190613289565b9050610b1b81611997565b610b2482611997565b6000838152600b60209081526040808320815160608101835281548082526001830154828601819052600290930154828501526001600160a01b0387168652600c909452918420805492949192849290610b7f9084906132a6565b90915550506001600160a01b0384166000908152600d602052604081208054839290610bac9084906132a6565b90915550506001600160a01b0385166000908152600c602052604081208054849290610bd9908490613214565b90915550506001600160a01b0385166000908152600d602052604081208054839290610c06908490613214565b9091555060009050610c188284613214565b6001600160a01b038087166000908152600e6020526040808220548a84168352912054929350610c4d92908216911683612081565b856001600160a01b0316856001600160a01b031660008051602061343583398151915283604051610c8091815260200190565b60405180910390a350505050505050565b61088133826121be565b610ca361193d565b610cac33611997565b610cb7828215612230565b6108426001600055565b6001600160a01b0381166000908152600f6020526040812054610ce390612307565b92915050565b6001600160a01b0381166000908152600d6020908152604080832054600c909252822054610ce39190613214565b6001546001600160a01b0362010000909104163314610d485760405162461bcd60e51b81526004016108119061322c565b6001600160a01b038116610d8d5760405162461bcd60e51b815260206004820152600c60248201526b1859191c995cdccb5b9d5b1b60a21b6044820152606401610811565b6005546001600160a01b0382811691161415610deb5760405162461bcd60e51b815260206004820152601a60248201527f616464726573732d69732d73616d652d61732d63757272656e740000000000006044820152606401610811565b600554604080516001600160a01b03928316815291831660208301527f4ab5be82436d353e61ca18726e984e561f5c1cc7c6d38b29d2553c790434705a910160405180910390a1600580546001600160a01b0319166001600160a01b0392909216919091179055565b610e5c61193d565b610e6583611997565b610e70838383611a0d565b610e7a6001600055565b505050565b6001546001600160a01b0362010000909104163314610eb05760405162461bcd60e51b81526004016108119061322c565b670de0b6b3a7640000811115610efb5760405162461bcd60e51b815260206004820152601060248201526f657869742d6665652d67742d3130302560801b6044820152606401610811565b600a54811415610f465760405162461bcd60e51b81526020600482015260166024820152751999594b5a5ccb5cd85b594b585ccb58dd5c9c995b9d60521b6044820152606401610811565b600a5460408051918252602082018390527f40a1b57526b8108990c3b8bdc1a76477678cc96d824146b9af3f9799bb3d50a1910160405180910390a1600a55565b6000438210610fa85760405162461bcd60e51b815260040161081190613252565b610ce3601083611fd3565b60048054610750906131c9565b6001600160a01b0381166000908152600f60205260408120548015611029576001600160a01b0383166000908152600f602052604090206110026001836132a6565b81548110611012576110126132bd565b906000526020600020906002020160010154610a3a565b60009392505050565b6000818152600b602090815260408083208151606081018352815481526001820154938101939093526002015490820152610ce390612370565b6001546001600160a01b036201000090910416331461109d5760405162461bcd60e51b81526004016108119061322c565b6001600160a01b0381166110ef5760405162461bcd60e51b815260206004820152601960248201527870726f706f7365642d676f7665726e6f722d69732d7a65726f60381b6044820152606401610811565b600280546001600160a01b0319166001600160a01b0392909216919091179055565b60007f8b73c3c69bb8fe3d512ecc4cf759cc79239f7b179b0ffacaa9a75d522b39400f600360405161114391906132d3565b60408051918290038220828201825260018352603160f81b602093840152815180840194909452838201527fc89efdaa54c0f20c7adf612882df0950f5a951637e0307cdcb4c672f298b8bc660608401524660808401523060a0808501919091528151808503909101815260c0840182528051908301207fe48329057bfd03d55e49b547132e39cffd9c1820ad7b9d4c5307691425d15adf60e08501526001600160a01b038b1661010085015261012084018a90526101408085018a90528251808603909101815261016085019092528151919092012061190160f01b61018084015261018283018290526101a28301819052909250906000906101c20160408051601f198184030181528282528051602091820120600080855291840180845281905260ff8a169284019290925260608301889052608083018790529092509060019060a0016020604051602081039080840390855afa1580156112ac573d6000803e3d6000fd5b5050604051601f1901519150506001600160a01b03811661131f5760405162461bcd60e51b815260206004820152602760248201527f45535653503a3a64656c656761746542795369673a20696e76616c6964207369604482015266676e617475726560c81b6064820152608401610811565b6001600160a01b03811660009081526011602052604081208054916113438361336f565b9190505589146113a15760405162461bcd60e51b815260206004820152602360248201527f45535653503a3a64656c656761746542795369673a20696e76616c6964206e6f6044820152626e636560e81b6064820152608401610811565b874211156114015760405162461bcd60e51b815260206004820152602760248201527f45535653503a3a64656c656761746542795369673a207369676e617475726520604482015266195e1c1a5c995960ca1b6064820152608401610811565b61140b818b6121be565b505050505b505050505050565b600154610100900460ff161580801561143557506001805460ff16105b8061144e5750303b15801561144e57506001805460ff16145b6114b15760405162461bcd60e51b815260206004820152602e60248201527f496e697469616c697a61626c653a20636f6e747261637420697320616c72656160448201526d191e481a5b9a5d1a585b1a5e995960921b6064820152608401610811565b6001805460ff19168117905580156114d3576001805461ff0019166101001790555b6001600160a01b03831661151c5760405162461bcd60e51b815260206004820152601060248201526f195cd594d40dcc8c4b5a5ccb5b9d5b1b60821b6044820152606401610811565b6001600160a01b0382166115655760405162461bcd60e51b815260206004820152601060248201526f1d1c99585cdd5c9e4b5a5ccb5b9d5b1b60821b6044820152606401610811565b61156d6123a1565b8551611580906003906020890190612d40565b508451611594906004906020880190612d40565b506002805460ff8616600160a01b0260ff60a01b19909116179055600680546001600160a01b038086166001600160a01b0319928316179092556706f05b59d3b20000600a5560058054928516929091169190911790556040516317066a5760e21b8152731b40183efb4dd766f11bda7a7c3ad8982e99842190635c19a95c90611622903090600401612e70565b600060405180830381600087803b15801561163c57600080fd5b505af1158015611650573d6000803e3d6000fd5b505050508015611410576001805461ff00191681556040519081527f7f26b83ff96e1f2b6a682f133852f6798a09c465da95921460cefb38474024989060200160405180910390a1505050505050565b6116a861193d565b6006546040516331a9108f60e11b8152600481018390526000916001600160a01b031690636352211e9060240160206040518083038186803b1580156116ed57600080fd5b505afa158015611701573d6000803e3d6000fd5b505050506040513d601f19601f820116820180604052508101906117259190613289565b905061173081611997565b61173a8282612466565b506108816001600055565b6000818152600b6020908152604080832081516060810183528154815260018201549381019390935260020154908201528161178082612370565b826040015161178f91906132a6565b905061179e6201518082613214565b4211949350505050565b6000818152600b60209081526040808320815160608101835281548152600182015493810193909352600201549082018190524210156117eb57610a3a81612472565b50919050565b60408051808201909152600080825260208201526001600160a01b0383166000908152600f60205260409020805463ffffffff8416908110611835576118356132bd565b600091825260209182902060408051808201909152600290920201805463ffffffff1682526001015491810191909152905092915050565b6002546001600160a01b031633146118c35760405162461bcd60e51b81526020600482015260196024820152783737ba16ba343296b83937b837b9b2b216b3b7bb32b93737b960391b6044820152606401610811565b6002546001546040516001600160a01b039283169262010000909204909116907fd4459d5b8b913cab0244230fd9b1c08b6ceace7fe9230e60d0f74cbffdf849d090600090a3600280546001805462010000600160b01b0319166001600160a01b03831662010000021790556001600160a01b0319169055565b600260005414156119905760405162461bcd60e51b815260206004820152601f60248201527f5265656e7472616e637947756172643a207265656e7472616e742063616c6c006044820152606401610811565b6002600055565b6007546001600160a01b0316156108815760075460405163632447c960e01b81526001600160a01b039091169063632447c9906119d8908490600401612e70565b600060405180830381600087803b1580156119f257600080fd5b505af1158015611a06573d6000803e3d6000fd5b5050505050565b60008211611a4e5760405162461bcd60e51b815260206004820152600e60248201526d616d6f756e742d69732d7a65726f60901b6044820152606401610811565b62093a808111611a995760405162461bcd60e51b81526020600482015260166024820152756c6f636b2d706572696f642d6c742d6d696e696d756d60501b6044820152606401610811565b6303c26700811115611ae65760405162461bcd60e51b81526020600482015260166024820152756c6f636b2d706572696f642d67742d6d6178696d756d60501b6044820152606401610811565b6040516370a0823160e01b8152600090731b40183efb4dd766f11bda7a7c3ad8982e998421906370a0823190611b20903090600401612e70565b60206040518083038186803b158015611b3857600080fd5b505afa158015611b4c573d6000803e3d6000fd5b505050506040513d601f19601f82011682018060405250810190611b70919061338a565b9050611b92731b40183efb4dd766f11bda7a7c3ad8982e9984213330866124ef565b6040516370a0823160e01b81526000908290731b40183efb4dd766f11bda7a7c3ad8982e998421906370a0823190611bce903090600401612e70565b60206040518083038186803b158015611be657600080fd5b505afa158015611bfa573d6000803e3d6000fd5b505050506040513d601f19601f82011682018060405250810190611c1e919061338a565b611c2891906132a6565b905060006303c267006004611c3d86856133a3565b611c4791906133a3565b611c5191906133c2565b6001600160a01b0387166000908152600c6020526040812080549293508492909190611c7e908490613214565b90915550506001600160a01b0386166000908152600d602052604081208054839290611cab908490613214565b925050819055508160086000828254611cc49190613214565b925050819055508060096000828254611cdd9190613214565b9091555060009050611cef8284613214565b9050611cff60106125608361256c565b50506001600160a01b038088166000908152600e6020526040812054611d26921683612081565b6006546040516335313c2160e11b81526000916001600160a01b031690636a62784290611d57908b90600401612e70565b602060405180830381600087803b158015611d7157600080fd5b505af1158015611d85573d6000803e3d6000fd5b505050506040513d601f19601f82011682018060405250810190611da9919061338a565b905060405180606001604052808581526020018481526020018742611dce9190613214565b90526000828152600b60209081526040808320845181558483015160018201559381015160029094019390935591518481526001600160a01b038b1692600080516020613435833981519152910160405180910390a360408051888152602081018890526001600160a01b038a169183917faa9ebde20f0514c177b5333c75b05a899f29679313ee2851ee0b7fe9aee727b2910160405180910390a35050505050505050565b6006546040516370a0823160e01b81526000916001600160a01b0316906370a0823190611ea5908590600401612e70565b60206040518083038186803b158015611ebd57600080fd5b505afa158015611ed1573d6000803e3d6000fd5b505050506040513d601f19601f82011682018060405250810190611ef5919061338a565b905060005b81811015610e7a57600654604051632f745c5960e01b81526001600160a01b038581166004830152602482018490526000921690632f745c599060440160206040518083038186803b158015611f4f57600080fd5b505afa158015611f63573d6000803e3d6000fd5b505050506040513d601f19601f82011682018060405250810190611f87919061338a565b6000818152600b6020526040902060020154909150421115611fbf57611fad8185612466565b82611fb7816133e4565b935050611fcd565b81611fc98161336f565b9250505b50611efa565b8154600090815b8181101561203c576000611fee82846126c8565b905084868281548110612003576120036132bd565b600091825260209091206002909102015463ffffffff16111561202857809250612036565b612033816001613214565b91505b50611fda565b8115612075578461204e6001846132a6565b8154811061205e5761205e6132bd565b906000526020600020906002020160010154612078565b60005b95945050505050565b816001600160a01b0316836001600160a01b0316141580156120a35750600081115b15610e7a576001600160a01b03831615612131576001600160a01b0383166000908152600f6020526040812081906120de906126e38561256c565b91509150846001600160a01b03167fdec2bacdd2f05b59de34da9b523dff8be42e5e38e818c82fdb0bae774387a7248383604051612126929190918252602082015260400190565b60405180910390a250505b6001600160a01b03821615610e7a576001600160a01b0382166000908152600f602052604081208190612167906125608561256c565b91509150836001600160a01b03167fdec2bacdd2f05b59de34da9b523dff8be42e5e38e818c82fdb0bae774387a72483836040516121af929190918252602082015260400190565b60405180910390a25050505050565b6001600160a01b038083166000818152600e602052604080822080548686166001600160a01b0319821681179092559151919094169392849290917f3134e8a2e6d97e929a7e54011ea5485d7d196dd5f0ba4d4ef95803e8e3fc257f9190a4610e7a818361222b86610ce9565b612081565b6006546040516331a9108f60e11b8152600481018490526000916001600160a01b031690636352211e9060240160206040518083038186803b15801561227557600080fd5b505afa158015612289573d6000803e3d6000fd5b505050506040513d601f19601f820116820180604052508101906122ad9190613289565b9050336001600160a01b038216146122fc5760405162461bcd60e51b81526020600482015260126024820152713737ba16b837b9b4ba34b7b716b7bbb732b960711b6044820152606401610811565b610e7a8383836126ef565b600063ffffffff82111561236c5760405162461bcd60e51b815260206004820152602660248201527f53616665436173743a2076616c756520646f65736e27742066697420696e203360448201526532206269747360d01b6064820152608401610811565b5090565b6000816000015160046303c26700846020015161238d91906133a3565b61239791906133c2565b610ce391906133c2565b600154610100900460ff1661240c5760405162461bcd60e51b815260206004820152602b60248201527f496e697469616c697a61626c653a20636f6e7472616374206973206e6f74206960448201526a6e697469616c697a696e6760a81b6064820152608401610811565b600180546201000033810262010000600160b01b0319909216919091179182905560405191046001600160a01b0316906000907fd4459d5b8b913cab0244230fd9b1c08b6ceace7fe9230e60d0f74cbffdf849d0908290a3565b610842826001836126ef565b60008061247e83612370565b42846040015161248e91906132a6565b6124a090670de0b6b3a76400006133a3565b6124aa91906133c2565b9050670de0b6b3a764000081670de0b6b3a7640000600a5486600001516124d191906133a3565b6124db91906133c2565b6124e591906133a3565b610a3a91906133c2565b6040516001600160a01b038085166024830152831660448201526064810182905261255a9085906323b872dd60e01b906084015b60408051601f198184030181529190526020810180516001600160e01b03166001600160e01b031990931692909217909152612a48565b50505050565b6000610a3a8284613214565b8254600090819080156125ac57856125856001836132a6565b81548110612595576125956132bd565b9060005260206000209060020201600101546125af565b60005b92506125bf83858763ffffffff16565b9150600081118015612602575043866125d96001846132a6565b815481106125e9576125e96132bd565b600091825260209091206002909102015463ffffffff16145b1561264f5761261082612b1a565b6001600160e01b0316866126256001846132a6565b81548110612635576126356132bd565b9060005260206000209060020201600101819055506126bf565b85604051806040016040528061266443612307565b63ffffffff16815260200161267885612b1a565b6001600160e01b0316905281546001808201845560009384526020938490208351600290930201805463ffffffff191663ffffffff90931692909217825591909201519101555b50935093915050565b60006126d760028484186133c2565b610a3a90848416613214565b6000610a3a82846132a6565b6000838152600b60209081526040918290208251606081018452815481526001820154928101929092526002015491810182905290428110841561276d578061276d5760405162461bcd60e51b815260206004820152601060248201526f1b9bdd0b5d5b9b1bd8dad9590b5e595d60821b6044820152606401610811565b600061277884612370565b61278290846132a6565b90506127916201518082613214565b42116127df5760405162461bcd60e51b815260206004820152601d60248201527f636f6f6c2d646f776e2d706572696f642d6469642d6e6f742d706173730000006044820152606401610811565b83516020850151600654604051630852cd8d60e31b8152600481018b90526001600160a01b03909116906342966c6890602401600060405180830381600087803b15801561282c57600080fd5b505af1158015612840573d6000803e3d6000fd5b50505060008a8152600b60209081526040808320838155600181018490556002018390556001600160a01b038b168352600c9091528120805485935090919061288a9084906132a6565b9250508190555081600860008282546128a391906132a6565b90915550506001600160a01b0387166000908152600d6020526040812080548392906128d09084906132a6565b9250508190555080600960008282546128e991906132a6565b90915550600090506128fb8284613214565b905061290b60106126e38361256c565b50506001600160a01b038089166000908152600e602052604081205461293392169083612081565b828515801561294457506000600a54115b1561299757600061295489612472565b905080156129955760055461298890731b40183efb4dd766f11bda7a7c3ad8982e998421906001600160a01b031683612b83565b61299281836132a6565b91505b505b6129b6731b40183efb4dd766f11bda7a7c3ad8982e9984218a83612b83565b6040518281526000906001600160a01b038b16906000805160206134358339815191529060200160405180910390a36001600160a01b0389168b7f44f700cec0bb711c24ed0116f7138a25f29e22864f0acb0506083e3354202e458684612a1d81836132a6565b6040805193845260208401929092529082015260600160405180910390a35050505050505050505050565b6000612a9d826040518060400160405280602081526020017f5361666545524332303a206c6f772d6c6576656c2063616c6c206661696c6564815250856001600160a01b0316612bb39092919063ffffffff16565b805190915015610e7a5780806020019051810190612abb91906133fb565b610e7a5760405162461bcd60e51b815260206004820152602a60248201527f5361666545524332303a204552433230206f7065726174696f6e20646964206e6044820152691bdd081cdd58d8d9595960b21b6064820152608401610811565b60006001600160e01b0382111561236c5760405162461bcd60e51b815260206004820152602760248201527f53616665436173743a2076616c756520646f65736e27742066697420696e20326044820152663234206269747360c81b6064820152608401610811565b6040516001600160a01b038316602482015260448101829052610e7a90849063a9059cbb60e01b90606401612523565b6060612bc28484600085612bca565b949350505050565b606082471015612c2b5760405162461bcd60e51b815260206004820152602660248201527f416464726573733a20696e73756666696369656e742062616c616e636520666f6044820152651c8818d85b1b60d21b6064820152608401610811565b600080866001600160a01b03168587604051612c479190613418565b60006040518083038185875af1925050503d8060008114612c84576040519150601f19603f3d011682016040523d82523d6000602084013e612c89565b606091505b5091509150612c9a87838387612ca5565b979650505050505050565b60608315612d11578251612d0a576001600160a01b0385163b612d0a5760405162461bcd60e51b815260206004820152601d60248201527f416464726573733a2063616c6c20746f206e6f6e2d636f6e74726163740000006044820152606401610811565b5081612bc2565b612bc28383815115612d265781518083602001fd5b8060405162461bcd60e51b81526004016108119190612dfc565b828054612d4c906131c9565b90600052602060002090601f016020900481019282612d6e5760008555612db4565b82601f10612d8757805160ff1916838001178555612db4565b82800160010185558215612db4579182015b82811115612db4578251825591602001919060010190612d99565b5061236c9291505b8082111561236c5760008155600101612dbc565b60005b83811015612deb578181015183820152602001612dd3565b8381111561255a5750506000910152565b6020815260008251806020840152612e1b816040850160208701612dd0565b601f01601f19169190910160400192915050565b6001600160a01b038116811461088157600080fd5b60008060408385031215612e5757600080fd5b8235612e6281612e2f565b946020939093013593505050565b6001600160a01b0391909116815260200190565b60008060408385031215612e9757600080fd5b50508035926020909101359150565b600060208284031215612eb857600080fd5b8135610a3a81612e2f565b600080600060608486031215612ed857600080fd5b8335612ee381612e2f565b92506020840135612ef381612e2f565b929592945050506040919091013590565b60008060408385031215612f1757600080fd5b823591506020830135612f2981612e2f565b809150509250929050565b801515811461088157600080fd5b60008060408385031215612f5557600080fd5b823591506020830135612f2981612f34565b600080600060608486031215612f7c57600080fd5b8335612f8781612e2f565b95602085013595506040909401359392505050565b600060208284031215612fae57600080fd5b5035919050565b803560ff81168114612fc657600080fd5b919050565b60008060008060008060c08789031215612fe457600080fd5b8635612fef81612e2f565b9550602087013594506040870135935061300b60608801612fb5565b92506080870135915060a087013590509295509295509295565b634e487b7160e01b600052604160045260246000fd5b600082601f83011261304c57600080fd5b813567ffffffffffffffff8082111561306757613067613025565b604051601f8301601f19908116603f0116810190828211818310171561308f5761308f613025565b816040528381528660208588010111156130a857600080fd5b836020870160208301376000602085830101528094505050505092915050565b600080600080600060a086880312156130e057600080fd5b853567ffffffffffffffff808211156130f857600080fd5b61310489838a0161303b565b9650602088013591508082111561311a57600080fd5b506131278882890161303b565b94505061313660408701612fb5565b9250606086013561314681612e2f565b9150608086013561315681612e2f565b809150509295509295909350565b6000806040838503121561317757600080fd5b823561318281612e2f565b91506020830135612f2981612e2f565b600080604083850312156131a557600080fd5b82356131b081612e2f565b9150602083013563ffffffff81168114612f2957600080fd5b600181811c908216806131dd57607f821691505b602082108114156117eb57634e487b7160e01b600052602260045260246000fd5b634e487b7160e01b600052601160045260246000fd5b60008219821115613227576132276131fe565b500190565b6020808252600c908201526b3737ba16b3b7bb32b93737b960a11b604082015260600190565b6020808252601f908201527f4552433230566f7465733a20626c6f636b206e6f7420796574206d696e656400604082015260600190565b60006020828403121561329b57600080fd5b8151610a3a81612e2f565b6000828210156132b8576132b86131fe565b500390565b634e487b7160e01b600052603260045260246000fd5b600080835481600182811c9150808316806132ef57607f831692505b602080841082141561330f57634e487b7160e01b86526022600452602486fd5b818015613323576001811461333457613361565b60ff19861689528489019650613361565b60008a81526020902060005b868110156133595781548b820152908501908301613340565b505084890196505b509498975050505050505050565b6000600019821415613383576133836131fe565b5060010190565b60006020828403121561339c57600080fd5b5051919050565b60008160001904831182151516156133bd576133bd6131fe565b500290565b6000826133df57634e487b7160e01b600052601260045260246000fd5b500490565b6000816133f3576133f36131fe565b506000190190565b60006020828403121561340d57600080fd5b8151610a3a81612f34565b6000825161342a818460208701612dd0565b919091019291505056feddf252ad1be2c89b69c2b068fc378daa952ba7f163c4a11628f55a4df523b3efa2646970667358221220637a7876c1d38006925121677b833c413d7b46b0821fbfd4b12b0c522738228464736f6c63430008090033",
  "devdoc": {
    "kind": "dev",
    "methods": {
      "acceptGovernorship()": {
        "details": "Allows new governor to accept governorship of the contract."
      },
      "balanceOf(address)": {
        "params": {
          "account_": "The account"
        },
        "returns": {
          "_0": "user's total VSP balance."
        }
      },
      "calculateExitPenalty(uint256)": {
        "params": {
          "tokenId_": "The position/token id"
        }
      },
      "canUnlock(uint256)": {
        "params": {
          "tokenId_": "ERC721 tokenId"
        }
      },
      "checkpoints(address,uint32)": {
        "details": "Get the `pos`-th checkpoint for `account`."
      },
      "delegate(address)": {
        "details": "Delegate votes from the sender to `delegatee`."
      },
      "delegateBySig(address,uint256,uint256,uint8,bytes32,bytes32)": {
        "details": "Delegates votes from signatory to `delegatee`",
        "params": {
          "delegatee": "The address to delegate votes to",
          "expiry": "The time at which to expire the signature",
          "nonce": "The contract state required to match the signature",
          "r": "Half of the ECDSA signature pair",
          "s": "Half of the ECDSA signature pair",
          "v": "The recovery byte of the signature"
        }
      },
      "delegates(address)": {
        "details": "Get the address `account` is currently delegating to."
      },
      "getLockedPeriodOf(uint256)": {
        "params": {
          "tokenId_": "The position/token id"
        }
      },
      "getPastTotalSupply(uint256)": {
        "details": "Retrieve the `totalSupply` at the end of `blockNumber`. Note, this value is the sum of all balances. It is but NOT the sum of all the delegated votes! Requirements: - `blockNumber` must have been already mined"
      },
      "getPastVotes(address,uint256)": {
        "details": "Retrieve the number of votes for `account` at the end of `blockNumber`. Requirements: - `blockNumber` must have been already mined"
      },
      "getVotes(address)": {
        "details": "Gets the current votes balance for `account`"
      },
      "initializeRewards(address)": {
        "details": "Called once",
        "params": {
          "rewards_": "The new contract"
        }
      },
      "kick(uint256)": {
        "params": {
          "tokenId_": "ERC721 tokenId"
        }
      },
      "kickAllExpiredOf(address)": {
        "params": {
          "account_": "The target account"
        }
      },
      "lock(uint256,uint256)": {
        "params": {
          "amount_": "The VSP amount to lock",
          "lockPeriod_": "The lock period"
        }
      },
      "lockFor(address,uint256,uint256)": {
        "params": {
          "amount_": "The VSP amount to lock",
          "lockPeriod_": "The lock period"
        }
      },
      "numCheckpoints(address)": {
        "details": "Get number of checkpoints for `account`."
      },
      "transferGovernorship(address)": {
        "details": "Transfers governorship of the contract to a new account (`proposedGovernor`). Can only be called by the current owner."
      },
      "transferPosition(uint256,address)": {
        "details": "Revert if caller isn't the esVSP721 contract",
        "params": {
          "to_": "The recipient",
          "tokenId_": "The position (NFT) to transfer"
        }
      },
      "unlock(uint256,bool)": {
        "params": {
          "beforeUnlockTime_": "When `true` unlock before expiration and pays exit penalty",
          "tokenId_": "ERC721 tokenId"
        }
      },
      "updateExitPenalty(uint256)": {
        "params": {
          "exitPenalty_": "The new exit penalty"
        }
      },
      "updateTreasury(address)": {
        "params": {
          "treasury_": "The new treasury address"
        }
      }
    },
    "title": "Non-transferable escrowed VSP.",
    "version": 1
  },
  "userdoc": {
    "events": {
      "ExitPenaltyUpdated(uint256,uint256)": {
        "notice": "Emitted when the exit penalty is updated"
      },
      "TreasuryUpdated(address,address)": {
        "notice": "Emitted when the treasury address is updated"
      },
      "VspLocked(uint256,address,uint256,uint256)": {
        "notice": "Emitted when a new position is created (i.e. when user locks VSP)"
      },
      "VspUnlocked(uint256,address,uint256,uint256,uint256)": {
        "notice": "Emitted when a position is burned due to unlock or kick"
      }
    },
    "kind": "user",
    "methods": {
      "allowance(address,address)": {
        "notice": "Methods not supported *"
      },
      "balanceOf(address)": {
        "notice": "Get total(locked + boosted) VSP balance of user. This is different than ESVSP721.balanceOf(). It is sum of - total locked VSP:: sum of locked VSP in each ESVSP721 token, position, of user. - total boosted VSP:: sum of boosted amount of VSP in each ESVSP721 token, position, of user."
      },
      "boosted(address)": {
        "notice": "Total boosted amount by user among all his positions"
      },
      "calculateExitPenalty(uint256)": {
        "notice": "Calculate exit penalty for a position"
      },
      "canUnlock(uint256)": {
        "notice": "This function returns true if position can be unlocked."
      },
      "esVSP721()": {
        "notice": "NFT contract"
      },
      "exitPenalty()": {
        "notice": "Fee paid when withdrawing. Decreases linearly as period finish approaches."
      },
      "getLockedPeriodOf(uint256)": {
        "notice": "Get the lock period"
      },
      "initializeRewards(address)": {
        "notice": "Initialize the Rewards contract"
      },
      "kick(uint256)": {
        "notice": "Burn an expired position and send locked amount to the owner"
      },
      "kickAllExpiredOf(address)": {
        "notice": "Kick all expired positions from a given account"
      },
      "lock(uint256,uint256)": {
        "notice": "Lock VSP to get boosted revenue and voting power. Lock VSP and generate users position by minting ERC721"
      },
      "lockFor(address,uint256,uint256)": {
        "notice": "Lock VSP to get boosted revenue and voting power. Lock VSP and generate users position by minting ERC721"
      },
      "locked(address)": {
        "notice": "Total VSP locked by user among all his positions"
      },
      "nonces(address)": {
        "notice": "A record of states for signing / validating signatures"
      },
      "positions(uint256)": {
        "notice": "Lock positions"
      },
      "rewards()": {
        "notice": "Rewards contract"
      },
      "totalBoosted()": {
        "notice": "Total boosted amount"
      },
      "totalLocked()": {
        "notice": "Total VSP locked"
      },
      "totalSupply()": {
        "notice": "Total Supply is some of total boosted and total locked"
      },
      "transferPosition(uint256,address)": {
        "notice": "Transfer position (i.e. locked and boosted amounts) between accounts"
      },
      "treasury()": {
        "notice": "The treasury contract (will receive exit penalty collected)"
      },
      "unlock(uint256,bool)": {
        "notice": "Unlock VSP by burning given ERC721 tokenId_"
      },
      "updateExitPenalty(uint256)": {
        "notice": "Update exit penalty"
      },
      "updateTreasury(address)": {
        "notice": "Update treasury contract"
      }
    },
    "version": 1
  },
  "storageLayout": {
    "storage": [
      {
        "astId": 2081,
        "contract": "contracts/ESVSP.sol:ESVSP",
        "label": "_status",
        "offset": 0,
        "slot": "0",
        "type": "t_uint256"
      },
      {
        "astId": 1908,
        "contract": "contracts/ESVSP.sol:ESVSP",
        "label": "_initialized",
        "offset": 0,
        "slot": "1",
        "type": "t_uint8"
      },
      {
        "astId": 1911,
        "contract": "contracts/ESVSP.sol:ESVSP",
        "label": "_initializing",
        "offset": 1,
        "slot": "1",
        "type": "t_bool"
      },
      {
        "astId": 1807,
        "contract": "contracts/ESVSP.sol:ESVSP",
        "label": "governor",
        "offset": 2,
        "slot": "1",
        "type": "t_address"
      },
      {
        "astId": 1809,
        "contract": "contracts/ESVSP.sol:ESVSP",
        "label": "proposedGovernor",
        "offset": 0,
        "slot": "2",
        "type": "t_address"
      },
      {
        "astId": 5651,
        "contract": "contracts/ESVSP.sol:ESVSP",
        "label": "decimals",
        "offset": 20,
        "slot": "2",
        "type": "t_uint8"
      },
      {
        "astId": 5653,
        "contract": "contracts/ESVSP.sol:ESVSP",
        "label": "name",
        "offset": 0,
        "slot": "3",
        "type": "t_string_storage"
      },
      {
        "astId": 5655,
        "contract": "contracts/ESVSP.sol:ESVSP",
        "label": "symbol",
        "offset": 0,
        "slot": "4",
        "type": "t_string_storage"
      },
      {
        "astId": 5658,
        "contract": "contracts/ESVSP.sol:ESVSP",
        "label": "treasury",
        "offset": 0,
        "slot": "5",
        "type": "t_address"
      },
      {
        "astId": 5662,
        "contract": "contracts/ESVSP.sol:ESVSP",
        "label": "esVSP721",
        "offset": 0,
        "slot": "6",
        "type": "t_contract(IESVSP721)5555"
      },
      {
        "astId": 5666,
        "contract": "contracts/ESVSP.sol:ESVSP",
        "label": "rewards",
        "offset": 0,
        "slot": "7",
        "type": "t_contract(IRewards)5625"
      },
      {
        "astId": 5670,
        "contract": "contracts/ESVSP.sol:ESVSP",
        "label": "totalLocked",
        "offset": 0,
        "slot": "8",
        "type": "t_uint256"
      },
      {
        "astId": 5674,
        "contract": "contracts/ESVSP.sol:ESVSP",
        "label": "totalBoosted",
        "offset": 0,
        "slot": "9",
        "type": "t_uint256"
      },
      {
        "astId": 5677,
        "contract": "contracts/ESVSP.sol:ESVSP",
        "label": "exitPenalty",
        "offset": 0,
        "slot": "10",
        "type": "t_uint256"
      },
      {
        "astId": 5683,
        "contract": "contracts/ESVSP.sol:ESVSP",
        "label": "positions",
        "offset": 0,
        "slot": "11",
        "type": "t_mapping(t_uint256,t_struct(LockPosition)5649_storage)"
      },
      {
        "astId": 5689,
        "contract": "contracts/ESVSP.sol:ESVSP",
        "label": "locked",
        "offset": 0,
        "slot": "12",
        "type": "t_mapping(t_address,t_uint256)"
      },
      {
        "astId": 5695,
        "contract": "contracts/ESVSP.sol:ESVSP",
        "label": "boosted",
        "offset": 0,
        "slot": "13",
        "type": "t_mapping(t_address,t_uint256)"
      },
      {
        "astId": 5705,
        "contract": "contracts/ESVSP.sol:ESVSP",
        "label": "_delegates",
        "offset": 0,
        "slot": "14",
        "type": "t_mapping(t_address,t_address)"
      },
      {
        "astId": 5712,
        "contract": "contracts/ESVSP.sol:ESVSP",
        "label": "_checkpoints",
        "offset": 0,
        "slot": "15",
        "type": "t_mapping(t_address,t_array(t_struct(Checkpoint)5700_storage)dyn_storage)"
      },
      {
        "astId": 5716,
        "contract": "contracts/ESVSP.sol:ESVSP",
        "label": "_totalSupplyCheckpoints",
        "offset": 0,
        "slot": "16",
        "type": "t_array(t_struct(Checkpoint)5700_storage)dyn_storage"
      },
      {
        "astId": 5721,
        "contract": "contracts/ESVSP.sol:ESVSP",
        "label": "nonces",
        "offset": 0,
        "slot": "17",
        "type": "t_mapping(t_address,t_uint256)"
      }
    ],
    "types": {
      "t_address": {
        "encoding": "inplace",
        "label": "address",
        "numberOfBytes": "20"
      },
      "t_array(t_struct(Checkpoint)5700_storage)dyn_storage": {
        "base": "t_struct(Checkpoint)5700_storage",
        "encoding": "dynamic_array",
        "label": "struct ESVSPStorageV1.Checkpoint[]",
        "numberOfBytes": "32"
      },
      "t_bool": {
        "encoding": "inplace",
        "label": "bool",
        "numberOfBytes": "1"
      },
      "t_contract(IESVSP721)5555": {
        "encoding": "inplace",
        "label": "contract IESVSP721",
        "numberOfBytes": "20"
      },
      "t_contract(IRewards)5625": {
        "encoding": "inplace",
        "label": "contract IRewards",
        "numberOfBytes": "20"
      },
      "t_mapping(t_address,t_address)": {
        "encoding": "mapping",
        "key": "t_address",
        "label": "mapping(address => address)",
        "numberOfBytes": "32",
        "value": "t_address"
      },
      "t_mapping(t_address,t_array(t_struct(Checkpoint)5700_storage)dyn_storage)": {
        "encoding": "mapping",
        "key": "t_address",
        "label": "mapping(address => struct ESVSPStorageV1.Checkpoint[])",
        "numberOfBytes": "32",
        "value": "t_array(t_struct(Checkpoint)5700_storage)dyn_storage"
      },
      "t_mapping(t_address,t_uint256)": {
        "encoding": "mapping",
        "key": "t_address",
        "label": "mapping(address => uint256)",
        "numberOfBytes": "32",
        "value": "t_uint256"
      },
      "t_mapping(t_uint256,t_struct(LockPosition)5649_storage)": {
        "encoding": "mapping",
        "key": "t_uint256",
        "label": "mapping(uint256 => struct ESVSPStorageV1.LockPosition)",
        "numberOfBytes": "32",
        "value": "t_struct(LockPosition)5649_storage"
      },
      "t_string_storage": {
        "encoding": "bytes",
        "label": "string",
        "numberOfBytes": "32"
      },
      "t_struct(Checkpoint)5700_storage": {
        "encoding": "inplace",
        "label": "struct ESVSPStorageV1.Checkpoint",
        "members": [
          {
            "astId": 5697,
            "contract": "contracts/ESVSP.sol:ESVSP",
            "label": "fromBlock",
            "offset": 0,
            "slot": "0",
            "type": "t_uint32"
          },
          {
            "astId": 5699,
            "contract": "contracts/ESVSP.sol:ESVSP",
            "label": "votes",
            "offset": 0,
            "slot": "1",
            "type": "t_uint256"
          }
        ],
        "numberOfBytes": "64"
      },
      "t_struct(LockPosition)5649_storage": {
        "encoding": "inplace",
        "label": "struct ESVSPStorageV1.LockPosition",
        "members": [
          {
            "astId": 5644,
            "contract": "contracts/ESVSP.sol:ESVSP",
            "label": "lockedAmount",
            "offset": 0,
            "slot": "0",
            "type": "t_uint256"
          },
          {
            "astId": 5646,
            "contract": "contracts/ESVSP.sol:ESVSP",
            "label": "boostedAmount",
            "offset": 0,
            "slot": "1",
            "type": "t_uint256"
          },
          {
            "astId": 5648,
            "contract": "contracts/ESVSP.sol:ESVSP",
            "label": "unlockTime",
            "offset": 0,
            "slot": "2",
            "type": "t_uint256"
          }
        ],
        "numberOfBytes": "96"
      },
      "t_uint256": {
        "encoding": "inplace",
        "label": "uint256",
        "numberOfBytes": "32"
      },
      "t_uint32": {
        "encoding": "inplace",
        "label": "uint32",
        "numberOfBytes": "4"
      },
      "t_uint8": {
        "encoding": "inplace",
        "label": "uint8",
        "numberOfBytes": "1"
      }
    }
  }
}