{
  "address": "0xBCB6081c01E2D2C1a3a2F871CB949E762de0fE29",
  "abi": [
    {
      "anonymous": false,
      "inputs": [
        {
          "indexed": true,
          "internalType": "address",
          "name": "owner",
          "type": "address"
        },
        {
          "indexed": true,
          "internalType": "address",
          "name": "spender",
          "type": "address"
        },
        {
          "indexed": false,
          "internalType": "uint256",
          "name": "value",
          "type": "uint256"
        }
      ],
      "name": "Approval",
      "type": "event"
    },
    {
      "anonymous": false,
      "inputs": [
        {
          "indexed": false,
          "internalType": "uint256",
          "name": "oldExitPenalty",
          "type": "uint256"
        },
        {
          "indexed": false,
          "internalType": "uint256",
          "name": "newExitPenalty",
          "type": "uint256"
        }
      ],
      "name": "ExitPenaltyUpdated",
      "type": "event"
    },
    {
      "anonymous": false,
      "inputs": [
        {
          "indexed": true,
          "internalType": "address",
          "name": "from",
          "type": "address"
        },
        {
          "indexed": true,
          "internalType": "address",
          "name": "to",
          "type": "address"
        },
        {
          "indexed": false,
          "internalType": "uint256",
          "name": "value",
          "type": "uint256"
        }
      ],
      "name": "Transfer",
      "type": "event"
    },
    {
      "anonymous": false,
      "inputs": [
        {
          "indexed": false,
          "internalType": "address",
          "name": "oldTreasury",
          "type": "address"
        },
        {
          "indexed": false,
          "internalType": "address",
          "name": "newTreasury",
          "type": "address"
        }
      ],
      "name": "TreasuryUpdated",
      "type": "event"
    },
    {
      "anonymous": false,
      "inputs": [
        {
          "indexed": true,
          "internalType": "address",
          "name": "previousGovernor",
          "type": "address"
        },
        {
          "indexed": true,
          "internalType": "address",
          "name": "proposedGovernor",
          "type": "address"
        }
      ],
      "name": "UpdatedGovernor",
      "type": "event"
    },
    {
      "anonymous": false,
      "inputs": [
        {
          "indexed": false,
          "internalType": "uint256",
          "name": "tokenId",
          "type": "uint256"
        },
        {
          "indexed": false,
          "internalType": "address",
          "name": "account",
          "type": "address"
        },
        {
          "indexed": false,
          "internalType": "uint256",
          "name": "amount",
          "type": "uint256"
        },
        {
          "indexed": false,
          "internalType": "uint256",
          "name": "lockPeriod",
          "type": "uint256"
        }
      ],
      "name": "VspLocked",
      "type": "event"
    },
    {
      "anonymous": false,
      "inputs": [
        {
          "indexed": false,
          "internalType": "uint256",
          "name": "tokenId",
          "type": "uint256"
        },
        {
          "indexed": false,
          "internalType": "uint256",
          "name": "amount",
          "type": "uint256"
        },
        {
          "indexed": false,
          "internalType": "uint256",
          "name": "unlocked",
          "type": "uint256"
        },
        {
          "indexed": false,
          "internalType": "uint256",
          "name": "penalty",
          "type": "uint256"
        }
      ],
      "name": "VspUnlocked",
      "type": "event"
    },
    {
      "inputs": [],
      "name": "MAXIMUM_BOOST",
      "outputs": [
        {
          "internalType": "uint256",
          "name": "",
          "type": "uint256"
        }
      ],
      "stateMutability": "view",
      "type": "function"
    },
    {
      "inputs": [],
      "name": "MAXIMUM_LOCK_PERIOD",
      "outputs": [
        {
          "internalType": "uint256",
          "name": "",
          "type": "uint256"
        }
      ],
      "stateMutability": "view",
      "type": "function"
    },
    {
      "inputs": [],
      "name": "MINIMUM_LOCK_PERIOD",
      "outputs": [
        {
          "internalType": "uint256",
          "name": "",
          "type": "uint256"
        }
      ],
      "stateMutability": "view",
      "type": "function"
    },
    {
      "inputs": [],
      "name": "VERSION",
      "outputs": [
        {
          "internalType": "string",
          "name": "",
          "type": "string"
        }
      ],
      "stateMutability": "view",
      "type": "function"
    },
    {
      "inputs": [],
      "name": "VSP",
      "outputs": [
        {
          "internalType": "contract IERC20",
          "name": "",
          "type": "address"
        }
      ],
      "stateMutability": "view",
      "type": "function"
    },
    {
      "inputs": [],
      "name": "acceptGovernorship",
      "outputs": [],
      "stateMutability": "nonpayable",
      "type": "function"
    },
    {
      "inputs": [
        {
          "internalType": "address",
          "name": "",
          "type": "address"
        },
        {
          "internalType": "address",
          "name": "",
          "type": "address"
        }
      ],
      "name": "allowance",
      "outputs": [
        {
          "internalType": "uint256",
          "name": "",
          "type": "uint256"
        }
      ],
      "stateMutability": "view",
      "type": "function"
    },
    {
      "inputs": [
        {
          "internalType": "address",
          "name": "",
          "type": "address"
        },
        {
          "internalType": "uint256",
          "name": "",
          "type": "uint256"
        }
      ],
      "name": "approve",
      "outputs": [
        {
          "internalType": "bool",
          "name": "",
          "type": "bool"
        }
      ],
      "stateMutability": "nonpayable",
      "type": "function"
    },
    {
      "inputs": [
        {
          "internalType": "address",
          "name": "account_",
          "type": "address"
        }
      ],
      "name": "balanceOf",
      "outputs": [
        {
          "internalType": "uint256",
          "name": "",
          "type": "uint256"
        }
      ],
      "stateMutability": "view",
      "type": "function"
    },
    {
      "inputs": [
        {
          "internalType": "address",
          "name": "",
          "type": "address"
        }
      ],
      "name": "boosted",
      "outputs": [
        {
          "internalType": "uint256",
          "name": "",
          "type": "uint256"
        }
      ],
      "stateMutability": "view",
      "type": "function"
    },
    {
      "inputs": [
        {
          "internalType": "uint256",
          "name": "tokenId_",
          "type": "uint256"
        }
      ],
      "name": "calculateExitPenalty",
      "outputs": [
        {
          "internalType": "uint256",
          "name": "_penalty",
          "type": "uint256"
        }
      ],
      "stateMutability": "view",
      "type": "function"
    },
    {
      "inputs": [],
      "name": "decimals",
      "outputs": [
        {
          "internalType": "uint8",
          "name": "",
          "type": "uint8"
        }
      ],
      "stateMutability": "view",
      "type": "function"
    },
    {
      "inputs": [
        {
          "internalType": "address",
          "name": "",
          "type": "address"
        },
        {
          "internalType": "uint256",
          "name": "",
          "type": "uint256"
        }
      ],
      "name": "decreaseAllowance",
      "outputs": [
        {
          "internalType": "bool",
          "name": "",
          "type": "bool"
        }
      ],
      "stateMutability": "nonpayable",
      "type": "function"
    },
    {
      "inputs": [],
      "name": "esVSP721",
      "outputs": [
        {
          "internalType": "contract IESVSP721",
          "name": "",
          "type": "address"
        }
      ],
      "stateMutability": "view",
      "type": "function"
    },
    {
      "inputs": [],
      "name": "exitPenalty",
      "outputs": [
        {
          "internalType": "uint256",
          "name": "",
          "type": "uint256"
        }
      ],
      "stateMutability": "view",
      "type": "function"
    },
    {
      "inputs": [
        {
          "internalType": "uint256",
          "name": "tokenId_",
          "type": "uint256"
        }
      ],
      "name": "getLockedPeriodOf",
      "outputs": [
        {
          "internalType": "uint256",
          "name": "_lockPeriod",
          "type": "uint256"
        }
      ],
      "stateMutability": "view",
      "type": "function"
    },
    {
      "inputs": [],
      "name": "governor",
      "outputs": [
        {
          "internalType": "address",
          "name": "",
          "type": "address"
        }
      ],
      "stateMutability": "view",
      "type": "function"
    },
    {
      "inputs": [
        {
          "internalType": "address",
          "name": "",
          "type": "address"
        },
        {
          "internalType": "uint256",
          "name": "",
          "type": "uint256"
        }
      ],
      "name": "increaseAllowance",
      "outputs": [
        {
          "internalType": "bool",
          "name": "",
          "type": "bool"
        }
      ],
      "stateMutability": "nonpayable",
      "type": "function"
    },
    {
      "inputs": [
        {
          "internalType": "string",
          "name": "name_",
          "type": "string"
        },
        {
          "internalType": "string",
          "name": "symbol_",
          "type": "string"
        },
        {
          "internalType": "uint8",
          "name": "decimals_",
          "type": "uint8"
        },
        {
          "internalType": "contract IESVSP721",
          "name": "esVSP721_",
          "type": "address"
        },
        {
          "internalType": "address",
          "name": "treasury_",
          "type": "address"
        }
      ],
      "name": "initialize",
      "outputs": [],
      "stateMutability": "nonpayable",
      "type": "function"
    },
    {
      "inputs": [
        {
          "internalType": "contract IRewards",
          "name": "rewards_",
          "type": "address"
        }
      ],
      "name": "initializeRewards",
      "outputs": [],
      "stateMutability": "nonpayable",
      "type": "function"
    },
    {
      "inputs": [
        {
          "internalType": "uint256",
          "name": "tokenId_",
          "type": "uint256"
        }
      ],
      "name": "kick",
      "outputs": [],
      "stateMutability": "nonpayable",
      "type": "function"
    },
    {
      "inputs": [
        {
          "internalType": "address",
          "name": "account_",
          "type": "address"
        }
      ],
      "name": "kickAllExpiredOf",
      "outputs": [],
      "stateMutability": "nonpayable",
      "type": "function"
    },
    {
      "inputs": [
        {
          "internalType": "uint256",
          "name": "amount_",
          "type": "uint256"
        },
        {
          "internalType": "uint256",
          "name": "lockPeriod_",
          "type": "uint256"
        }
      ],
      "name": "lock",
      "outputs": [],
      "stateMutability": "nonpayable",
      "type": "function"
    },
    {
      "inputs": [
        {
          "internalType": "address",
          "name": "to_",
          "type": "address"
        },
        {
          "internalType": "uint256",
          "name": "amount_",
          "type": "uint256"
        },
        {
          "internalType": "uint256",
          "name": "lockPeriod_",
          "type": "uint256"
        }
      ],
      "name": "lockFor",
      "outputs": [],
      "stateMutability": "nonpayable",
      "type": "function"
    },
    {
      "inputs": [
        {
          "internalType": "address",
          "name": "",
          "type": "address"
        }
      ],
      "name": "locked",
      "outputs": [
        {
          "internalType": "uint256",
          "name": "",
          "type": "uint256"
        }
      ],
      "stateMutability": "view",
      "type": "function"
    },
    {
      "inputs": [
        {
          "internalType": "address",
          "name": "account_",
          "type": "address"
        }
      ],
      "name": "lockedBalanceOf",
      "outputs": [
        {
          "internalType": "uint256",
          "name": "",
          "type": "uint256"
        }
      ],
      "stateMutability": "view",
      "type": "function"
    },
    {
      "inputs": [],
      "name": "name",
      "outputs": [
        {
          "internalType": "string",
          "name": "",
          "type": "string"
        }
      ],
      "stateMutability": "view",
      "type": "function"
    },
    {
      "inputs": [
        {
          "internalType": "uint256",
          "name": "",
          "type": "uint256"
        }
      ],
      "name": "positions",
      "outputs": [
        {
          "internalType": "uint256",
          "name": "lockedAmount",
          "type": "uint256"
        },
        {
          "internalType": "uint256",
          "name": "boostedAmount",
          "type": "uint256"
        },
        {
          "internalType": "uint256",
          "name": "unlockTime",
          "type": "uint256"
        }
      ],
      "stateMutability": "view",
      "type": "function"
    },
    {
      "inputs": [],
      "name": "proposedGovernor",
      "outputs": [
        {
          "internalType": "address",
          "name": "",
          "type": "address"
        }
      ],
      "stateMutability": "view",
      "type": "function"
    },
    {
      "inputs": [],
      "name": "rewards",
      "outputs": [
        {
          "internalType": "contract IRewards",
          "name": "",
          "type": "address"
        }
      ],
      "stateMutability": "view",
      "type": "function"
    },
    {
      "inputs": [],
      "name": "symbol",
      "outputs": [
        {
          "internalType": "string",
          "name": "",
          "type": "string"
        }
      ],
      "stateMutability": "view",
      "type": "function"
    },
    {
      "inputs": [],
      "name": "totalBoosted",
      "outputs": [
        {
          "internalType": "uint256",
          "name": "",
          "type": "uint256"
        }
      ],
      "stateMutability": "view",
      "type": "function"
    },
    {
      "inputs": [],
      "name": "totalLocked",
      "outputs": [
        {
          "internalType": "uint256",
          "name": "",
          "type": "uint256"
        }
      ],
      "stateMutability": "view",
      "type": "function"
    },
    {
      "inputs": [],
      "name": "totalSupply",
      "outputs": [
        {
          "internalType": "uint256",
          "name": "",
          "type": "uint256"
        }
      ],
      "stateMutability": "view",
      "type": "function"
    },
    {
      "inputs": [
        {
          "internalType": "address",
          "name": "",
          "type": "address"
        },
        {
          "internalType": "uint256",
          "name": "",
          "type": "uint256"
        }
      ],
      "name": "transfer",
      "outputs": [
        {
          "internalType": "bool",
          "name": "",
          "type": "bool"
        }
      ],
      "stateMutability": "nonpayable",
      "type": "function"
    },
    {
      "inputs": [
        {
          "internalType": "address",
          "name": "",
          "type": "address"
        },
        {
          "internalType": "address",
          "name": "",
          "type": "address"
        },
        {
          "internalType": "uint256",
          "name": "",
          "type": "uint256"
        }
      ],
      "name": "transferFrom",
      "outputs": [
        {
          "internalType": "bool",
          "name": "",
          "type": "bool"
        }
      ],
      "stateMutability": "nonpayable",
      "type": "function"
    },
    {
      "inputs": [
        {
          "internalType": "address",
          "name": "_proposedGovernor",
          "type": "address"
        }
      ],
      "name": "transferGovernorship",
      "outputs": [],
      "stateMutability": "nonpayable",
      "type": "function"
    },
    {
      "inputs": [
        {
          "internalType": "uint256",
          "name": "tokenId_",
          "type": "uint256"
        },
        {
          "internalType": "address",
          "name": "to_",
          "type": "address"
        }
      ],
      "name": "transferPosition",
      "outputs": [],
      "stateMutability": "nonpayable",
      "type": "function"
    },
    {
      "inputs": [],
      "name": "treasury",
      "outputs": [
        {
          "internalType": "address",
          "name": "",
          "type": "address"
        }
      ],
      "stateMutability": "view",
      "type": "function"
    },
    {
      "inputs": [
        {
          "internalType": "uint256",
          "name": "tokenId_",
          "type": "uint256"
        },
        {
          "internalType": "bool",
          "name": "beforeUnlockTime_",
          "type": "bool"
        }
      ],
      "name": "unlock",
      "outputs": [],
      "stateMutability": "nonpayable",
      "type": "function"
    },
    {
      "inputs": [
        {
          "internalType": "uint256",
          "name": "exitPenalty_",
          "type": "uint256"
        }
      ],
      "name": "updateExitPenalty",
      "outputs": [],
      "stateMutability": "nonpayable",
      "type": "function"
    },
    {
      "inputs": [
        {
          "internalType": "address",
          "name": "treasury_",
          "type": "address"
        }
      ],
      "name": "updateTreasury",
      "outputs": [],
      "stateMutability": "nonpayable",
      "type": "function"
    }
  ],
  "transactionHash": "0x1d8a5f3a3370779c9aa031c0d3cb08a45bfea662a2336eb5ac6ecd9f9933a52d",
  "args": [],
  "numDeployments": 3,
  "solcInputHash": "c897b44eb39a38b30c2d3694cb0b1d6a",
  "bytecode": "0x608060405234801561001057600080fd5b50600160005561261f806100256000396000f3fe608060405234801561001057600080fd5b506004361061025e5760003560e01c80637f51bb1f11610146578063a457c2d7116100c3578063ce0cf1a511610087578063ce0cf1a514610579578063d8de0c4e1461058c578063dd62ed3e1461059f578063e361ad1a146105ad578063f3b27bc3146105c0578063ffa1ad74146105c857600080fd5b8063a457c2d714610386578063a9059cbb14610525578063b6aa515b14610533578063c820f14614610546578063cbf9fe5f1461055957600080fd5b80638e0b01981161010a5780638e0b01981461049a57806395d89b41146104ad57806399fbab88146104b55780639cf6db9f146104ff5780639ec5a8941461051257600080fd5b80637f51bb1f146104365780637faf90571461044957806383e0c6b21461045457806383e25f8a146104745780638a11a3701461048757600080fd5b80632669e8ea116101df57806356891412116101a357806356891412146103ac57806359355736146103b557806361d027b3146103de578063631516c2146103f15780636b41674c146103fa57806370a082311461040d57600080fd5b80632669e8ea1461033c578063313ce5671461034557806335faf3891461036b578063395093511461038657806355bd513f1461039957600080fd5b80631a225bb4116102265780631a225bb4146102f15780631bff60981461030457806321a405891461030c57806323b872dd14610316578063240581d41461032957600080fd5b806306fdde0314610263578063095ea7b3146102815780630c340a24146102a45780631338736f146102ca57806318160ddd146102df575b600080fd5b61026b6105ec565b60405161027891906120e2565b60405180910390f35b61029461028f36600461212a565b61067a565b6040519015158152602001610278565b6001546102bd906201000090046001600160a01b031681565b6040516102789190612156565b6102dd6102d836600461216a565b6106c3565b005b6009545b604051908152602001610278565b6102dd6102ff36600461218c565b61070a565b6102e3600481565b6102e362093a8081565b6102946103243660046121a9565b61074c565b6102dd61033736600461218c565b610790565b6102e3600a5481565b60025461035990600160a01b900460ff1681565b60405160ff9091168152602001610278565b6102bd731b40183efb4dd766f11bda7a7c3ad8982e99842181565b61029461039436600461212a565b61087a565b6102dd6103a73660046121ea565b6108bf565b6102e360085481565b6102e36103c336600461218c565b6001600160a01b03166000908152600c602052604090205490565b6005546102bd906001600160a01b031681565b6102e360095481565b6102dd610408366004612228565b610ace565b6102e361041b36600461218c565b6001600160a01b03166000908152600d602052604090205490565b6102dd61044436600461218c565b610b13565b6102e36303c2670081565b6102e361046236600461218c565b600d6020526000908152604090205481565b6102dd61048236600461224d565b610c50565b6002546102bd906001600160a01b031681565b6102dd6104a8366004612282565b610c8c565b61026b610d94565b6104e46104c3366004612282565b600b6020526000908152604090208054600182015460029092015490919083565b60408051938452602084019290925290820152606001610278565b6102e361050d366004612282565b610da1565b6007546102bd906001600160a01b031681565b61029461032436600461212a565b6102dd61054136600461218c565b610de1565b6102dd61055436600461233e565b610e86565b6102e361056736600461218c565b600c6020526000908152604090205481565b6102dd610587366004612282565b61105c565b6006546102bd906001600160a01b031681565b6102e36103943660046123e2565b6102e36105bb366004612282565b611117565b6102dd611163565b61026b604051806040016040528060058152602001640312e302e360dc1b81525081565b600380546105f990612410565b80601f016020809104026020016040519081016040528092919081815260200182805461062590612410565b80156106725780601f1061064757610100808354040283529160200191610672565b820191906000526020600020905b81548152906001019060200180831161065557829003601f168201915b505050505081565b60405162461bcd60e51b8152602060048201526016602482015275185c1c1c9bdd985b0b5b9bdd0b5cdd5c1c1bdc9d195960521b60448201526000906064015b60405180910390fd5b600260005414156106e65760405162461bcd60e51b81526004016106ba90612445565b6002600055336106f581611233565b6107008184846112aa565b5050600160005550565b6002600054141561072d5760405162461bcd60e51b81526004016106ba90612445565b600260005561073b81611233565b610744816116d6565b506001600055565b60405162461bcd60e51b81526020600482015260166024820152751d1c985b9cd9995c8b5b9bdd0b5cdd5c1c1bdc9d195960521b60448201526000906064016106ba565b6001546001600160a01b03620100009091041633146107c15760405162461bcd60e51b81526004016106ba9061247c565b6007546001600160a01b0316156108105760405162461bcd60e51b8152602060048201526013602482015272185b1c9958591e4b5a5b9a5d1a585b1a5e9959606a1b60448201526064016106ba565b6001600160a01b0381166108585760405162461bcd60e51b815260206004820152600f60248201526e1859191c995cdccb5a5ccb5b9d5b1b608a1b60448201526064016106ba565b600780546001600160a01b0319166001600160a01b0392909216919091179055565b60405162461bcd60e51b8152602060048201526017602482015276185b1b1bddd85b98d94b5b9bdd0b5cdd5c1c1bdc9d1959604a1b60448201526000906064016106ba565b6006546001600160a01b0316336001600160a01b0316146109115760405162461bcd60e51b815260206004820152600c60248201526b6e6f742d657376737037323160a01b60448201526064016106ba565b6006546040516331a9108f60e11b8152600481018490526000916001600160a01b031690636352211e9060240160206040518083038186803b15801561095657600080fd5b505afa15801561096a573d6000803e3d6000fd5b505050506040513d601f19601f8201168201806040525081019061098e91906124a2565b905061099981611233565b6109a282611233565b6000838152600b60209081526040808320815160608101835281548082526001830154828601819052600290930154828501526001600160a01b0387168652600c9094529184208054929491928492906109fd9084906124d5565b90915550506001600160a01b0384166000908152600d602052604081208054839290610a2a9084906124d5565b90915550506001600160a01b0385166000908152600c602052604081208054849290610a579084906124ec565b90915550506001600160a01b0385166000908152600d602052604081208054839290610a849084906124ec565b92505081905550846001600160a01b0316846001600160a01b03166000805160206125ca83398151915283604051610abe91815260200190565b60405180910390a3505050505050565b60026000541415610af15760405162461bcd60e51b81526004016106ba90612445565b6002600055610aff33611233565b610b0a82821561183a565b50506001600055565b6001546001600160a01b0362010000909104163314610b445760405162461bcd60e51b81526004016106ba9061247c565b6001600160a01b038116610b895760405162461bcd60e51b815260206004820152600c60248201526b1859191c995cdccb5b9d5b1b60a21b60448201526064016106ba565b6005546001600160a01b0382811691161415610be75760405162461bcd60e51b815260206004820152601a60248201527f616464726573732d69732d73616d652d61732d63757272656e7400000000000060448201526064016106ba565b600554604080516001600160a01b03928316815291831660208301527f4ab5be82436d353e61ca18726e984e561f5c1cc7c6d38b29d2553c790434705a910160405180910390a1600580546001600160a01b0319166001600160a01b0392909216919091179055565b60026000541415610c735760405162461bcd60e51b81526004016106ba90612445565b6002600055610c8183611233565b6107008383836112aa565b6001546001600160a01b0362010000909104163314610cbd5760405162461bcd60e51b81526004016106ba9061247c565b670de0b6b3a7640000811115610d085760405162461bcd60e51b815260206004820152601060248201526f657869742d6665652d67742d3130302560801b60448201526064016106ba565b600a54811415610d535760405162461bcd60e51b81526020600482015260166024820152751999594b5a5ccb5cd85b594b585ccb58dd5c9c995b9d60521b60448201526064016106ba565b600a5460408051918252602082018390527f40a1b57526b8108990c3b8bdc1a76477678cc96d824146b9af3f9799bb3d50a1910160405180910390a1600a55565b600480546105f990612410565b6000818152600b602090815260408083208151606081018352815481526001820154938101939093526002015490820152610ddb90611911565b92915050565b6001546001600160a01b0362010000909104163314610e125760405162461bcd60e51b81526004016106ba9061247c565b6001600160a01b038116610e645760405162461bcd60e51b815260206004820152601960248201527870726f706f7365642d676f7665726e6f722d69732d7a65726f60381b60448201526064016106ba565b600280546001600160a01b0319166001600160a01b0392909216919091179055565b600154610100900460ff16610ea15760015460ff1615610ea5565b303b155b610f085760405162461bcd60e51b815260206004820152602e60248201527f496e697469616c697a61626c653a20636f6e747261637420697320616c72656160448201526d191e481a5b9a5d1a585b1a5e995960921b60648201526084016106ba565b600154610100900460ff16158015610f2a576001805461ffff19166101011790555b6001600160a01b038316610f735760405162461bcd60e51b815260206004820152601060248201526f195cd594d40dcc8c4b5a5ccb5b9d5b1b60821b60448201526064016106ba565b6001600160a01b038216610fbc5760405162461bcd60e51b815260206004820152601060248201526f1d1c99585cdd5c9e4b5a5ccb5b9d5b1b60821b60448201526064016106ba565b610fc4611942565b8551610fd790600390602089019061201d565b508451610feb90600490602088019061201d565b506002805460ff8616600160a01b0260ff60a01b19909116179055600680546001600160a01b038086166001600160a01b0319928316179092556706f05b59d3b20000600a5560058054928516929091169190911790558015611054576001805461ff00191690555b505050505050565b6002600054141561107f5760405162461bcd60e51b81526004016106ba90612445565b600260009081556006546040516331a9108f60e11b8152600481018490526001600160a01b0390911690636352211e9060240160206040518083038186803b1580156110ca57600080fd5b505afa1580156110de573d6000803e3d6000fd5b505050506040513d601f19601f8201168201806040525081019061110291906124a2565b905061110d81611233565b610b0a8282611a07565b6000818152600b602090815260408083208151606081018352815481526001820154938101939093526002015490820181905242101561115d5761115a81611a17565b91505b50919050565b6002546001600160a01b031633146111b95760405162461bcd60e51b81526020600482015260196024820152783737ba16ba343296b83937b837b9b2b216b3b7bb32b93737b960391b60448201526064016106ba565b6002546001546040516001600160a01b039283169262010000909204909116907fd4459d5b8b913cab0244230fd9b1c08b6ceace7fe9230e60d0f74cbffdf849d090600090a3600280546001805462010000600160b01b0319166001600160a01b03831662010000021790556001600160a01b0319169055565b6007546001600160a01b0316156112a75760075460405163632447c960e01b81526001600160a01b039091169063632447c990611274908490600401612156565b600060405180830381600087803b15801561128e57600080fd5b505af11580156112a2573d6000803e3d6000fd5b505050505b50565b600082116112eb5760405162461bcd60e51b815260206004820152600e60248201526d616d6f756e742d69732d7a65726f60901b60448201526064016106ba565b62093a8081116113365760405162461bcd60e51b81526020600482015260166024820152756c6f636b2d706572696f642d6c742d6d696e696d756d60501b60448201526064016106ba565b6303c267008111156113835760405162461bcd60e51b81526020600482015260166024820152756c6f636b2d706572696f642d67742d6d6178696d756d60501b60448201526064016106ba565b6040516370a0823160e01b8152600090731b40183efb4dd766f11bda7a7c3ad8982e998421906370a08231906113bd903090600401612156565b60206040518083038186803b1580156113d557600080fd5b505afa1580156113e9573d6000803e3d6000fd5b505050506040513d601f19601f8201168201806040525081019061140d9190612504565b905061142f731b40183efb4dd766f11bda7a7c3ad8982e998421333086611a94565b6040516370a0823160e01b81526000908290731b40183efb4dd766f11bda7a7c3ad8982e998421906370a082319061146b903090600401612156565b60206040518083038186803b15801561148357600080fd5b505afa158015611497573d6000803e3d6000fd5b505050506040513d601f19601f820116820180604052508101906114bb9190612504565b6114c591906124d5565b905060006303c2670060046114da868561251d565b6114e4919061251d565b6114ee919061253c565b6001600160a01b0387166000908152600c602052604081208054929350849290919061151b9084906124ec565b90915550506001600160a01b0386166000908152600d6020526040812080548392906115489084906124ec565b92505081905550816008600082825461156191906124ec565b92505081905550806009600082825461157a91906124ec565b90915550506006546040516335313c2160e11b81526000916001600160a01b031690636a627842906115b0908a90600401612156565b602060405180830381600087803b1580156115ca57600080fd5b505af11580156115de573d6000803e3d6000fd5b505050506040513d601f19601f820116820180604052508101906116029190612504565b90506040518060600160405280848152602001838152602001864261162791906124ec565b90526000828152600b60209081526040808320845181558483015160018201559381015160029094019390935591518481526001600160a01b038a16926000805160206125ca833981519152910160405180910390a3604080518281526001600160a01b0389166020820152908101879052606081018690527faa9ebde20f0514c177b5333c75b05a899f29679313ee2851ee0b7fe9aee727b29060800160405180910390a150505050505050565b6006546040516370a0823160e01b81526000916001600160a01b0316906370a0823190611707908590600401612156565b60206040518083038186803b15801561171f57600080fd5b505afa158015611733573d6000803e3d6000fd5b505050506040513d601f19601f820116820180604052508101906117579190612504565b905060005b8181101561183557600654604051632f745c5960e01b81526001600160a01b038581166004830152602482018490526000921690632f745c599060440160206040518083038186803b1580156117b157600080fd5b505afa1580156117c5573d6000803e3d6000fd5b505050506040513d601f19601f820116820180604052508101906117e99190612504565b6000818152600b60205260409020600201549091504211156118215761180f8185611a07565b826118198161255e565b93505061182f565b8161182b81612575565b9250505b5061175c565b505050565b6006546040516331a9108f60e11b8152600481018490526000916001600160a01b031690636352211e9060240160206040518083038186803b15801561187f57600080fd5b505afa158015611893573d6000803e3d6000fd5b505050506040513d601f19601f820116820180604052508101906118b791906124a2565b9050336001600160a01b038216146119065760405162461bcd60e51b81526020600482015260126024820152713737ba16b837b9b4ba34b7b716b7bbb732b960711b60448201526064016106ba565b611835838383611b05565b6000816000015160046303c26700846020015161192e919061251d565b611938919061253c565b610ddb919061253c565b600154610100900460ff166119ad5760405162461bcd60e51b815260206004820152602b60248201527f496e697469616c697a61626c653a20636f6e7472616374206973206e6f74206960448201526a6e697469616c697a696e6760a81b60648201526084016106ba565b600180546201000033810262010000600160b01b0319909216919091179182905560405191046001600160a01b0316906000907fd4459d5b8b913cab0244230fd9b1c08b6ceace7fe9230e60d0f74cbffdf849d0908290a3565b611a1382600183611b05565b5050565b600080611a2383611911565b428460400151611a3391906124d5565b611a4590670de0b6b3a764000061251d565b611a4f919061253c565b9050670de0b6b3a764000081670de0b6b3a7640000600a548660000151611a76919061251d565b611a80919061253c565b611a8a919061251d565b61115a919061253c565b6040516001600160a01b0380851660248301528316604482015260648101829052611aff9085906323b872dd60e01b906084015b60408051601f198184030181529190526020810180516001600160e01b03166001600160e01b031990931692909217909152611da1565b50505050565b6000838152600b602090815260409182902082516060810184528154815260018201549281019290925260020154918101829052904281108415611b835780611b835760405162461bcd60e51b815260206004820152601060248201526f1b9bdd0b5d5b9b1bd8dad9590b5e595d60821b60448201526064016106ba565b82516020840151600654604051630852cd8d60e31b8152600481018a90526001600160a01b03909116906342966c6890602401600060405180830381600087803b158015611bd057600080fd5b505af1158015611be4573d6000803e3d6000fd5b5050506000898152600b60209081526040808320838155600181018490556002018390556001600160a01b038a168352600c90915281208054859350909190611c2e9084906124d5565b925050819055508160086000828254611c4791906124d5565b90915550506001600160a01b0386166000908152600d602052604081208054839290611c749084906124d5565b925050819055508060096000828254611c8d91906124d5565b9091555082905083158015611ca457506000600a54115b15611cf7576000611cb487611a17565b90508015611cf557600554611ce890731b40183efb4dd766f11bda7a7c3ad8982e998421906001600160a01b031683611e73565b611cf281836124d5565b91505b505b611d16731b40183efb4dd766f11bda7a7c3ad8982e9984218883611e73565b6040518281526000906001600160a01b038916906000805160206125ca8339815191529060200160405180910390a37f12b401e87a80986bf539c17eb044022d7a4d83471454b06d8977cab0decdbd5e898483611d7381836124d5565b60408051948552602085019390935291830152606082015260800160405180910390a1505050505050505050565b6000611df6826040518060400160405280602081526020017f5361666545524332303a206c6f772d6c6576656c2063616c6c206661696c6564815250856001600160a01b0316611ea39092919063ffffffff16565b8051909150156118355780806020019051810190611e149190612590565b6118355760405162461bcd60e51b815260206004820152602a60248201527f5361666545524332303a204552433230206f7065726174696f6e20646964206e6044820152691bdd081cdd58d8d9595960b21b60648201526084016106ba565b6040516001600160a01b03831660248201526044810182905261183590849063a9059cbb60e01b90606401611ac8565b6060611eb28484600085611ebc565b90505b9392505050565b606082471015611f1d5760405162461bcd60e51b815260206004820152602660248201527f416464726573733a20696e73756666696369656e742062616c616e636520666f6044820152651c8818d85b1b60d21b60648201526084016106ba565b843b611f6b5760405162461bcd60e51b815260206004820152601d60248201527f416464726573733a2063616c6c20746f206e6f6e2d636f6e747261637400000060448201526064016106ba565b600080866001600160a01b03168587604051611f8791906125ad565b60006040518083038185875af1925050503d8060008114611fc4576040519150601f19603f3d011682016040523d82523d6000602084013e611fc9565b606091505b5091509150611fd9828286611fe4565b979650505050505050565b60608315611ff3575081611eb5565b8251156120035782518084602001fd5b8160405162461bcd60e51b81526004016106ba91906120e2565b82805461202990612410565b90600052602060002090601f01602090048101928261204b5760008555612091565b82601f1061206457805160ff1916838001178555612091565b82800160010185558215612091579182015b82811115612091578251825591602001919060010190612076565b5061209d9291506120a1565b5090565b5b8082111561209d57600081556001016120a2565b60005b838110156120d15781810151838201526020016120b9565b83811115611aff5750506000910152565b60208152600082518060208401526121018160408501602087016120b6565b601f01601f19169190910160400192915050565b6001600160a01b03811681146112a757600080fd5b6000806040838503121561213d57600080fd5b823561214881612115565b946020939093013593505050565b6001600160a01b0391909116815260200190565b6000806040838503121561217d57600080fd5b50508035926020909101359150565b60006020828403121561219e57600080fd5b8135611eb581612115565b6000806000606084860312156121be57600080fd5b83356121c981612115565b925060208401356121d981612115565b929592945050506040919091013590565b600080604083850312156121fd57600080fd5b82359150602083013561220f81612115565b809150509250929050565b80151581146112a757600080fd5b6000806040838503121561223b57600080fd5b82359150602083013561220f8161221a565b60008060006060848603121561226257600080fd5b833561226d81612115565b95602085013595506040909401359392505050565b60006020828403121561229457600080fd5b5035919050565b634e487b7160e01b600052604160045260246000fd5b600082601f8301126122c257600080fd5b813567ffffffffffffffff808211156122dd576122dd61229b565b604051601f8301601f19908116603f011681019082821181831017156123055761230561229b565b8160405283815286602085880101111561231e57600080fd5b836020870160208301376000602085830101528094505050505092915050565b600080600080600060a0868803121561235657600080fd5b853567ffffffffffffffff8082111561236e57600080fd5b61237a89838a016122b1565b9650602088013591508082111561239057600080fd5b5061239d888289016122b1565b945050604086013560ff811681146123b457600080fd5b925060608601356123c481612115565b915060808601356123d481612115565b809150509295509295909350565b600080604083850312156123f557600080fd5b823561240081612115565b9150602083013561220f81612115565b600181811c9082168061242457607f821691505b6020821081141561115d57634e487b7160e01b600052602260045260246000fd5b6020808252601f908201527f5265656e7472616e637947756172643a207265656e7472616e742063616c6c00604082015260600190565b6020808252600c908201526b3737ba16b3b7bb32b93737b960a11b604082015260600190565b6000602082840312156124b457600080fd5b8151611eb581612115565b634e487b7160e01b600052601160045260246000fd5b6000828210156124e7576124e76124bf565b500390565b600082198211156124ff576124ff6124bf565b500190565b60006020828403121561251657600080fd5b5051919050565b6000816000190483118215151615612537576125376124bf565b500290565b60008261255957634e487b7160e01b600052601260045260246000fd5b500490565b60008161256d5761256d6124bf565b506000190190565b6000600019821415612589576125896124bf565b5060010190565b6000602082840312156125a257600080fd5b8151611eb58161221a565b600082516125bf8184602087016120b6565b919091019291505056feddf252ad1be2c89b69c2b068fc378daa952ba7f163c4a11628f55a4df523b3efa26469706673582212205a83990ac31aaaa9817c7374d8e5d69e80bdc4df8a9979d46920668ec97bcb5664736f6c63430008090033",
  "devdoc": {
    "kind": "dev",
    "methods": {
      "acceptGovernorship()": {
        "details": "Allows new governor to accept governorship of the contract."
      },
      "balanceOf(address)": {
        "params": {
          "account_": "The account"
        },
        "returns": {
          "_0": "user's boost VSP balance. Boost VSP > locked VSP"
        }
      },
      "calculateExitPenalty(uint256)": {
        "params": {
          "tokenId_": "The position/token id"
        }
      },
      "getLockedPeriodOf(uint256)": {
        "params": {
          "tokenId_": "The position/token id"
        }
      },
      "initializeRewards(address)": {
        "details": "Called once",
        "params": {
          "rewards_": "The new contract"
        }
      },
      "kick(uint256)": {
        "params": {
          "tokenId_": "ERC721 tokenId"
        }
      },
      "kickAllExpiredOf(address)": {
        "params": {
          "account_": "The target account"
        }
      },
      "lock(uint256,uint256)": {
        "params": {
          "amount_": "The VSP amount to lock",
          "lockPeriod_": "The lock period"
        }
      },
      "lockFor(address,uint256,uint256)": {
        "params": {
          "amount_": "The VSP amount to lock",
          "lockPeriod_": "The lock period"
        }
      },
      "lockedBalanceOf(address)": {
        "params": {
          "account_": "The account"
        },
        "returns": {
          "_0": "user's locked VSP balance"
        }
      },
      "transferGovernorship(address)": {
        "details": "Transfers governorship of the contract to a new account (`proposedGovernor`). Can only be called by the current owner."
      },
      "transferPosition(uint256,address)": {
        "details": "Revert if caller isn't the esVSP721 contract",
        "params": {
          "to_": "The recipient",
          "tokenId_": "The position (NFT) to transfer"
        }
      },
      "unlock(uint256,bool)": {
        "params": {
          "beforeUnlockTime_": "When `true` unlock before expiration and pays exit penalty",
          "tokenId_": "ERC721 tokenId"
        }
      },
      "updateExitPenalty(uint256)": {
        "params": {
          "exitPenalty_": "The new exit penalty"
        }
      },
      "updateTreasury(address)": {
        "params": {
          "treasury_": "The new treasury address"
        }
      }
    },
    "title": "Non-transferable escrowed VSP.",
    "version": 1
  },
  "userdoc": {
    "events": {
      "ExitPenaltyUpdated(uint256,uint256)": {
        "notice": "Emitted when the exit penalty is updated"
      },
      "TreasuryUpdated(address,address)": {
        "notice": "Emitted when the treasury address is updated"
      },
      "VspLocked(uint256,address,uint256,uint256)": {
        "notice": "Emitted when a new position is created (i.e. when user locks VSP)"
      },
      "VspUnlocked(uint256,uint256,uint256,uint256)": {
        "notice": "Emitted when a position is burned due to unlock or kick"
      }
    },
    "kind": "user",
    "methods": {
      "allowance(address,address)": {
        "notice": "Methods not supported *"
      },
      "balanceOf(address)": {
        "notice": "Get boosted VSP balance of user. This is different than ESVSP721.balanceOf() It is sum of boosted amount of VSP in each ERC721 (i.e. ESVSP721) token of user"
      },
      "boosted(address)": {
        "notice": "Total boosted amount by user among all his positions"
      },
      "calculateExitPenalty(uint256)": {
        "notice": "Calculate exit penalty for a position"
      },
      "esVSP721()": {
        "notice": "NFT contract"
      },
      "exitPenalty()": {
        "notice": "Fee paid when withdrawing. Decreases linearly as period finish approaches."
      },
      "getLockedPeriodOf(uint256)": {
        "notice": "Get the lock period"
      },
      "initializeRewards(address)": {
        "notice": "Initialize the Rewards contract"
      },
      "kick(uint256)": {
        "notice": "Burn an expired position and send locked amount to the owner"
      },
      "kickAllExpiredOf(address)": {
        "notice": "Kick all expired positions from a given account"
      },
      "lock(uint256,uint256)": {
        "notice": "Lock VSP to get boosted revenue and voting power. Lock VSP and generate users position by minting ERC721"
      },
      "lockFor(address,uint256,uint256)": {
        "notice": "Lock VSP to get boosted revenue and voting power. Lock VSP and generate users position by minting ERC721"
      },
      "locked(address)": {
        "notice": "Total VSP locked by user among all his positions"
      },
      "lockedBalanceOf(address)": {
        "notice": "Get total locked VSP balance of user It is sum of locked VSP in each ERC721 (i.e. ESVSP721) token of user"
      },
      "positions(uint256)": {
        "notice": "Lock positions"
      },
      "rewards()": {
        "notice": "Rewards contract"
      },
      "totalBoosted()": {
        "notice": "Total boosted amount"
      },
      "totalLocked()": {
        "notice": "Total VSP locked"
      },
      "totalSupply()": {
        "notice": "Total boosted amount"
      },
      "transferPosition(uint256,address)": {
        "notice": "Transfer position (i.e. locked and boosted amounts) between accounts"
      },
      "treasury()": {
        "notice": "The treasury contract (will receive exit penalty collected)"
      },
      "unlock(uint256,bool)": {
        "notice": "Unlock VSP by burning given ERC721 tokenId_"
      },
      "updateExitPenalty(uint256)": {
        "notice": "Update exit penalty"
      },
      "updateTreasury(address)": {
        "notice": "Update treasury contract"
      }
    },
    "version": 1
  },
  "storageLayout": {
    "storage": [
      {
        "astId": 3195,
        "contract": "contracts/ESVSP.sol:ESVSP",
        "label": "_status",
        "offset": 0,
        "slot": "0",
        "type": "t_uint256"
      },
      {
        "astId": 3117,
        "contract": "contracts/ESVSP.sol:ESVSP",
        "label": "_initialized",
        "offset": 0,
        "slot": "1",
        "type": "t_bool"
      },
      {
        "astId": 3120,
        "contract": "contracts/ESVSP.sol:ESVSP",
        "label": "_initializing",
        "offset": 1,
        "slot": "1",
        "type": "t_bool"
      },
      {
        "astId": 2147,
        "contract": "contracts/ESVSP.sol:ESVSP",
        "label": "governor",
        "offset": 2,
        "slot": "1",
        "type": "t_address"
      },
      {
        "astId": 2149,
        "contract": "contracts/ESVSP.sol:ESVSP",
        "label": "proposedGovernor",
        "offset": 0,
        "slot": "2",
        "type": "t_address"
      },
      {
        "astId": 6236,
        "contract": "contracts/ESVSP.sol:ESVSP",
        "label": "decimals",
        "offset": 20,
        "slot": "2",
        "type": "t_uint8"
      },
      {
        "astId": 6238,
        "contract": "contracts/ESVSP.sol:ESVSP",
        "label": "name",
        "offset": 0,
        "slot": "3",
        "type": "t_string_storage"
      },
      {
        "astId": 6240,
        "contract": "contracts/ESVSP.sol:ESVSP",
        "label": "symbol",
        "offset": 0,
        "slot": "4",
        "type": "t_string_storage"
      },
      {
        "astId": 6243,
        "contract": "contracts/ESVSP.sol:ESVSP",
        "label": "treasury",
        "offset": 0,
        "slot": "5",
        "type": "t_address"
      },
      {
        "astId": 6247,
        "contract": "contracts/ESVSP.sol:ESVSP",
        "label": "esVSP721",
        "offset": 0,
        "slot": "6",
        "type": "t_contract(IESVSP721)6117"
      },
      {
        "astId": 6251,
        "contract": "contracts/ESVSP.sol:ESVSP",
        "label": "rewards",
        "offset": 0,
        "slot": "7",
        "type": "t_contract(IRewards)6187"
      },
      {
        "astId": 6255,
        "contract": "contracts/ESVSP.sol:ESVSP",
        "label": "totalLocked",
        "offset": 0,
        "slot": "8",
        "type": "t_uint256"
      },
      {
        "astId": 6259,
        "contract": "contracts/ESVSP.sol:ESVSP",
        "label": "totalBoosted",
        "offset": 0,
        "slot": "9",
        "type": "t_uint256"
      },
      {
        "astId": 6262,
        "contract": "contracts/ESVSP.sol:ESVSP",
        "label": "exitPenalty",
        "offset": 0,
        "slot": "10",
        "type": "t_uint256"
      },
      {
        "astId": 6268,
        "contract": "contracts/ESVSP.sol:ESVSP",
        "label": "positions",
        "offset": 0,
        "slot": "11",
        "type": "t_mapping(t_uint256,t_struct(LockPosition)6234_storage)"
      },
      {
        "astId": 6274,
        "contract": "contracts/ESVSP.sol:ESVSP",
        "label": "locked",
        "offset": 0,
        "slot": "12",
        "type": "t_mapping(t_address,t_uint256)"
      },
      {
        "astId": 6280,
        "contract": "contracts/ESVSP.sol:ESVSP",
        "label": "boosted",
        "offset": 0,
        "slot": "13",
        "type": "t_mapping(t_address,t_uint256)"
      }
    ],
    "types": {
      "t_address": {
        "encoding": "inplace",
        "label": "address",
        "numberOfBytes": "20"
      },
      "t_bool": {
        "encoding": "inplace",
        "label": "bool",
        "numberOfBytes": "1"
      },
      "t_contract(IESVSP721)6117": {
        "encoding": "inplace",
        "label": "contract IESVSP721",
        "numberOfBytes": "20"
      },
      "t_contract(IRewards)6187": {
        "encoding": "inplace",
        "label": "contract IRewards",
        "numberOfBytes": "20"
      },
      "t_mapping(t_address,t_uint256)": {
        "encoding": "mapping",
        "key": "t_address",
        "label": "mapping(address => uint256)",
        "numberOfBytes": "32",
        "value": "t_uint256"
      },
      "t_mapping(t_uint256,t_struct(LockPosition)6234_storage)": {
        "encoding": "mapping",
        "key": "t_uint256",
        "label": "mapping(uint256 => struct ESVSPStorageV1.LockPosition)",
        "numberOfBytes": "32",
        "value": "t_struct(LockPosition)6234_storage"
      },
      "t_string_storage": {
        "encoding": "bytes",
        "label": "string",
        "numberOfBytes": "32"
      },
      "t_struct(LockPosition)6234_storage": {
        "encoding": "inplace",
        "label": "struct ESVSPStorageV1.LockPosition",
        "members": [
          {
            "astId": 6229,
            "contract": "contracts/ESVSP.sol:ESVSP",
            "label": "lockedAmount",
            "offset": 0,
            "slot": "0",
            "type": "t_uint256"
          },
          {
            "astId": 6231,
            "contract": "contracts/ESVSP.sol:ESVSP",
            "label": "boostedAmount",
            "offset": 0,
            "slot": "1",
            "type": "t_uint256"
          },
          {
            "astId": 6233,
            "contract": "contracts/ESVSP.sol:ESVSP",
            "label": "unlockTime",
            "offset": 0,
            "slot": "2",
            "type": "t_uint256"
          }
        ],
        "numberOfBytes": "96"
      },
      "t_uint256": {
        "encoding": "inplace",
        "label": "uint256",
        "numberOfBytes": "32"
      },
      "t_uint8": {
        "encoding": "inplace",
        "label": "uint8",
        "numberOfBytes": "1"
      }
    }
  }
}