{
  "address": "0xd18709aCC6dB21c7db15fc077154dd6c2E2076f5",
  "abi": [
    {
      "anonymous": false,
      "inputs": [
        {
          "indexed": true,
          "internalType": "address",
          "name": "owner",
          "type": "address"
        },
        {
          "indexed": true,
          "internalType": "address",
          "name": "spender",
          "type": "address"
        },
        {
          "indexed": false,
          "internalType": "uint256",
          "name": "value",
          "type": "uint256"
        }
      ],
      "name": "Approval",
      "type": "event"
    },
    {
      "anonymous": false,
      "inputs": [
        {
          "indexed": false,
          "internalType": "uint256",
          "name": "oldExitPenalty",
          "type": "uint256"
        },
        {
          "indexed": false,
          "internalType": "uint256",
          "name": "newExitPenalty",
          "type": "uint256"
        }
      ],
      "name": "ExitPenaltyUpdated",
      "type": "event"
    },
    {
      "anonymous": false,
      "inputs": [
        {
          "indexed": true,
          "internalType": "address",
          "name": "from",
          "type": "address"
        },
        {
          "indexed": true,
          "internalType": "address",
          "name": "to",
          "type": "address"
        },
        {
          "indexed": false,
          "internalType": "uint256",
          "name": "value",
          "type": "uint256"
        }
      ],
      "name": "Transfer",
      "type": "event"
    },
    {
      "anonymous": false,
      "inputs": [
        {
          "indexed": false,
          "internalType": "address",
          "name": "oldTreasury",
          "type": "address"
        },
        {
          "indexed": false,
          "internalType": "address",
          "name": "newTreasury",
          "type": "address"
        }
      ],
      "name": "TreasuryUpdated",
      "type": "event"
    },
    {
      "anonymous": false,
      "inputs": [
        {
          "indexed": true,
          "internalType": "address",
          "name": "previousGovernor",
          "type": "address"
        },
        {
          "indexed": true,
          "internalType": "address",
          "name": "proposedGovernor",
          "type": "address"
        }
      ],
      "name": "UpdatedGovernor",
      "type": "event"
    },
    {
      "anonymous": false,
      "inputs": [
        {
          "indexed": false,
          "internalType": "uint256",
          "name": "tokenId",
          "type": "uint256"
        },
        {
          "indexed": false,
          "internalType": "address",
          "name": "account",
          "type": "address"
        },
        {
          "indexed": false,
          "internalType": "uint256",
          "name": "amount",
          "type": "uint256"
        },
        {
          "indexed": false,
          "internalType": "uint256",
          "name": "lockPeriod",
          "type": "uint256"
        }
      ],
      "name": "VspLocked",
      "type": "event"
    },
    {
      "anonymous": false,
      "inputs": [
        {
          "indexed": false,
          "internalType": "uint256",
          "name": "tokenId",
          "type": "uint256"
        },
        {
          "indexed": false,
          "internalType": "uint256",
          "name": "amount",
          "type": "uint256"
        },
        {
          "indexed": false,
          "internalType": "uint256",
          "name": "unlocked",
          "type": "uint256"
        },
        {
          "indexed": false,
          "internalType": "uint256",
          "name": "penalty",
          "type": "uint256"
        }
      ],
      "name": "VspUnlocked",
      "type": "event"
    },
    {
      "inputs": [],
      "name": "MAXIMUM_BOOST",
      "outputs": [
        {
          "internalType": "uint256",
          "name": "",
          "type": "uint256"
        }
      ],
      "stateMutability": "view",
      "type": "function"
    },
    {
      "inputs": [],
      "name": "MAXIMUM_LOCK_PERIOD",
      "outputs": [
        {
          "internalType": "uint256",
          "name": "",
          "type": "uint256"
        }
      ],
      "stateMutability": "view",
      "type": "function"
    },
    {
      "inputs": [],
      "name": "MINIMUM_LOCK_PERIOD",
      "outputs": [
        {
          "internalType": "uint256",
          "name": "",
          "type": "uint256"
        }
      ],
      "stateMutability": "view",
      "type": "function"
    },
    {
      "inputs": [],
      "name": "VERSION",
      "outputs": [
        {
          "internalType": "string",
          "name": "",
          "type": "string"
        }
      ],
      "stateMutability": "view",
      "type": "function"
    },
    {
      "inputs": [],
      "name": "VSP",
      "outputs": [
        {
          "internalType": "contract IERC20",
          "name": "",
          "type": "address"
        }
      ],
      "stateMutability": "view",
      "type": "function"
    },
    {
      "inputs": [],
      "name": "acceptGovernorship",
      "outputs": [],
      "stateMutability": "nonpayable",
      "type": "function"
    },
    {
      "inputs": [
        {
          "internalType": "address",
          "name": "",
          "type": "address"
        },
        {
          "internalType": "address",
          "name": "",
          "type": "address"
        }
      ],
      "name": "allowance",
      "outputs": [
        {
          "internalType": "uint256",
          "name": "",
          "type": "uint256"
        }
      ],
      "stateMutability": "view",
      "type": "function"
    },
    {
      "inputs": [
        {
          "internalType": "address",
          "name": "",
          "type": "address"
        },
        {
          "internalType": "uint256",
          "name": "",
          "type": "uint256"
        }
      ],
      "name": "approve",
      "outputs": [
        {
          "internalType": "bool",
          "name": "",
          "type": "bool"
        }
      ],
      "stateMutability": "nonpayable",
      "type": "function"
    },
    {
      "inputs": [
        {
          "internalType": "address",
          "name": "account_",
          "type": "address"
        }
      ],
      "name": "balanceOf",
      "outputs": [
        {
          "internalType": "uint256",
          "name": "",
          "type": "uint256"
        }
      ],
      "stateMutability": "view",
      "type": "function"
    },
    {
      "inputs": [
        {
          "internalType": "address",
          "name": "",
          "type": "address"
        }
      ],
      "name": "boosted",
      "outputs": [
        {
          "internalType": "uint256",
          "name": "",
          "type": "uint256"
        }
      ],
      "stateMutability": "view",
      "type": "function"
    },
    {
      "inputs": [],
      "name": "decimals",
      "outputs": [
        {
          "internalType": "uint8",
          "name": "",
          "type": "uint8"
        }
      ],
      "stateMutability": "view",
      "type": "function"
    },
    {
      "inputs": [
        {
          "internalType": "address",
          "name": "",
          "type": "address"
        },
        {
          "internalType": "uint256",
          "name": "",
          "type": "uint256"
        }
      ],
      "name": "decreaseAllowance",
      "outputs": [
        {
          "internalType": "bool",
          "name": "",
          "type": "bool"
        }
      ],
      "stateMutability": "nonpayable",
      "type": "function"
    },
    {
      "inputs": [],
      "name": "esVSP721",
      "outputs": [
        {
          "internalType": "contract IESVSP721",
          "name": "",
          "type": "address"
        }
      ],
      "stateMutability": "view",
      "type": "function"
    },
    {
      "inputs": [],
      "name": "exitPenalty",
      "outputs": [
        {
          "internalType": "uint256",
          "name": "",
          "type": "uint256"
        }
      ],
      "stateMutability": "view",
      "type": "function"
    },
    {
      "inputs": [],
      "name": "governor",
      "outputs": [
        {
          "internalType": "address",
          "name": "",
          "type": "address"
        }
      ],
      "stateMutability": "view",
      "type": "function"
    },
    {
      "inputs": [
        {
          "internalType": "address",
          "name": "",
          "type": "address"
        },
        {
          "internalType": "uint256",
          "name": "",
          "type": "uint256"
        }
      ],
      "name": "increaseAllowance",
      "outputs": [
        {
          "internalType": "bool",
          "name": "",
          "type": "bool"
        }
      ],
      "stateMutability": "nonpayable",
      "type": "function"
    },
    {
      "inputs": [
        {
          "internalType": "string",
          "name": "name_",
          "type": "string"
        },
        {
          "internalType": "string",
          "name": "symbol_",
          "type": "string"
        },
        {
          "internalType": "uint8",
          "name": "decimals_",
          "type": "uint8"
        },
        {
          "internalType": "contract IESVSP721",
          "name": "esVSP721_",
          "type": "address"
        },
        {
          "internalType": "address",
          "name": "treasury_",
          "type": "address"
        }
      ],
      "name": "initialize",
      "outputs": [],
      "stateMutability": "nonpayable",
      "type": "function"
    },
    {
      "inputs": [
        {
          "internalType": "contract IRewards",
          "name": "rewards_",
          "type": "address"
        }
      ],
      "name": "initializeRewards",
      "outputs": [],
      "stateMutability": "nonpayable",
      "type": "function"
    },
    {
      "inputs": [
        {
          "internalType": "uint256",
          "name": "tokenId_",
          "type": "uint256"
        }
      ],
      "name": "kick",
      "outputs": [],
      "stateMutability": "nonpayable",
      "type": "function"
    },
    {
      "inputs": [
        {
          "internalType": "address",
          "name": "account_",
          "type": "address"
        }
      ],
      "name": "kickAllExpiredOf",
      "outputs": [],
      "stateMutability": "nonpayable",
      "type": "function"
    },
    {
      "inputs": [
        {
          "internalType": "uint256",
          "name": "amount_",
          "type": "uint256"
        },
        {
          "internalType": "uint256",
          "name": "lockPeriod_",
          "type": "uint256"
        }
      ],
      "name": "lock",
      "outputs": [],
      "stateMutability": "nonpayable",
      "type": "function"
    },
    {
      "inputs": [
        {
          "internalType": "address",
          "name": "to_",
          "type": "address"
        },
        {
          "internalType": "uint256",
          "name": "amount_",
          "type": "uint256"
        },
        {
          "internalType": "uint256",
          "name": "lockPeriod_",
          "type": "uint256"
        }
      ],
      "name": "lockFor",
      "outputs": [],
      "stateMutability": "nonpayable",
      "type": "function"
    },
    {
      "inputs": [
        {
          "internalType": "address",
          "name": "",
          "type": "address"
        }
      ],
      "name": "locked",
      "outputs": [
        {
          "internalType": "uint256",
          "name": "",
          "type": "uint256"
        }
      ],
      "stateMutability": "view",
      "type": "function"
    },
    {
      "inputs": [
        {
          "internalType": "address",
          "name": "account_",
          "type": "address"
        }
      ],
      "name": "lockedBalanceOf",
      "outputs": [
        {
          "internalType": "uint256",
          "name": "",
          "type": "uint256"
        }
      ],
      "stateMutability": "view",
      "type": "function"
    },
    {
      "inputs": [],
      "name": "name",
      "outputs": [
        {
          "internalType": "string",
          "name": "",
          "type": "string"
        }
      ],
      "stateMutability": "view",
      "type": "function"
    },
    {
      "inputs": [
        {
          "internalType": "uint256",
          "name": "",
          "type": "uint256"
        }
      ],
      "name": "positions",
      "outputs": [
        {
          "internalType": "uint256",
          "name": "lockedAmount",
          "type": "uint256"
        },
        {
          "internalType": "uint256",
          "name": "boostedAmount",
          "type": "uint256"
        },
        {
          "internalType": "uint256",
          "name": "unlockTime",
          "type": "uint256"
        }
      ],
      "stateMutability": "view",
      "type": "function"
    },
    {
      "inputs": [],
      "name": "proposedGovernor",
      "outputs": [
        {
          "internalType": "address",
          "name": "",
          "type": "address"
        }
      ],
      "stateMutability": "view",
      "type": "function"
    },
    {
      "inputs": [],
      "name": "rewards",
      "outputs": [
        {
          "internalType": "contract IRewards",
          "name": "",
          "type": "address"
        }
      ],
      "stateMutability": "view",
      "type": "function"
    },
    {
      "inputs": [],
      "name": "symbol",
      "outputs": [
        {
          "internalType": "string",
          "name": "",
          "type": "string"
        }
      ],
      "stateMutability": "view",
      "type": "function"
    },
    {
      "inputs": [],
      "name": "totalBoosted",
      "outputs": [
        {
          "internalType": "uint256",
          "name": "",
          "type": "uint256"
        }
      ],
      "stateMutability": "view",
      "type": "function"
    },
    {
      "inputs": [],
      "name": "totalLocked",
      "outputs": [
        {
          "internalType": "uint256",
          "name": "",
          "type": "uint256"
        }
      ],
      "stateMutability": "view",
      "type": "function"
    },
    {
      "inputs": [],
      "name": "totalSupply",
      "outputs": [
        {
          "internalType": "uint256",
          "name": "",
          "type": "uint256"
        }
      ],
      "stateMutability": "view",
      "type": "function"
    },
    {
      "inputs": [
        {
          "internalType": "address",
          "name": "",
          "type": "address"
        },
        {
          "internalType": "uint256",
          "name": "",
          "type": "uint256"
        }
      ],
      "name": "transfer",
      "outputs": [
        {
          "internalType": "bool",
          "name": "",
          "type": "bool"
        }
      ],
      "stateMutability": "nonpayable",
      "type": "function"
    },
    {
      "inputs": [
        {
          "internalType": "address",
          "name": "",
          "type": "address"
        },
        {
          "internalType": "address",
          "name": "",
          "type": "address"
        },
        {
          "internalType": "uint256",
          "name": "",
          "type": "uint256"
        }
      ],
      "name": "transferFrom",
      "outputs": [
        {
          "internalType": "bool",
          "name": "",
          "type": "bool"
        }
      ],
      "stateMutability": "nonpayable",
      "type": "function"
    },
    {
      "inputs": [
        {
          "internalType": "address",
          "name": "_proposedGovernor",
          "type": "address"
        }
      ],
      "name": "transferGovernorship",
      "outputs": [],
      "stateMutability": "nonpayable",
      "type": "function"
    },
    {
      "inputs": [
        {
          "internalType": "uint256",
          "name": "tokenId_",
          "type": "uint256"
        },
        {
          "internalType": "address",
          "name": "to_",
          "type": "address"
        }
      ],
      "name": "transferPosition",
      "outputs": [],
      "stateMutability": "nonpayable",
      "type": "function"
    },
    {
      "inputs": [],
      "name": "treasury",
      "outputs": [
        {
          "internalType": "address",
          "name": "",
          "type": "address"
        }
      ],
      "stateMutability": "view",
      "type": "function"
    },
    {
      "inputs": [
        {
          "internalType": "uint256",
          "name": "tokenId_",
          "type": "uint256"
        },
        {
          "internalType": "bool",
          "name": "beforeUnlockTime_",
          "type": "bool"
        }
      ],
      "name": "unlock",
      "outputs": [],
      "stateMutability": "nonpayable",
      "type": "function"
    },
    {
      "inputs": [
        {
          "internalType": "uint256",
          "name": "exitPenalty_",
          "type": "uint256"
        }
      ],
      "name": "updateExitPenalty",
      "outputs": [],
      "stateMutability": "nonpayable",
      "type": "function"
    },
    {
      "inputs": [
        {
          "internalType": "address",
          "name": "treasury_",
          "type": "address"
        }
      ],
      "name": "updateTreasury",
      "outputs": [],
      "stateMutability": "nonpayable",
      "type": "function"
    }
  ],
  "transactionHash": "0xc6011f12014a5526849afdc29103cbf06ac90beb23b383120af92e80c594c901",
  "args": [],
  "numDeployments": 2,
  "solcInputHash": "8d79479036500072bf188fc000d0018b",
  "bytecode": "0x608060405234801561001057600080fd5b50600160005561253b806100256000396000f3fe608060405234801561001057600080fd5b50600436106102485760003560e01c806370a082311161013b578063a457c2d7116100b8578063ce0cf1a51161007c578063ce0cf1a514610550578063d8de0c4e14610563578063dd62ed3e14610576578063f3b27bc314610584578063ffa1ad741461058c57600080fd5b8063a457c2d714610370578063a9059cbb146104fc578063b6aa515b1461050a578063c820f1461461051d578063cbf9fe5f1461053057600080fd5b80638a11a370116100ff5780638a11a370146104715780638e0b01981461048457806395d89b411461049757806399fbab881461049f5780639ec5a894146104e957600080fd5b806370a08231146103f75780637f51bb1f146104205780637faf90571461043357806383e0c6b21461043e57806383e25f8a1461045e57600080fd5b80632669e8ea116101c9578063568914121161018d5780635689141214610396578063593557361461039f57806361d027b3146103c8578063631516c2146103db5780636b41674c146103e457600080fd5b80632669e8ea14610326578063313ce5671461032f57806335faf38914610355578063395093511461037057806355bd513f1461038357600080fd5b80631a225bb4116102105780631a225bb4146102db5780631bff6098146102ee57806321a40589146102f657806323b872dd14610300578063240581d41461031357600080fd5b806306fdde031461024d578063095ea7b31461026b5780630c340a241461028e5780631338736f146102b457806318160ddd146102c9575b600080fd5b6102556105b0565b6040516102629190611ff8565b60405180910390f35b61027e610279366004612040565b61063e565b6040519015158152602001610262565b6001546102a7906201000090046001600160a01b031681565b604051610262919061206c565b6102c76102c2366004612080565b610687565b005b6009545b604051908152602001610262565b6102c76102e93660046120a2565b6106ce565b6102cd600481565b6102cd62093a8081565b61027e61030e3660046120bf565b610710565b6102c76103213660046120a2565b610754565b6102cd600a5481565b60025461034390600160a01b900460ff1681565b60405160ff9091168152602001610262565b6102a7731b40183efb4dd766f11bda7a7c3ad8982e99842181565b61027e61037e366004612040565b61083e565b6102c7610391366004612100565b610883565b6102cd60085481565b6102cd6103ad3660046120a2565b6001600160a01b03166000908152600c602052604090205490565b6005546102a7906001600160a01b031681565b6102cd60095481565b6102c76103f236600461213e565b610a92565b6102cd6104053660046120a2565b6001600160a01b03166000908152600d602052604090205490565b6102c761042e3660046120a2565b610ad7565b6102cd6303c2670081565b6102cd61044c3660046120a2565b600d6020526000908152604090205481565b6102c761046c366004612163565b610c14565b6002546102a7906001600160a01b031681565b6102c7610492366004612198565b610c50565b610255610d58565b6104ce6104ad366004612198565b600b6020526000908152604090208054600182015460029092015490919083565b60408051938452602084019290925290820152606001610262565b6007546102a7906001600160a01b031681565b61027e61030e366004612040565b6102c76105183660046120a2565b610d65565b6102c761052b366004612254565b610e0a565b6102cd61053e3660046120a2565b600c6020526000908152604090205481565b6102c761055e366004612198565b610fe0565b6006546102a7906001600160a01b031681565b6102cd61037e3660046122f8565b6102c761109b565b610255604051806040016040528060058152602001640312e302e360dc1b81525081565b600380546105bd90612326565b80601f01602080910402602001604051908101604052809291908181526020018280546105e990612326565b80156106365780601f1061060b57610100808354040283529160200191610636565b820191906000526020600020905b81548152906001019060200180831161061957829003601f168201915b505050505081565b60405162461bcd60e51b8152602060048201526016602482015275185c1c1c9bdd985b0b5b9bdd0b5cdd5c1c1bdc9d195960521b60448201526000906064015b60405180910390fd5b600260005414156106aa5760405162461bcd60e51b815260040161067e90612361565b6002600055336106b98161116b565b6106c48184846111e2565b5050600160005550565b600260005414156106f15760405162461bcd60e51b815260040161067e90612361565b60026000556106ff8161116b565b6107088161160e565b506001600055565b60405162461bcd60e51b81526020600482015260166024820152751d1c985b9cd9995c8b5b9bdd0b5cdd5c1c1bdc9d195960521b604482015260009060640161067e565b6001546001600160a01b03620100009091041633146107855760405162461bcd60e51b815260040161067e90612398565b6007546001600160a01b0316156107d45760405162461bcd60e51b8152602060048201526013602482015272185b1c9958591e4b5a5b9a5d1a585b1a5e9959606a1b604482015260640161067e565b6001600160a01b03811661081c5760405162461bcd60e51b815260206004820152600f60248201526e1859191c995cdccb5a5ccb5b9d5b1b608a1b604482015260640161067e565b600780546001600160a01b0319166001600160a01b0392909216919091179055565b60405162461bcd60e51b8152602060048201526017602482015276185b1b1bddd85b98d94b5b9bdd0b5cdd5c1c1bdc9d1959604a1b604482015260009060640161067e565b6006546001600160a01b0316336001600160a01b0316146108d55760405162461bcd60e51b815260206004820152600c60248201526b6e6f742d657376737037323160a01b604482015260640161067e565b6006546040516331a9108f60e11b8152600481018490526000916001600160a01b031690636352211e9060240160206040518083038186803b15801561091a57600080fd5b505afa15801561092e573d6000803e3d6000fd5b505050506040513d601f19601f8201168201806040525081019061095291906123be565b905061095d8161116b565b6109668261116b565b6000838152600b60209081526040808320815160608101835281548082526001830154828601819052600290930154828501526001600160a01b0387168652600c9094529184208054929491928492906109c19084906123f1565b90915550506001600160a01b0384166000908152600d6020526040812080548392906109ee9084906123f1565b90915550506001600160a01b0385166000908152600c602052604081208054849290610a1b908490612408565b90915550506001600160a01b0385166000908152600d602052604081208054839290610a48908490612408565b92505081905550846001600160a01b0316846001600160a01b03166000805160206124e683398151915283604051610a8291815260200190565b60405180910390a3505050505050565b60026000541415610ab55760405162461bcd60e51b815260040161067e90612361565b6002600055610ac33361116b565b610ace828215611772565b50506001600055565b6001546001600160a01b0362010000909104163314610b085760405162461bcd60e51b815260040161067e90612398565b6001600160a01b038116610b4d5760405162461bcd60e51b815260206004820152600c60248201526b1859191c995cdccb5b9d5b1b60a21b604482015260640161067e565b6005546001600160a01b0382811691161415610bab5760405162461bcd60e51b815260206004820152601a60248201527f616464726573732d69732d73616d652d61732d63757272656e74000000000000604482015260640161067e565b600554604080516001600160a01b03928316815291831660208301527f4ab5be82436d353e61ca18726e984e561f5c1cc7c6d38b29d2553c790434705a910160405180910390a1600580546001600160a01b0319166001600160a01b0392909216919091179055565b60026000541415610c375760405162461bcd60e51b815260040161067e90612361565b6002600055610c458361116b565b6106c48383836111e2565b6001546001600160a01b0362010000909104163314610c815760405162461bcd60e51b815260040161067e90612398565b670de0b6b3a7640000811115610ccc5760405162461bcd60e51b815260206004820152601060248201526f657869742d6665652d67742d3130302560801b604482015260640161067e565b600a54811415610d175760405162461bcd60e51b81526020600482015260166024820152751999594b5a5ccb5cd85b594b585ccb58dd5c9c995b9d60521b604482015260640161067e565b600a5460408051918252602082018390527f40a1b57526b8108990c3b8bdc1a76477678cc96d824146b9af3f9799bb3d50a1910160405180910390a1600a55565b600480546105bd90612326565b6001546001600160a01b0362010000909104163314610d965760405162461bcd60e51b815260040161067e90612398565b6001600160a01b038116610de85760405162461bcd60e51b815260206004820152601960248201527870726f706f7365642d676f7665726e6f722d69732d7a65726f60381b604482015260640161067e565b600280546001600160a01b0319166001600160a01b0392909216919091179055565b600154610100900460ff16610e255760015460ff1615610e29565b303b155b610e8c5760405162461bcd60e51b815260206004820152602e60248201527f496e697469616c697a61626c653a20636f6e747261637420697320616c72656160448201526d191e481a5b9a5d1a585b1a5e995960921b606482015260840161067e565b600154610100900460ff16158015610eae576001805461ffff19166101011790555b6001600160a01b038316610ef75760405162461bcd60e51b815260206004820152601060248201526f195cd594d40dcc8c4b5a5ccb5b9d5b1b60821b604482015260640161067e565b6001600160a01b038216610f405760405162461bcd60e51b815260206004820152601060248201526f1d1c99585cdd5c9e4b5a5ccb5b9d5b1b60821b604482015260640161067e565b610f48611849565b8551610f5b906003906020890190611f33565b508451610f6f906004906020880190611f33565b506002805460ff8616600160a01b0260ff60a01b19909116179055600680546001600160a01b038086166001600160a01b0319928316179092556706f05b59d3b20000600a5560058054928516929091169190911790558015610fd8576001805461ff00191690555b505050505050565b600260005414156110035760405162461bcd60e51b815260040161067e90612361565b600260009081556006546040516331a9108f60e11b8152600481018490526001600160a01b0390911690636352211e9060240160206040518083038186803b15801561104e57600080fd5b505afa158015611062573d6000803e3d6000fd5b505050506040513d601f19601f8201168201806040525081019061108691906123be565b90506110918161116b565b610ace828261190e565b6002546001600160a01b031633146110f15760405162461bcd60e51b81526020600482015260196024820152783737ba16ba343296b83937b837b9b2b216b3b7bb32b93737b960391b604482015260640161067e565b6002546001546040516001600160a01b039283169262010000909204909116907fd4459d5b8b913cab0244230fd9b1c08b6ceace7fe9230e60d0f74cbffdf849d090600090a3600280546001805462010000600160b01b0319166001600160a01b03831662010000021790556001600160a01b0319169055565b6007546001600160a01b0316156111df5760075460405163632447c960e01b81526001600160a01b039091169063632447c9906111ac90849060040161206c565b600060405180830381600087803b1580156111c657600080fd5b505af11580156111da573d6000803e3d6000fd5b505050505b50565b600082116112235760405162461bcd60e51b815260206004820152600e60248201526d616d6f756e742d69732d7a65726f60901b604482015260640161067e565b62093a80811161126e5760405162461bcd60e51b81526020600482015260166024820152756c6f636b2d706572696f642d6c742d6d696e696d756d60501b604482015260640161067e565b6303c267008111156112bb5760405162461bcd60e51b81526020600482015260166024820152756c6f636b2d706572696f642d67742d6d6178696d756d60501b604482015260640161067e565b6040516370a0823160e01b8152600090731b40183efb4dd766f11bda7a7c3ad8982e998421906370a08231906112f590309060040161206c565b60206040518083038186803b15801561130d57600080fd5b505afa158015611321573d6000803e3d6000fd5b505050506040513d601f19601f820116820180604052508101906113459190612420565b9050611367731b40183efb4dd766f11bda7a7c3ad8982e99842133308661191e565b6040516370a0823160e01b81526000908290731b40183efb4dd766f11bda7a7c3ad8982e998421906370a08231906113a390309060040161206c565b60206040518083038186803b1580156113bb57600080fd5b505afa1580156113cf573d6000803e3d6000fd5b505050506040513d601f19601f820116820180604052508101906113f39190612420565b6113fd91906123f1565b905060006303c2670060046114128685612439565b61141c9190612439565b6114269190612458565b6001600160a01b0387166000908152600c6020526040812080549293508492909190611453908490612408565b90915550506001600160a01b0386166000908152600d602052604081208054839290611480908490612408565b9250508190555081600860008282546114999190612408565b9250508190555080600960008282546114b29190612408565b90915550506006546040516335313c2160e11b81526000916001600160a01b031690636a627842906114e8908a9060040161206c565b602060405180830381600087803b15801561150257600080fd5b505af1158015611516573d6000803e3d6000fd5b505050506040513d601f19601f8201168201806040525081019061153a9190612420565b90506040518060600160405280848152602001838152602001864261155f9190612408565b90526000828152600b60209081526040808320845181558483015160018201559381015160029094019390935591518481526001600160a01b038a16926000805160206124e6833981519152910160405180910390a3604080518281526001600160a01b0389166020820152908101879052606081018690527faa9ebde20f0514c177b5333c75b05a899f29679313ee2851ee0b7fe9aee727b29060800160405180910390a150505050505050565b6006546040516370a0823160e01b81526000916001600160a01b0316906370a082319061163f90859060040161206c565b60206040518083038186803b15801561165757600080fd5b505afa15801561166b573d6000803e3d6000fd5b505050506040513d601f19601f8201168201806040525081019061168f9190612420565b905060005b8181101561176d57600654604051632f745c5960e01b81526001600160a01b038581166004830152602482018490526000921690632f745c599060440160206040518083038186803b1580156116e957600080fd5b505afa1580156116fd573d6000803e3d6000fd5b505050506040513d601f19601f820116820180604052508101906117219190612420565b6000818152600b602052604090206002015490915042111561175957611747818561190e565b826117518161247a565b935050611767565b8161176381612491565b9250505b50611694565b505050565b6006546040516331a9108f60e11b8152600481018490526000916001600160a01b031690636352211e9060240160206040518083038186803b1580156117b757600080fd5b505afa1580156117cb573d6000803e3d6000fd5b505050506040513d601f19601f820116820180604052508101906117ef91906123be565b9050336001600160a01b0382161461183e5760405162461bcd60e51b81526020600482015260126024820152713737ba16b837b9b4ba34b7b716b7bbb732b960711b604482015260640161067e565b61176d83838361198f565b600154610100900460ff166118b45760405162461bcd60e51b815260206004820152602b60248201527f496e697469616c697a61626c653a20636f6e7472616374206973206e6f74206960448201526a6e697469616c697a696e6760a81b606482015260840161067e565b600180546201000033810262010000600160b01b0319909216919091179182905560405191046001600160a01b0316906000907fd4459d5b8b913cab0244230fd9b1c08b6ceace7fe9230e60d0f74cbffdf849d0908290a3565b61191a8260018361198f565b5050565b6040516001600160a01b03808516602483015283166044820152606481018290526119899085906323b872dd60e01b906084015b60408051601f198184030181529190526020810180516001600160e01b03166001600160e01b031990931692909217909152611cb7565b50505050565b6000838152600b602090815260409182902082516060810184528154815260018201549281019290925260020154918101829052904281108415611a0d5780611a0d5760405162461bcd60e51b815260206004820152601060248201526f1b9bdd0b5d5b9b1bd8dad9590b5e595d60821b604482015260640161067e565b82516020840151600654604051630852cd8d60e31b8152600481018a90526001600160a01b03909116906342966c6890602401600060405180830381600087803b158015611a5a57600080fd5b505af1158015611a6e573d6000803e3d6000fd5b5050506000898152600b60209081526040808320838155600181018490556002018390556001600160a01b038a168352600c90915281208054859350909190611ab89084906123f1565b925050819055508160086000828254611ad191906123f1565b90915550506001600160a01b0386166000908152600d602052604081208054839290611afe9084906123f1565b925050819055508060096000828254611b1791906123f1565b9091555082905083158015611b2e57506000600a54115b15611c0d576000836004611b466303c2670086612439565b611b509190612458565b611b5a9190612458565b9050600081611b6942896123f1565b611b7b90670de0b6b3a7640000612439565b611b859190612458565b90506000670de0b6b3a764000082670de0b6b3a7640000600a5489611baa9190612439565b611bb49190612458565b611bbe9190612439565b611bc89190612458565b90508015611c0957600554611bfc90731b40183efb4dd766f11bda7a7c3ad8982e998421906001600160a01b031683611d89565b611c0681856123f1565b93505b5050505b611c2c731b40183efb4dd766f11bda7a7c3ad8982e9984218883611d89565b6040518281526000906001600160a01b038916906000805160206124e68339815191529060200160405180910390a37f12b401e87a80986bf539c17eb044022d7a4d83471454b06d8977cab0decdbd5e898483611c8981836123f1565b60408051948552602085019390935291830152606082015260800160405180910390a1505050505050505050565b6000611d0c826040518060400160405280602081526020017f5361666545524332303a206c6f772d6c6576656c2063616c6c206661696c6564815250856001600160a01b0316611db99092919063ffffffff16565b80519091501561176d5780806020019051810190611d2a91906124ac565b61176d5760405162461bcd60e51b815260206004820152602a60248201527f5361666545524332303a204552433230206f7065726174696f6e20646964206e6044820152691bdd081cdd58d8d9595960b21b606482015260840161067e565b6040516001600160a01b03831660248201526044810182905261176d90849063a9059cbb60e01b90606401611952565b6060611dc88484600085611dd2565b90505b9392505050565b606082471015611e335760405162461bcd60e51b815260206004820152602660248201527f416464726573733a20696e73756666696369656e742062616c616e636520666f6044820152651c8818d85b1b60d21b606482015260840161067e565b843b611e815760405162461bcd60e51b815260206004820152601d60248201527f416464726573733a2063616c6c20746f206e6f6e2d636f6e7472616374000000604482015260640161067e565b600080866001600160a01b03168587604051611e9d91906124c9565b60006040518083038185875af1925050503d8060008114611eda576040519150601f19603f3d011682016040523d82523d6000602084013e611edf565b606091505b5091509150611eef828286611efa565b979650505050505050565b60608315611f09575081611dcb565b825115611f195782518084602001fd5b8160405162461bcd60e51b815260040161067e9190611ff8565b828054611f3f90612326565b90600052602060002090601f016020900481019282611f615760008555611fa7565b82601f10611f7a57805160ff1916838001178555611fa7565b82800160010185558215611fa7579182015b82811115611fa7578251825591602001919060010190611f8c565b50611fb3929150611fb7565b5090565b5b80821115611fb35760008155600101611fb8565b60005b83811015611fe7578181015183820152602001611fcf565b838111156119895750506000910152565b6020815260008251806020840152612017816040850160208701611fcc565b601f01601f19169190910160400192915050565b6001600160a01b03811681146111df57600080fd5b6000806040838503121561205357600080fd5b823561205e8161202b565b946020939093013593505050565b6001600160a01b0391909116815260200190565b6000806040838503121561209357600080fd5b50508035926020909101359150565b6000602082840312156120b457600080fd5b8135611dcb8161202b565b6000806000606084860312156120d457600080fd5b83356120df8161202b565b925060208401356120ef8161202b565b929592945050506040919091013590565b6000806040838503121561211357600080fd5b8235915060208301356121258161202b565b809150509250929050565b80151581146111df57600080fd5b6000806040838503121561215157600080fd5b82359150602083013561212581612130565b60008060006060848603121561217857600080fd5b83356121838161202b565b95602085013595506040909401359392505050565b6000602082840312156121aa57600080fd5b5035919050565b634e487b7160e01b600052604160045260246000fd5b600082601f8301126121d857600080fd5b813567ffffffffffffffff808211156121f3576121f36121b1565b604051601f8301601f19908116603f0116810190828211818310171561221b5761221b6121b1565b8160405283815286602085880101111561223457600080fd5b836020870160208301376000602085830101528094505050505092915050565b600080600080600060a0868803121561226c57600080fd5b853567ffffffffffffffff8082111561228457600080fd5b61229089838a016121c7565b965060208801359150808211156122a657600080fd5b506122b3888289016121c7565b945050604086013560ff811681146122ca57600080fd5b925060608601356122da8161202b565b915060808601356122ea8161202b565b809150509295509295909350565b6000806040838503121561230b57600080fd5b82356123168161202b565b915060208301356121258161202b565b600181811c9082168061233a57607f821691505b6020821081141561235b57634e487b7160e01b600052602260045260246000fd5b50919050565b6020808252601f908201527f5265656e7472616e637947756172643a207265656e7472616e742063616c6c00604082015260600190565b6020808252600c908201526b3737ba16b3b7bb32b93737b960a11b604082015260600190565b6000602082840312156123d057600080fd5b8151611dcb8161202b565b634e487b7160e01b600052601160045260246000fd5b600082821015612403576124036123db565b500390565b6000821982111561241b5761241b6123db565b500190565b60006020828403121561243257600080fd5b5051919050565b6000816000190483118215151615612453576124536123db565b500290565b60008261247557634e487b7160e01b600052601260045260246000fd5b500490565b600081612489576124896123db565b506000190190565b60006000198214156124a5576124a56123db565b5060010190565b6000602082840312156124be57600080fd5b8151611dcb81612130565b600082516124db818460208701611fcc565b919091019291505056feddf252ad1be2c89b69c2b068fc378daa952ba7f163c4a11628f55a4df523b3efa2646970667358221220449c5bf89385518a7922bb75136a07364f87fbc4f12b7d9b35e85cb14a8639df64736f6c63430008090033",
  "devdoc": {
    "kind": "dev",
    "methods": {
      "acceptGovernorship()": {
        "details": "Allows new governor to accept governorship of the contract."
      },
      "balanceOf(address)": {
        "params": {
          "account_": "The account"
        },
        "returns": {
          "_0": "user's boost VSP balance. Boost VSP > locked VSP"
        }
      },
      "initializeRewards(address)": {
        "details": "Called once",
        "params": {
          "rewards_": "The new contract"
        }
      },
      "kick(uint256)": {
        "params": {
          "tokenId_": "ERC721 tokenId"
        }
      },
      "kickAllExpiredOf(address)": {
        "params": {
          "account_": "The target account"
        }
      },
      "lock(uint256,uint256)": {
        "params": {
          "amount_": "The VSP amount to lock",
          "lockPeriod_": "The lock period"
        }
      },
      "lockFor(address,uint256,uint256)": {
        "params": {
          "amount_": "The VSP amount to lock",
          "lockPeriod_": "The lock period"
        }
      },
      "lockedBalanceOf(address)": {
        "params": {
          "account_": "The account"
        },
        "returns": {
          "_0": "user's locked VSP balance"
        }
      },
      "transferGovernorship(address)": {
        "details": "Transfers governorship of the contract to a new account (`proposedGovernor`). Can only be called by the current owner."
      },
      "transferPosition(uint256,address)": {
        "details": "Revert if caller isn't the esVSP721 contract",
        "params": {
          "to_": "The recipient",
          "tokenId_": "The position (NFT) to transfer"
        }
      },
      "unlock(uint256,bool)": {
        "params": {
          "beforeUnlockTime_": "When `true` unlock before expiration and pays exit penalty",
          "tokenId_": "ERC721 tokenId"
        }
      },
      "updateExitPenalty(uint256)": {
        "params": {
          "exitPenalty_": "The new exit penalty"
        }
      },
      "updateTreasury(address)": {
        "params": {
          "treasury_": "The new treasury address"
        }
      }
    },
    "title": "Non-transferable escrowed VSP.",
    "version": 1
  },
  "userdoc": {
    "events": {
      "ExitPenaltyUpdated(uint256,uint256)": {
        "notice": "Emitted when the exit penalty is updated"
      },
      "TreasuryUpdated(address,address)": {
        "notice": "Emitted when the treasury address is updated"
      },
      "VspLocked(uint256,address,uint256,uint256)": {
        "notice": "Emitted when a new position is created (i.e. when user locks VSP)"
      },
      "VspUnlocked(uint256,uint256,uint256,uint256)": {
        "notice": "Emitted when a position is burned due to unlock or kick"
      }
    },
    "kind": "user",
    "methods": {
      "allowance(address,address)": {
        "notice": "Methods not supported *"
      },
      "balanceOf(address)": {
        "notice": "Get boosted VSP balance of user. This is different than ESVSP721.balanceOf() It is sum of boosted amount of VSP in each ERC721 (i.e. ESVSP721) token of user"
      },
      "boosted(address)": {
        "notice": "Total boosted amount by user among all his positions"
      },
      "esVSP721()": {
        "notice": "NFT contract"
      },
      "exitPenalty()": {
        "notice": "Fee paid when withdrawing. Decreases linearly as period finish approaches."
      },
      "initializeRewards(address)": {
        "notice": "Initialize the Rewards contract"
      },
      "kick(uint256)": {
        "notice": "Burn an expired position and send locked amount to the owner"
      },
      "kickAllExpiredOf(address)": {
        "notice": "Kick all expired positions from a given account"
      },
      "lock(uint256,uint256)": {
        "notice": "Lock VSP to get boosted revenue and voting power. Lock VSP and generate users position by minting ERC721"
      },
      "lockFor(address,uint256,uint256)": {
        "notice": "Lock VSP to get boosted revenue and voting power. Lock VSP and generate users position by minting ERC721"
      },
      "locked(address)": {
        "notice": "Total VSP locked by user among all his positions"
      },
      "lockedBalanceOf(address)": {
        "notice": "Get total locked VSP balance of user It is sum of locked VSP in each ERC721 (i.e. ESVSP721) token of user"
      },
      "positions(uint256)": {
        "notice": "Lock positions"
      },
      "rewards()": {
        "notice": "Rewards contract"
      },
      "totalBoosted()": {
        "notice": "Total boosted amount"
      },
      "totalLocked()": {
        "notice": "Total VSP locked"
      },
      "totalSupply()": {
        "notice": "Total boosted amount"
      },
      "transferPosition(uint256,address)": {
        "notice": "Transfer position (i.e. locked and boosted amounts) between accounts"
      },
      "treasury()": {
        "notice": "The treasury contract (will receive exit penalty collected)"
      },
      "unlock(uint256,bool)": {
        "notice": "Unlock VSP by burning given ERC721 tokenId_"
      },
      "updateExitPenalty(uint256)": {
        "notice": "Update exit penalty"
      },
      "updateTreasury(address)": {
        "notice": "Update treasury contract"
      }
    },
    "version": 1
  },
  "storageLayout": {
    "storage": [
      {
        "astId": 3123,
        "contract": "contracts/ESVSP.sol:ESVSP",
        "label": "_status",
        "offset": 0,
        "slot": "0",
        "type": "t_uint256"
      },
      {
        "astId": 3045,
        "contract": "contracts/ESVSP.sol:ESVSP",
        "label": "_initialized",
        "offset": 0,
        "slot": "1",
        "type": "t_bool"
      },
      {
        "astId": 3048,
        "contract": "contracts/ESVSP.sol:ESVSP",
        "label": "_initializing",
        "offset": 1,
        "slot": "1",
        "type": "t_bool"
      },
      {
        "astId": 2075,
        "contract": "contracts/ESVSP.sol:ESVSP",
        "label": "governor",
        "offset": 2,
        "slot": "1",
        "type": "t_address"
      },
      {
        "astId": 2077,
        "contract": "contracts/ESVSP.sol:ESVSP",
        "label": "proposedGovernor",
        "offset": 0,
        "slot": "2",
        "type": "t_address"
      },
      {
        "astId": 6164,
        "contract": "contracts/ESVSP.sol:ESVSP",
        "label": "decimals",
        "offset": 20,
        "slot": "2",
        "type": "t_uint8"
      },
      {
        "astId": 6166,
        "contract": "contracts/ESVSP.sol:ESVSP",
        "label": "name",
        "offset": 0,
        "slot": "3",
        "type": "t_string_storage"
      },
      {
        "astId": 6168,
        "contract": "contracts/ESVSP.sol:ESVSP",
        "label": "symbol",
        "offset": 0,
        "slot": "4",
        "type": "t_string_storage"
      },
      {
        "astId": 6171,
        "contract": "contracts/ESVSP.sol:ESVSP",
        "label": "treasury",
        "offset": 0,
        "slot": "5",
        "type": "t_address"
      },
      {
        "astId": 6175,
        "contract": "contracts/ESVSP.sol:ESVSP",
        "label": "esVSP721",
        "offset": 0,
        "slot": "6",
        "type": "t_contract(IESVSP721)6045"
      },
      {
        "astId": 6179,
        "contract": "contracts/ESVSP.sol:ESVSP",
        "label": "rewards",
        "offset": 0,
        "slot": "7",
        "type": "t_contract(IRewards)6115"
      },
      {
        "astId": 6183,
        "contract": "contracts/ESVSP.sol:ESVSP",
        "label": "totalLocked",
        "offset": 0,
        "slot": "8",
        "type": "t_uint256"
      },
      {
        "astId": 6187,
        "contract": "contracts/ESVSP.sol:ESVSP",
        "label": "totalBoosted",
        "offset": 0,
        "slot": "9",
        "type": "t_uint256"
      },
      {
        "astId": 6190,
        "contract": "contracts/ESVSP.sol:ESVSP",
        "label": "exitPenalty",
        "offset": 0,
        "slot": "10",
        "type": "t_uint256"
      },
      {
        "astId": 6196,
        "contract": "contracts/ESVSP.sol:ESVSP",
        "label": "positions",
        "offset": 0,
        "slot": "11",
        "type": "t_mapping(t_uint256,t_struct(LockPosition)6162_storage)"
      },
      {
        "astId": 6202,
        "contract": "contracts/ESVSP.sol:ESVSP",
        "label": "locked",
        "offset": 0,
        "slot": "12",
        "type": "t_mapping(t_address,t_uint256)"
      },
      {
        "astId": 6208,
        "contract": "contracts/ESVSP.sol:ESVSP",
        "label": "boosted",
        "offset": 0,
        "slot": "13",
        "type": "t_mapping(t_address,t_uint256)"
      }
    ],
    "types": {
      "t_address": {
        "encoding": "inplace",
        "label": "address",
        "numberOfBytes": "20"
      },
      "t_bool": {
        "encoding": "inplace",
        "label": "bool",
        "numberOfBytes": "1"
      },
      "t_contract(IESVSP721)6045": {
        "encoding": "inplace",
        "label": "contract IESVSP721",
        "numberOfBytes": "20"
      },
      "t_contract(IRewards)6115": {
        "encoding": "inplace",
        "label": "contract IRewards",
        "numberOfBytes": "20"
      },
      "t_mapping(t_address,t_uint256)": {
        "encoding": "mapping",
        "key": "t_address",
        "label": "mapping(address => uint256)",
        "numberOfBytes": "32",
        "value": "t_uint256"
      },
      "t_mapping(t_uint256,t_struct(LockPosition)6162_storage)": {
        "encoding": "mapping",
        "key": "t_uint256",
        "label": "mapping(uint256 => struct ESVSPStorageV1.LockPosition)",
        "numberOfBytes": "32",
        "value": "t_struct(LockPosition)6162_storage"
      },
      "t_string_storage": {
        "encoding": "bytes",
        "label": "string",
        "numberOfBytes": "32"
      },
      "t_struct(LockPosition)6162_storage": {
        "encoding": "inplace",
        "label": "struct ESVSPStorageV1.LockPosition",
        "members": [
          {
            "astId": 6157,
            "contract": "contracts/ESVSP.sol:ESVSP",
            "label": "lockedAmount",
            "offset": 0,
            "slot": "0",
            "type": "t_uint256"
          },
          {
            "astId": 6159,
            "contract": "contracts/ESVSP.sol:ESVSP",
            "label": "boostedAmount",
            "offset": 0,
            "slot": "1",
            "type": "t_uint256"
          },
          {
            "astId": 6161,
            "contract": "contracts/ESVSP.sol:ESVSP",
            "label": "unlockTime",
            "offset": 0,
            "slot": "2",
            "type": "t_uint256"
          }
        ],
        "numberOfBytes": "96"
      },
      "t_uint256": {
        "encoding": "inplace",
        "label": "uint256",
        "numberOfBytes": "32"
      },
      "t_uint8": {
        "encoding": "inplace",
        "label": "uint8",
        "numberOfBytes": "1"
      }
    }
  }
}