{
  "address": "0xa0f2e1157087B1a4953ebaE041073052C4DB31eC",
  "abi": [
    {
      "anonymous": false,
      "inputs": [
        {
          "indexed": false,
          "internalType": "uint8",
          "name": "version",
          "type": "uint8"
        }
      ],
      "name": "Initialized",
      "type": "event"
    },
    {
      "anonymous": false,
      "inputs": [
        {
          "indexed": true,
          "internalType": "address",
          "name": "rewardToken",
          "type": "address"
        },
        {
          "indexed": false,
          "internalType": "uint256",
          "name": "reward",
          "type": "uint256"
        },
        {
          "indexed": false,
          "internalType": "uint256",
          "name": "rewardDuration",
          "type": "uint256"
        }
      ],
      "name": "RewardAdded",
      "type": "event"
    },
    {
      "anonymous": false,
      "inputs": [
        {
          "indexed": false,
          "internalType": "address",
          "name": "rewardsToken",
          "type": "address"
        },
        {
          "indexed": false,
          "internalType": "address",
          "name": "distributor",
          "type": "address"
        },
        {
          "indexed": false,
          "internalType": "bool",
          "name": "approved",
          "type": "bool"
        }
      ],
      "name": "RewardDistributorApprovalUpdated",
      "type": "event"
    },
    {
      "anonymous": false,
      "inputs": [
        {
          "indexed": true,
          "internalType": "address",
          "name": "user",
          "type": "address"
        },
        {
          "indexed": true,
          "internalType": "address",
          "name": "rewardToken",
          "type": "address"
        },
        {
          "indexed": false,
          "internalType": "uint256",
          "name": "reward",
          "type": "uint256"
        }
      ],
      "name": "RewardPaid",
      "type": "event"
    },
    {
      "anonymous": false,
      "inputs": [
        {
          "indexed": true,
          "internalType": "address",
          "name": "rewardToken",
          "type": "address"
        },
        {
          "indexed": false,
          "internalType": "address[]",
          "name": "existingRewardTokens",
          "type": "address[]"
        }
      ],
      "name": "RewardTokenAdded",
      "type": "event"
    },
    {
      "anonymous": false,
      "inputs": [
        {
          "indexed": true,
          "internalType": "address",
          "name": "previousGovernor",
          "type": "address"
        },
        {
          "indexed": true,
          "internalType": "address",
          "name": "proposedGovernor",
          "type": "address"
        }
      ],
      "name": "UpdatedGovernor",
      "type": "event"
    },
    {
      "inputs": [],
      "name": "REWARD_DURATION",
      "outputs": [
        {
          "internalType": "uint256",
          "name": "",
          "type": "uint256"
        }
      ],
      "stateMutability": "view",
      "type": "function"
    },
    {
      "inputs": [],
      "name": "VERSION",
      "outputs": [
        {
          "internalType": "string",
          "name": "",
          "type": "string"
        }
      ],
      "stateMutability": "view",
      "type": "function"
    },
    {
      "inputs": [],
      "name": "acceptGovernorship",
      "outputs": [],
      "stateMutability": "nonpayable",
      "type": "function"
    },
    {
      "inputs": [
        {
          "internalType": "address",
          "name": "rewardsToken_",
          "type": "address"
        },
        {
          "internalType": "address",
          "name": "distributor_",
          "type": "address"
        },
        {
          "internalType": "bool",
          "name": "isBoosted_",
          "type": "bool"
        }
      ],
      "name": "addRewardToken",
      "outputs": [],
      "stateMutability": "nonpayable",
      "type": "function"
    },
    {
      "inputs": [
        {
          "internalType": "address",
          "name": "account_",
          "type": "address"
        }
      ],
      "name": "claimRewards",
      "outputs": [],
      "stateMutability": "nonpayable",
      "type": "function"
    },
    {
      "inputs": [
        {
          "internalType": "address",
          "name": "account_",
          "type": "address"
        }
      ],
      "name": "claimableRewards",
      "outputs": [
        {
          "internalType": "address[]",
          "name": "_rewardTokens",
          "type": "address[]"
        },
        {
          "internalType": "uint256[]",
          "name": "_claimableAmounts",
          "type": "uint256[]"
        }
      ],
      "stateMutability": "view",
      "type": "function"
    },
    {
      "inputs": [
        {
          "internalType": "address",
          "name": "rewardToken_",
          "type": "address"
        },
        {
          "internalType": "uint256",
          "name": "rewardAmount_",
          "type": "uint256"
        }
      ],
      "name": "dripRewardAmount",
      "outputs": [],
      "stateMutability": "nonpayable",
      "type": "function"
    },
    {
      "inputs": [],
      "name": "esVSP",
      "outputs": [
        {
          "internalType": "contract IESVSP",
          "name": "",
          "type": "address"
        }
      ],
      "stateMutability": "view",
      "type": "function"
    },
    {
      "inputs": [],
      "name": "governor",
      "outputs": [
        {
          "internalType": "address",
          "name": "",
          "type": "address"
        }
      ],
      "stateMutability": "view",
      "type": "function"
    },
    {
      "inputs": [
        {
          "internalType": "contract IESVSP",
          "name": "esVSP_",
          "type": "address"
        }
      ],
      "name": "initialize",
      "outputs": [],
      "stateMutability": "nonpayable",
      "type": "function"
    },
    {
      "inputs": [
        {
          "internalType": "address",
          "name": "",
          "type": "address"
        },
        {
          "internalType": "address",
          "name": "",
          "type": "address"
        }
      ],
      "name": "isRewardDistributor",
      "outputs": [
        {
          "internalType": "bool",
          "name": "",
          "type": "bool"
        }
      ],
      "stateMutability": "view",
      "type": "function"
    },
    {
      "inputs": [
        {
          "internalType": "address",
          "name": "_rewardToken",
          "type": "address"
        }
      ],
      "name": "lastTimeRewardApplicable",
      "outputs": [
        {
          "internalType": "uint256",
          "name": "",
          "type": "uint256"
        }
      ],
      "stateMutability": "view",
      "type": "function"
    },
    {
      "inputs": [],
      "name": "proposedGovernor",
      "outputs": [
        {
          "internalType": "address",
          "name": "",
          "type": "address"
        }
      ],
      "stateMutability": "view",
      "type": "function"
    },
    {
      "inputs": [
        {
          "internalType": "address",
          "name": "",
          "type": "address"
        },
        {
          "internalType": "address",
          "name": "",
          "type": "address"
        }
      ],
      "name": "rewardOf",
      "outputs": [
        {
          "internalType": "uint128",
          "name": "rewardPerTokenPaid",
          "type": "uint128"
        },
        {
          "internalType": "uint128",
          "name": "claimableRewardsStored",
          "type": "uint128"
        }
      ],
      "stateMutability": "view",
      "type": "function"
    },
    {
      "inputs": [
        {
          "internalType": "uint256",
          "name": "",
          "type": "uint256"
        }
      ],
      "name": "rewardTokens",
      "outputs": [
        {
          "internalType": "address",
          "name": "",
          "type": "address"
        }
      ],
      "stateMutability": "view",
      "type": "function"
    },
    {
      "inputs": [
        {
          "internalType": "address",
          "name": "",
          "type": "address"
        }
      ],
      "name": "rewards",
      "outputs": [
        {
          "internalType": "bool",
          "name": "isBoosted",
          "type": "bool"
        },
        {
          "internalType": "uint256",
          "name": "periodFinish",
          "type": "uint256"
        },
        {
          "internalType": "uint256",
          "name": "rewardPerSecond",
          "type": "uint256"
        },
        {
          "internalType": "uint256",
          "name": "lastUpdateTime",
          "type": "uint256"
        },
        {
          "internalType": "uint256",
          "name": "rewardPerTokenStored",
          "type": "uint256"
        }
      ],
      "stateMutability": "view",
      "type": "function"
    },
    {
      "inputs": [
        {
          "internalType": "address",
          "name": "rewardsToken_",
          "type": "address"
        },
        {
          "internalType": "address",
          "name": "distributor_",
          "type": "address"
        },
        {
          "internalType": "bool",
          "name": "approved_",
          "type": "bool"
        }
      ],
      "name": "setRewardDistributorApproval",
      "outputs": [],
      "stateMutability": "nonpayable",
      "type": "function"
    },
    {
      "inputs": [
        {
          "internalType": "address",
          "name": "_proposedGovernor",
          "type": "address"
        }
      ],
      "name": "transferGovernorship",
      "outputs": [],
      "stateMutability": "nonpayable",
      "type": "function"
    },
    {
      "inputs": [
        {
          "internalType": "address",
          "name": "account_",
          "type": "address"
        }
      ],
      "name": "updateReward",
      "outputs": [],
      "stateMutability": "nonpayable",
      "type": "function"
    }
  ],
  "transactionHash": "0x7d25dbdc354ab56e68e07e16f649e215dca097d90ef94898fd944876b571bc15",
  "args": [],
  "numDeployments": 1,
  "solcInputHash": "7f37f03f0bc33d73c73e9428bb0a0c84",
  "bytecode": "0x608060405234801561001057600080fd5b506001600055611d8b806100256000396000f3fe608060405234801561001057600080fd5b50600436106101105760003560e01c80637bb7bed1116100ad578063dc01f60d11610071578063dc01f60d146102e2578063e947582814610303578063ef5cfb8c14610341578063f3b27bc314610354578063ffa1ad741461035c57600080fd5b80637bb7bed1146102835780638a11a37014610296578063ac5c3f86146102a9578063b6aa515b146102bc578063c4d66de8146102cf57600080fd5b806281cd0b146101155780630700037d1461012a5780630c340a241461019a57806311a208fa146101c05780634732aa1d146101d357806351892ba3146102325780635ade228a14610245578063632447c91461025d578063638634ee14610270575b600080fd5b6101286101233660046119b3565b61038d565b005b61016b6101383660046119fe565b6005602052600090815260409020805460018201546002830154600384015460049094015460ff90931693919290919085565b6040805195151586526020860194909452928401919091526060830152608082015260a0015b60405180910390f35b6001546101b3906201000090046001600160a01b031681565b6040516101919190611a1b565b6101286101ce3660046119b3565b610542565b6102126101e1366004611a2f565b60066020908152600092835260408084209091529082529020546001600160801b0380821691600160801b90041682565b604080516001600160801b03938416815292909116602083015201610191565b610128610240366004611a68565b610627565b61024f62278d0081565b604051908152602001610191565b61012861026b3660046119fe565b61071c565b61024f61027e3660046119fe565b61078d565b6101b3610291366004611a94565b6107ba565b6002546101b3906001600160a01b031681565b6003546101b3906001600160a01b031681565b6101286102ca3660046119fe565b6107e4565b6101286102dd3660046119fe565b610889565b6102f56102f03660046119fe565b6109f5565b604051610191929190611aad565b610331610311366004611a2f565b600760209081526000928352604080842090915290825290205460ff1681565b6040519015158152602001610191565b61012861034f3660046119fe565b610b4b565b610128610c17565b610380604051806040016040528060058152602001640312e302e360dc1b81525081565b6040516101919190611b5d565b6001546001600160a01b03620100009091041633146103c75760405162461bcd60e51b81526004016103be90611b90565b60405180910390fd5b6001600160a01b038316600090815260056020526040902060030154156104275760405162461bcd60e51b81526020600482015260146024820152731c995dd85c990b585b1c9958591e4b585919195960621b60448201526064016103be565b6040805160a0810182528215158152426020808301828152600084860181815260608601948552608086018281526001600160a01b038b168084526005909552918790209551865460ff1916901515178655915160018601559051600285015591516003840155905160049283015591517f438dc3ee1ea07ec168befb145c10eb363aad7cbec063f8a006b032031582ac2b916104c391611bb6565b60405180910390a2506004805460018082019092557f8a35acfbc15ff81a39ae7d344fd709f28e8600b4aa8c65c6b64bfe7fe36bd19b0180546001600160a01b0319166001600160a01b03948516908117909155600090815260076020908152604080832094909516825292909252919020805460ff19169091179055565b6001546001600160a01b03620100009091041633146105735760405162461bcd60e51b81526004016103be90611b90565b6001600160a01b0383166000908152600560205260409020600301546105ab5760405162461bcd60e51b81526004016103be90611c06565b6001600160a01b03838116600081815260076020908152604080832094871680845294825291829020805460ff19168615159081179091558251938452908301939093528101919091527fb324d0d65aefe344b0ced3f062ed49bff7641e4527a8727807e98936704e20c69060600160405180910390a1505050565b6001600160a01b03821660009081526005602052604090206003015461065f5760405162461bcd60e51b81526004016103be90611c06565b6001600160a01b038216600090815260076020908152604080832033845290915290205460ff166106c45760405162461bcd60e51b815260206004820152600f60248201526e3737ba16b234b9ba3934b13aba37b960891b60448201526064016103be565b6000811161070e5760405162461bcd60e51b81526020600482015260176024820152761a5b98dbdc9c9958dd0b5c995dd85c990b585b5bdd5b9d604a1b60448201526064016103be565b6107188282610ce7565b5050565b600454600080805b838110156107865760006004828154811061074157610741611c36565b6000918252602090912001546001600160a01b031690506107628187611020565b909450925061077381878686611262565b508061077e81611c62565b915050610724565b5050505050565b6001600160a01b0381166000908152600560205260408120600101546107b490429061133a565b92915050565b600481815481106107ca57600080fd5b6000918252602090912001546001600160a01b0316905081565b6001546001600160a01b03620100009091041633146108155760405162461bcd60e51b81526004016103be90611b90565b6001600160a01b0381166108675760405162461bcd60e51b815260206004820152601960248201527870726f706f7365642d676f7665726e6f722d69732d7a65726f60381b60448201526064016103be565b600280546001600160a01b0319166001600160a01b0392909216919091179055565b600154610100900460ff16158080156108a657506001805460ff16105b806108bf5750303b1580156108bf57506001805460ff16145b6109225760405162461bcd60e51b815260206004820152602e60248201527f496e697469616c697a61626c653a20636f6e747261637420697320616c72656160448201526d191e481a5b9a5d1a585b1a5e995960921b60648201526084016103be565b6001805460ff1916811790558015610944576001805461ff0019166101001790555b6001600160a01b03821661098a5760405162461bcd60e51b815260206004820152600d60248201526c195cd594d40b5a5ccb5b9d5b1b609a1b60448201526064016103be565b610992611352565b600380546001600160a01b0319166001600160a01b0384161790558015610718576001805461ff00191681556040519081527f7f26b83ff96e1f2b6a682f133852f6798a09c465da95921460cefb38474024989060200160405180910390a15050565b60045460609081908067ffffffffffffffff811115610a1657610a16611c7d565b604051908082528060200260200182016040528015610a3f578160200160208202803683370190505b5092508067ffffffffffffffff811115610a5b57610a5b611c7d565b604051908082528060200260200182016040528015610a84578160200160208202803683370190505b50915060008060005b83811015610b4257600060048281548110610aaa57610aaa611c36565b6000918252602090912001546001600160a01b03169050610acb8189611020565b809450819550505080878381518110610ae657610ae6611c36565b60200260200101906001600160a01b031690816001600160a01b031681525050610b1281898686611417565b868381518110610b2457610b24611c36565b60209081029190910101525080610b3a81611c62565b915050610a8d565b50505050915091565b610b536114c8565b600454600080805b83811015610c0657600060048281548110610b7857610b78611c36565b6000918252602090912001546001600160a01b03169050610b998187611020565b9094509250610baa81878686611262565b6001600160a01b038181166000908152600660209081526040808320938a1683529290522054600160801b90046001600160801b03168015610bf157610bf1828883611522565b50508080610bfe90611c62565b915050610b5b565b50505050610c146001600055565b50565b6002546001600160a01b03163314610c6d5760405162461bcd60e51b81526020600482015260196024820152783737ba16ba343296b83937b837b9b2b216b3b7bb32b93737b960391b60448201526064016103be565b6002546001546040516001600160a01b039283169262010000909204909116907fd4459d5b8b913cab0244230fd9b1c08b6ceace7fe9230e60d0f74cbffdf849d090600090a3600280546001805462010000600160b01b0319166001600160a01b03831662010000021790556001600160a01b0319169055565b6040516370a0823160e01b81526000906001600160a01b038416906370a0823190610d16903090600401611a1b565b60206040518083038186803b158015610d2e57600080fd5b505afa158015610d42573d6000803e3d6000fd5b505050506040513d601f19601f82011682018060405250810190610d669190611c93565b9050610d7d6001600160a01b0384163330856115b4565b600081846001600160a01b03166370a08231306040518263ffffffff1660e01b8152600401610dac9190611a1b565b60206040518083038186803b158015610dc457600080fd5b505afa158015610dd8573d6000803e3d6000fd5b505050506040513d601f19601f82011682018060405250810190610dfc9190611c93565b610e069190611cac565b6001600160a01b038516600090815260056020526040812080549293509160ff16610eb657600360009054906101000a90046001600160a01b03166001600160a01b031663568914126040518163ffffffff1660e01b815260040160206040518083038186803b158015610e7957600080fd5b505afa158015610e8d573d6000803e3d6000fd5b505050506040513d601f19601f82011682018060405250810190610eb19190611c93565b610f3c565b600360009054906101000a90046001600160a01b03166001600160a01b031663631516c26040518163ffffffff1660e01b815260040160206040518083038186803b158015610f0457600080fd5b505afa158015610f18573d6000803e3d6000fd5b505050506040513d601f19601f82011682018060405250810190610f3c9190611c93565b9050610f488682611625565b600483015560018201544210610f6f57610f6562278d0084611cc3565b6002830155610fb7565b6000428360010154610f819190611cac565b90506000836002015482610f959190611ce5565b905062278d00610fa58287611d04565b610faf9190611cc3565b600285015550505b4260038301819055610fcd9062278d0090611d04565b60018301556040805184815262278d0060208201526001600160a01b038816917f6a6f77044107a33658235d41bedbbaf2fe9ccdceb313143c947a5e76e1ec8474910160405180910390a2505050505050565b6001600160a01b038216600090815260056020526040812054819060ff161561115157600360009054906101000a90046001600160a01b03166001600160a01b031663631516c26040518163ffffffff1660e01b815260040160206040518083038186803b15801561109157600080fd5b505afa1580156110a5573d6000803e3d6000fd5b505050506040513d601f19601f820116820180604052508101906110c99190611c93565b6003546040516341f0635960e11b81529193506001600160a01b0316906383e0c6b2906110fa908690600401611a1b565b60206040518083038186803b15801561111257600080fd5b505afa158015611126573d6000803e3d6000fd5b505050506040513d601f19601f8201168201806040525081019061114a9190611c93565b905061125b565b600360009054906101000a90046001600160a01b03166001600160a01b031663568914126040518163ffffffff1660e01b815260040160206040518083038186803b15801561119f57600080fd5b505afa1580156111b3573d6000803e3d6000fd5b505050506040513d601f19601f820116820180604052508101906111d79190611c93565b60035460405163cbf9fe5f60e01b81529193506001600160a01b03169063cbf9fe5f90611208908690600401611a1b565b60206040518083038186803b15801561122057600080fd5b505afa158015611234573d6000803e3d6000fd5b505050506040513d601f19601f820116820180604052508101906112589190611c93565b90505b9250929050565b600061126e8584611625565b6001600160a01b0386166000908152600560205260409020600481018290559091506112998661078d565b60038201556001600160a01b038516156113325760405180604001604052806112c1846116fc565b6001600160801b031681526020016112e36112de89898989611417565b6116fc565b6001600160801b039081169091526001600160a01b038089166000908152600660209081526040808320938b168352928152919020835193909101518216600160801b02929091169190911790555b505050505050565b6000818310611349578161134b565b825b9392505050565b600154610100900460ff166113bd5760405162461bcd60e51b815260206004820152602b60248201527f496e697469616c697a61626c653a20636f6e7472616374206973206e6f74206960448201526a6e697469616c697a696e6760a81b60648201526084016103be565b600180546201000033810262010000600160b01b0319909216919091179182905560405191046001600160a01b0316906000907fd4459d5b8b913cab0244230fd9b1c08b6ceace7fe9230e60d0f74cbffdf849d0908290a3565b6001600160a01b03808516600090815260066020908152604080832093871683529281528282208351808501909452546001600160801b03808216808652600160801b909204169184019190915290919082906114748887611625565b61147e9190611cac565b90506000670de0b6b3a76400006114958387611ce5565b61149f9190611cc3565b90508083602001516001600160801b03166114ba9190611d04565b93505050505b949350505050565b6002600054141561151b5760405162461bcd60e51b815260206004820152601f60248201527f5265656e7472616e637947756172643a207265656e7472616e742063616c6c0060448201526064016103be565b6002600055565b6001600160a01b03808416600081815260066020908152604080832094871683529390529190912080546001600160801b03169055611562908383611769565b826001600160a01b0316826001600160a01b03167f540798df468d7b23d11f156fdb954cb19ad414d150722a7b6d55ba369dea792e836040516115a791815260200190565b60405180910390a3505050565b6040516001600160a01b038085166024830152831660448201526064810182905261161f9085906323b872dd60e01b906084015b60408051601f198184030181529190526020810180516001600160e01b03166001600160e01b03199093169290921790915261179e565b50505050565b60008161164e57506001600160a01b0382166000908152600560205260409020600401546107b4565b6001600160a01b0383166000908152600560205260408120600301546116738561078d565b61167d9190611cac565b6001600160a01b038516600090815260056020526040812060020154919250906116a79083611ce5565b90506000846116be83670de0b6b3a7640000611ce5565b6116c89190611cc3565b6001600160a01b0387166000908152600560205260409020600401549091506116f2908290611d04565b9695505050505050565b60006001600160801b038211156117655760405162461bcd60e51b815260206004820152602760248201527f53616665436173743a2076616c756520646f65736e27742066697420696e20316044820152663238206269747360c81b60648201526084016103be565b5090565b6040516001600160a01b03831660248201526044810182905261179990849063a9059cbb60e01b906064016115e8565b505050565b60006117f3826040518060400160405280602081526020017f5361666545524332303a206c6f772d6c6576656c2063616c6c206661696c6564815250856001600160a01b03166118709092919063ffffffff16565b80519091501561179957808060200190518101906118119190611d1c565b6117995760405162461bcd60e51b815260206004820152602a60248201527f5361666545524332303a204552433230206f7065726174696f6e20646964206e6044820152691bdd081cdd58d8d9595960b21b60648201526084016103be565b60606114c0848460008585600080866001600160a01b031685876040516118979190611d39565b60006040518083038185875af1925050503d80600081146118d4576040519150601f19603f3d011682016040523d82523d6000602084013e6118d9565b606091505b50915091506118ea878383876118f5565b979650505050505050565b6060831561196157825161195a576001600160a01b0385163b61195a5760405162461bcd60e51b815260206004820152601d60248201527f416464726573733a2063616c6c20746f206e6f6e2d636f6e747261637400000060448201526064016103be565b50816114c0565b6114c083838151156119765781518083602001fd5b8060405162461bcd60e51b81526004016103be9190611b5d565b6001600160a01b0381168114610c1457600080fd5b8015158114610c1457600080fd5b6000806000606084860312156119c857600080fd5b83356119d381611990565b925060208401356119e381611990565b915060408401356119f3816119a5565b809150509250925092565b600060208284031215611a1057600080fd5b813561134b81611990565b6001600160a01b0391909116815260200190565b60008060408385031215611a4257600080fd5b8235611a4d81611990565b91506020830135611a5d81611990565b809150509250929050565b60008060408385031215611a7b57600080fd5b8235611a8681611990565b946020939093013593505050565b600060208284031215611aa657600080fd5b5035919050565b604080825283519082018190526000906020906060840190828701845b82811015611aef5781516001600160a01b031684529284019290840190600101611aca565b5050508381038285015284518082528583019183019060005b81811015611b2457835183529284019291840191600101611b08565b5090979650505050505050565b60005b83811015611b4c578181015183820152602001611b34565b8381111561161f5750506000910152565b6020815260008251806020840152611b7c816040850160208701611b31565b601f01601f19169190910160400192915050565b6020808252600c908201526b3737ba16b3b7bb32b93737b960a11b604082015260600190565b6020808252825482820181905260008481528281209092916040850190845b81811015611bfa5783546001600160a01b031683526001938401939285019201611bd5565b50909695505050505050565b6020808252601690820152751c995dd85c990b5d1bdad95b8b5b9bdd0b585919195960521b604082015260600190565b634e487b7160e01b600052603260045260246000fd5b634e487b7160e01b600052601160045260246000fd5b6000600019821415611c7657611c76611c4c565b5060010190565b634e487b7160e01b600052604160045260246000fd5b600060208284031215611ca557600080fd5b5051919050565b600082821015611cbe57611cbe611c4c565b500390565b600082611ce057634e487b7160e01b600052601260045260246000fd5b500490565b6000816000190483118215151615611cff57611cff611c4c565b500290565b60008219821115611d1757611d17611c4c565b500190565b600060208284031215611d2e57600080fd5b815161134b816119a5565b60008251611d4b818460208701611b31565b919091019291505056fea2646970667358221220d080abc20ebb9c9862ad242e769a89381e8b5fa01de02190bb532cd82a9a8e0964736f6c63430008090033",
  "devdoc": {
    "kind": "dev",
    "methods": {
      "acceptGovernorship()": {
        "details": "Allows new governor to accept governorship of the contract."
      },
      "addRewardToken(address,address,bool)": {
        "params": {
          "distributor_": "Authorized called to call dripRewardAmount",
          "isBoosted_": "If reward token is boosted than rewards is distributed on boost amount depends on lock period",
          "rewardsToken_": "Reward token address"
        }
      },
      "claimRewards(address)": {
        "details": "This function will claim rewards for all tokens being rewarded",
        "params": {
          "account_": "The account"
        }
      },
      "claimableRewards(address)": {
        "params": {
          "account_": "The account"
        },
        "returns": {
          "_claimableAmounts": "The claimable amounts",
          "_rewardTokens": "The addresses of the reward tokens"
        }
      },
      "dripRewardAmount(address,uint256)": {
        "details": "Restricted method",
        "params": {
          "rewardAmount_": "Reward amount",
          "rewardToken_": "Reward token address"
        }
      },
      "lastTimeRewardApplicable(address)": {
        "params": {
          "_rewardToken": "The reward token"
        },
        "returns": {
          "_0": "The timestamp"
        }
      },
      "setRewardDistributorApproval(address,address,bool)": {
        "params": {
          "approved_": "The approved boolean flag",
          "distributor_": "The distributor address",
          "rewardsToken_": "The reward token"
        }
      },
      "transferGovernorship(address)": {
        "details": "Transfers governorship of the contract to a new account (`proposedGovernor`). Can only be called by the current owner."
      },
      "updateReward(address)": {
        "params": {
          "account_": "The account"
        }
      }
    },
    "title": "Rewards contract",
    "version": 1
  },
  "userdoc": {
    "events": {
      "RewardAdded(address,uint256,uint256)": {
        "notice": "Emitted after reward added"
      },
      "RewardDistributorApprovalUpdated(address,address,bool)": {
        "notice": "Emitted when distributor approval is updated"
      },
      "RewardPaid(address,address,uint256)": {
        "notice": "Emitted whenever any user claim rewards"
      },
      "RewardTokenAdded(address,address[])": {
        "notice": "Emitted after adding new rewards token into rewardTokens array"
      }
    },
    "kind": "user",
    "methods": {
      "addRewardToken(address,address,bool)": {
        "notice": "add new reward token for distribution"
      },
      "claimRewards(address)": {
        "notice": "Claim earned rewards"
      },
      "claimableRewards(address)": {
        "notice": "Get claimable rewards"
      },
      "dripRewardAmount(address,uint256)": {
        "notice": "Drip reward token and extend current reward duration by 30 days User get drip based on their boosted VSP amount"
      },
      "esVSP()": {
        "notice": "Locker contract"
      },
      "isRewardDistributor(address,address)": {
        "notice": "Reward distributors RewardToken -> distributor -> is approved to drip"
      },
      "lastTimeRewardApplicable(address)": {
        "notice": "Returns timestamp of last reward update"
      },
      "rewardOf(address,address)": {
        "notice": "User's rewards state per token"
      },
      "rewardTokens(uint256)": {
        "notice": "Array of reward tokens"
      },
      "rewards(address)": {
        "notice": "Rewards state per token"
      },
      "setRewardDistributorApproval(address,address,bool)": {
        "notice": "Allow/disallow address as a reward distributor for a given token"
      },
      "updateReward(address)": {
        "notice": "Update reward earning of user"
      }
    },
    "version": 1
  },
  "storageLayout": {
    "storage": [
      {
        "astId": 3929,
        "contract": "contracts/Rewards.sol:Rewards",
        "label": "_status",
        "offset": 0,
        "slot": "0",
        "type": "t_uint256"
      },
      {
        "astId": 3756,
        "contract": "contracts/Rewards.sol:Rewards",
        "label": "_initialized",
        "offset": 0,
        "slot": "1",
        "type": "t_uint8"
      },
      {
        "astId": 3759,
        "contract": "contracts/Rewards.sol:Rewards",
        "label": "_initializing",
        "offset": 1,
        "slot": "1",
        "type": "t_bool"
      },
      {
        "astId": 2831,
        "contract": "contracts/Rewards.sol:Rewards",
        "label": "governor",
        "offset": 2,
        "slot": "1",
        "type": "t_address"
      },
      {
        "astId": 2833,
        "contract": "contracts/Rewards.sol:Rewards",
        "label": "proposedGovernor",
        "offset": 0,
        "slot": "2",
        "type": "t_address"
      },
      {
        "astId": 9238,
        "contract": "contracts/Rewards.sol:Rewards",
        "label": "esVSP",
        "offset": 0,
        "slot": "3",
        "type": "t_contract(IESVSP)8993"
      },
      {
        "astId": 9242,
        "contract": "contracts/Rewards.sol:Rewards",
        "label": "rewardTokens",
        "offset": 0,
        "slot": "4",
        "type": "t_array(t_address)dyn_storage"
      },
      {
        "astId": 9248,
        "contract": "contracts/Rewards.sol:Rewards",
        "label": "rewards",
        "offset": 0,
        "slot": "5",
        "type": "t_mapping(t_address,t_struct(Reward)9229_storage)"
      },
      {
        "astId": 9256,
        "contract": "contracts/Rewards.sol:Rewards",
        "label": "rewardOf",
        "offset": 0,
        "slot": "6",
        "type": "t_mapping(t_address,t_mapping(t_address,t_struct(UserReward)9234_storage))"
      },
      {
        "astId": 9263,
        "contract": "contracts/Rewards.sol:Rewards",
        "label": "isRewardDistributor",
        "offset": 0,
        "slot": "7",
        "type": "t_mapping(t_address,t_mapping(t_address,t_bool))"
      }
    ],
    "types": {
      "t_address": {
        "encoding": "inplace",
        "label": "address",
        "numberOfBytes": "20"
      },
      "t_array(t_address)dyn_storage": {
        "base": "t_address",
        "encoding": "dynamic_array",
        "label": "address[]",
        "numberOfBytes": "32"
      },
      "t_bool": {
        "encoding": "inplace",
        "label": "bool",
        "numberOfBytes": "1"
      },
      "t_contract(IESVSP)8993": {
        "encoding": "inplace",
        "label": "contract IESVSP",
        "numberOfBytes": "20"
      },
      "t_mapping(t_address,t_bool)": {
        "encoding": "mapping",
        "key": "t_address",
        "label": "mapping(address => bool)",
        "numberOfBytes": "32",
        "value": "t_bool"
      },
      "t_mapping(t_address,t_mapping(t_address,t_bool))": {
        "encoding": "mapping",
        "key": "t_address",
        "label": "mapping(address => mapping(address => bool))",
        "numberOfBytes": "32",
        "value": "t_mapping(t_address,t_bool)"
      },
      "t_mapping(t_address,t_mapping(t_address,t_struct(UserReward)9234_storage))": {
        "encoding": "mapping",
        "key": "t_address",
        "label": "mapping(address => mapping(address => struct RewardsStorageV1.UserReward))",
        "numberOfBytes": "32",
        "value": "t_mapping(t_address,t_struct(UserReward)9234_storage)"
      },
      "t_mapping(t_address,t_struct(Reward)9229_storage)": {
        "encoding": "mapping",
        "key": "t_address",
        "label": "mapping(address => struct RewardsStorageV1.Reward)",
        "numberOfBytes": "32",
        "value": "t_struct(Reward)9229_storage"
      },
      "t_mapping(t_address,t_struct(UserReward)9234_storage)": {
        "encoding": "mapping",
        "key": "t_address",
        "label": "mapping(address => struct RewardsStorageV1.UserReward)",
        "numberOfBytes": "32",
        "value": "t_struct(UserReward)9234_storage"
      },
      "t_struct(Reward)9229_storage": {
        "encoding": "inplace",
        "label": "struct RewardsStorageV1.Reward",
        "members": [
          {
            "astId": 9220,
            "contract": "contracts/Rewards.sol:Rewards",
            "label": "isBoosted",
            "offset": 0,
            "slot": "0",
            "type": "t_bool"
          },
          {
            "astId": 9222,
            "contract": "contracts/Rewards.sol:Rewards",
            "label": "periodFinish",
            "offset": 0,
            "slot": "1",
            "type": "t_uint256"
          },
          {
            "astId": 9224,
            "contract": "contracts/Rewards.sol:Rewards",
            "label": "rewardPerSecond",
            "offset": 0,
            "slot": "2",
            "type": "t_uint256"
          },
          {
            "astId": 9226,
            "contract": "contracts/Rewards.sol:Rewards",
            "label": "lastUpdateTime",
            "offset": 0,
            "slot": "3",
            "type": "t_uint256"
          },
          {
            "astId": 9228,
            "contract": "contracts/Rewards.sol:Rewards",
            "label": "rewardPerTokenStored",
            "offset": 0,
            "slot": "4",
            "type": "t_uint256"
          }
        ],
        "numberOfBytes": "160"
      },
      "t_struct(UserReward)9234_storage": {
        "encoding": "inplace",
        "label": "struct RewardsStorageV1.UserReward",
        "members": [
          {
            "astId": 9231,
            "contract": "contracts/Rewards.sol:Rewards",
            "label": "rewardPerTokenPaid",
            "offset": 0,
            "slot": "0",
            "type": "t_uint128"
          },
          {
            "astId": 9233,
            "contract": "contracts/Rewards.sol:Rewards",
            "label": "claimableRewardsStored",
            "offset": 16,
            "slot": "0",
            "type": "t_uint128"
          }
        ],
        "numberOfBytes": "32"
      },
      "t_uint128": {
        "encoding": "inplace",
        "label": "uint128",
        "numberOfBytes": "16"
      },
      "t_uint256": {
        "encoding": "inplace",
        "label": "uint256",
        "numberOfBytes": "32"
      },
      "t_uint8": {
        "encoding": "inplace",
        "label": "uint8",
        "numberOfBytes": "1"
      }
    }
  }
}